{
  "_format": "hh-sol-artifact-1",
  "contractName": "SkillChain",
  "sourceName": "contracts/SkillChain.sol",
  "abi": [
    {
      "inputs": [],
      "stateMutability": "nonpayable",
      "type": "constructor"
    },
    {
      "inputs": [
        {
          "internalType": "uint256",
          "name": "individual_id",
          "type": "uint256"
        },
        {
          "internalType": "string",
          "name": "metaurl",
          "type": "string"
        },
        {
          "internalType": "uint256",
          "name": "linked_skill_id",
          "type": "uint256"
        }
      ],
      "name": "add_certification",
      "outputs": [],
      "stateMutability": "nonpayable",
      "type": "function"
    },
    {
      "inputs": [
        {
          "internalType": "uint256",
          "name": "org_id",
          "type": "uint256"
        },
        {
          "internalType": "uint256",
          "name": "employee_id",
          "type": "uint256"
        }
      ],
      "name": "add_employee",
      "outputs": [],
      "stateMutability": "nonpayable",
      "type": "function"
    },
    {
      "inputs": [
        {
          "internalType": "uint256",
          "name": "individualid",
          "type": "uint256"
        },
        {
          "internalType": "string",
          "name": "skill_name",
          "type": "string"
        }
      ],
      "name": "add_skill",
      "outputs": [],
      "stateMutability": "nonpayable",
      "type": "function"
    },
    {
      "inputs": [
        {
          "internalType": "address",
          "name": "",
          "type": "address"
        }
      ],
      "name": "address_to_id",
      "outputs": [
        {
          "internalType": "uint256",
          "name": "",
          "type": "uint256"
        }
      ],
      "stateMutability": "view",
      "type": "function"
    },
    {
      "inputs": [
        {
          "internalType": "uint256",
          "name": "id",
          "type": "uint256"
        }
      ],
      "name": "cert_of_skill",
      "outputs": [
        {
          "internalType": "uint256[]",
          "name": "",
          "type": "uint256[]"
        }
      ],
      "stateMutability": "view",
      "type": "function"
    },
    {
      "inputs": [
        {
          "internalType": "uint256",
          "name": "",
          "type": "uint256"
        }
      ],
      "name": "certifications",
      "outputs": [
        {
          "internalType": "string",
          "name": "metaurl",
          "type": "string"
        },
        {
          "internalType": "uint256",
          "name": "id",
          "type": "uint256"
        }
      ],
      "stateMutability": "view",
      "type": "function"
    },
    {
      "inputs": [
        {
          "internalType": "uint256",
          "name": "id",
          "type": "uint256"
        }
      ],
      "name": "curr_emp_of_organization",
      "outputs": [
        {
          "internalType": "uint256[]",
          "name": "",
          "type": "uint256[]"
        }
      ],
      "stateMutability": "view",
      "type": "function"
    },
    {
      "inputs": [
        {
          "internalType": "uint256",
          "name": "employee_id",
          "type": "uint256"
        }
      ],
      "name": "editemployeerole",
      "outputs": [],
      "stateMutability": "nonpayable",
      "type": "function"
    },
    {
      "inputs": [
        {
          "internalType": "string",
          "name": "",
          "type": "string"
        }
      ],
      "name": "email_to_address",
      "outputs": [
        {
          "internalType": "address",
          "name": "",
          "type": "address"
        }
      ],
      "stateMutability": "view",
      "type": "function"
    },
    {
      "inputs": [
        {
          "internalType": "uint256",
          "name": "",
          "type": "uint256"
        }
      ],
      "name": "employees",
      "outputs": [
        {
          "internalType": "uint256",
          "name": "id",
          "type": "uint256"
        },
        {
          "internalType": "uint256",
          "name": "organization_id",
          "type": "uint256"
        },
        {
          "internalType": "string",
          "name": "metaurl",
          "type": "string"
        },
        {
          "internalType": "address",
          "name": "wallet_address",
          "type": "address"
        },
        {
          "internalType": "bool",
          "name": "is_employed",
          "type": "bool"
        },
        {
          "internalType": "bool",
          "name": "is_manager",
          "type": "bool"
        },
        {
          "internalType": "uint256",
          "name": "num_skill",
          "type": "uint256"
        }
      ],
      "stateMutability": "view",
      "type": "function"
    },
    {
      "inputs": [],
      "name": "getAllOrgs",
      "outputs": [
        {
          "components": [
            {
              "internalType": "uint256",
              "name": "id",
              "type": "uint256"
            },
            {
              "internalType": "string",
              "name": "metaurl",
              "type": "string"
            },
            {
              "internalType": "address",
              "name": "wallet_address",
              "type": "address"
            },
            {
              "internalType": "uint256[]",
              "name": "current_employees",
              "type": "uint256[]"
            },
            {
              "internalType": "uint256[]",
              "name": "previous_employees",
              "type": "uint256[]"
            }
          ],
          "internalType": "struct SkillChain.organization[]",
          "name": "",
          "type": "tuple[]"
        }
      ],
      "stateMutability": "view",
      "type": "function"
    },
    {
      "inputs": [],
      "name": "getAllUsers",
      "outputs": [
        {
          "components": [
            {
              "internalType": "uint256",
              "name": "id",
              "type": "uint256"
            },
            {
              "internalType": "uint256",
              "name": "organization_id",
              "type": "uint256"
            },
            {
              "internalType": "string",
              "name": "metaurl",
              "type": "string"
            },
            {
              "internalType": "address",
              "name": "wallet_address",
              "type": "address"
            },
            {
              "internalType": "bool",
              "name": "is_employed",
              "type": "bool"
            },
            {
              "internalType": "bool",
              "name": "is_manager",
              "type": "bool"
            },
            {
              "internalType": "uint256",
              "name": "num_skill",
              "type": "uint256"
            },
            {
              "internalType": "uint256[]",
              "name": "individual_skills",
              "type": "uint256[]"
            }
          ],
          "internalType": "struct SkillChain.individual[]",
          "name": "",
          "type": "tuple[]"
        }
      ],
      "stateMutability": "view",
      "type": "function"
    },
    {
      "inputs": [],
      "name": "getNumberOfOrganizations",
      "outputs": [
        {
          "internalType": "uint256",
          "name": "",
          "type": "uint256"
        }
      ],
      "stateMutability": "view",
      "type": "function"
    },
    {
      "inputs": [],
      "name": "getNumberOfUsers",
      "outputs": [
        {
          "internalType": "uint256",
          "name": "",
          "type": "uint256"
        }
      ],
      "stateMutability": "view",
      "type": "function"
    },
    {
      "inputs": [],
      "name": "initialized",
      "outputs": [
        {
          "internalType": "bool",
          "name": "",
          "type": "bool"
        }
      ],
      "stateMutability": "view",
      "type": "function"
    },
    {
      "inputs": [
        {
          "internalType": "address",
          "name": "",
          "type": "address"
        }
      ],
      "name": "is_organization",
      "outputs": [
        {
          "internalType": "bool",
          "name": "",
          "type": "bool"
        }
      ],
      "stateMutability": "view",
      "type": "function"
    },
    {
      "inputs": [
        {
          "internalType": "uint256",
          "name": "",
          "type": "uint256"
        }
      ],
      "name": "organizations",
      "outputs": [
        {
          "internalType": "uint256",
          "name": "id",
          "type": "uint256"
        },
        {
          "internalType": "string",
          "name": "metaurl",
          "type": "string"
        },
        {
          "internalType": "address",
          "name": "wallet_address",
          "type": "address"
        }
      ],
      "stateMutability": "view",
      "type": "function"
    },
    {
      "inputs": [
        {
          "internalType": "uint256",
          "name": "id",
          "type": "uint256"
        }
      ],
      "name": "prev_emp_of_organization",
      "outputs": [
        {
          "internalType": "uint256[]",
          "name": "",
          "type": "uint256[]"
        }
      ],
      "stateMutability": "view",
      "type": "function"
    },
    {
      "inputs": [
        {
          "internalType": "uint256",
          "name": "org_id",
          "type": "uint256"
        },
        {
          "internalType": "uint256",
          "name": "employee_id",
          "type": "uint256"
        }
      ],
      "name": "remove_employee",
      "outputs": [],
      "stateMutability": "nonpayable",
      "type": "function"
    },
    {
      "inputs": [
        {
          "internalType": "string",
          "name": "email",
          "type": "string"
        },
        {
          "internalType": "string",
          "name": "metaurl",
          "type": "string"
        },
        {
          "internalType": "string",
          "name": "acc_type",
          "type": "string"
        }
      ],
      "name": "sign_up",
      "outputs": [],
      "stateMutability": "nonpayable",
      "type": "function"
    },
    {
      "inputs": [
        {
          "internalType": "string",
          "name": "email",
          "type": "string"
        }
      ],
      "name": "signin",
      "outputs": [
        {
          "internalType": "string",
          "name": "accountType",
          "type": "string"
        },
        {
          "internalType": "uint256",
          "name": "id",
          "type": "uint256"
        }
      ],
      "stateMutability": "view",
      "type": "function"
    },
    {
      "inputs": [
        {
          "internalType": "uint256",
          "name": "",
          "type": "uint256"
        }
      ],
      "name": "skills",
      "outputs": [
        {
          "internalType": "uint256",
          "name": "id",
          "type": "uint256"
        },
        {
          "internalType": "string",
          "name": "name",
          "type": "string"
        },
        {
          "internalType": "bool",
          "name": "verified",
          "type": "bool"
        }
      ],
      "stateMutability": "view",
      "type": "function"
    },
    {
      "inputs": [
        {
          "internalType": "uint256",
          "name": "id",
          "type": "uint256"
        }
      ],
      "name": "skills_of_individual",
      "outputs": [
        {
          "internalType": "uint256[]",
          "name": "",
          "type": "uint256[]"
        }
      ],
      "stateMutability": "view",
      "type": "function"
    },
    {
      "inputs": [
        {
          "internalType": "string",
          "name": "email",
          "type": "string"
        },
        {
          "internalType": "address",
          "name": "new_address",
          "type": "address"
        }
      ],
      "name": "update_wallet_address",
      "outputs": [],
      "stateMutability": "nonpayable",
      "type": "function"
    },
    {
      "inputs": [
        {
          "internalType": "uint256",
          "name": "id",
          "type": "uint256"
        }
      ],
      "name": "ver_of_skill",
      "outputs": [
        {
          "internalType": "uint256[]",
          "name": "",
          "type": "uint256[]"
        }
      ],
      "stateMutability": "view",
      "type": "function"
    },
    {
      "inputs": [
        {
          "internalType": "uint256",
          "name": "",
          "type": "uint256"
        }
      ],
      "name": "verifications",
      "outputs": [
        {
          "internalType": "uint256",
          "name": "verifier_id",
          "type": "uint256"
        },
        {
          "internalType": "string",
          "name": "metaurl",
          "type": "string"
        }
      ],
      "stateMutability": "view",
      "type": "function"
    },
    {
      "inputs": [
        {
          "internalType": "uint256",
          "name": "individual_id",
          "type": "uint256"
        },
        {
          "internalType": "uint256",
          "name": "skill_id",
          "type": "uint256"
        },
        {
          "internalType": "string",
          "name": "metaurl",
          "type": "string"
        }
      ],
      "name": "verify_skill",
      "outputs": [],
      "stateMutability": "nonpayable",
      "type": "function"
    }
  ],
  "bytecode": "0x608060405234801561001057600080fd5b5060005460ff16156100685760405162461bcd60e51b815260206004820152601c60248201527f436f6e747261637420616c726561647920696e697469616c697a656400000000604482015260640160405180910390fd5b6000805460ff19166001179055612621806100846000396000f3fe608060405234801561001057600080fd5b50600436106101a95760003560e01c80636f09af16116100f9578063b1d79ec111610097578063cf88e16f11610071578063cf88e16f1461040b578063e2842d791461041e578063e792dd8a14610433578063f7a03f3b1461045557600080fd5b8063b1d79ec1146103cf578063b90b0a10146103e2578063bd3a694e1461040357600080fd5b8063884ffe32116100d3578063884ffe3214610383578063963aef9f1461039657806397a62bc6146103a95780639a4dc41e146103bc57600080fd5b80636f09af161461033d5780637a52f30e146103505780637fa6d7e61461037057600080fd5b80634739326b1161016657806350d15fbe1161014057806350d15fbe146102e05780635a2ec07c1461030257806361c30fdc146103155780636c4cc7a61461032a57600080fd5b80634739326b1461025c5780634845a295146102825780634d009288146102ce57600080fd5b806308a32ae1146101ae5780631575cdea146101c3578063158ef93e146101d65780632d59cdea146101f85780632f7e8a78146102185780633c0359a41461023b575b600080fd5b6101c16101bc366004611dff565b610468565b005b6101c16101d1366004611e63565b6105b9565b6000546101e39060ff1681565b60405190151581526020015b60405180910390f35b61020b610206366004611efd565b6108c3565b6040516101ef9190611f16565b6101e3610226366004611f76565b60036020526000908152604090205460ff1681565b61024e610249366004611efd565b61093f565b6040516101ef929190611fde565b61026f61026a366004611efd565b6109fb565b6040516101ef9796959493929190612000565b6102b66102903660046120f1565b80516020818301810180516001825292820191909301209152546001600160a01b031681565b6040516001600160a01b0390911681526020016101ef565b6005545b6040519081526020016101ef565b6102f36102ee366004611efd565b610aeb565b6040516101ef9392919061212e565b6101c1610310366004612159565b610bac565b61031d610cb4565b6040516101ef91906121e0565b6101c16103383660046122a2565b610e6f565b61020b61034b366004611efd565b6110a1565b6102d261035e366004611f76565b60026020526000908152604090205481565b6101c161037e366004611efd565b61111b565b6101c16103913660046122f5565b6112b6565b61020b6103a4366004611efd565b6113b3565b61020b6103b7366004611efd565b6113c8565b61024e6103ca366004612349565b611442565b6101c16103dd36600461238b565b611666565b6103f56103f0366004611efd565b611726565b6040516101ef9291906123db565b6004546102d2565b6101c1610419366004611dff565b6117de565b610426611a0b565b6040516101ef91906123f4565b610446610441366004611efd565b611ba4565b6040516101ef939291906124b9565b61020b610463366004611efd565b611c6b565b3360009081526003602052604090205460ff166104e05760405162461bcd60e51b815260206004820152602b60248201527f6572726f723a206f6e6c79206f7267616e697a6174696f6e732063616e20616460448201526a6420656d706c6f7965657360a81b60648201526084015b60405180910390fd5b60045482106105015760405162461bcd60e51b81526004016104d7906124ea565b60055481106105525760405162461bcd60e51b815260206004820152601e60248201527f6572726f723a20656d706c6f79656520646f6573206e6f74206578697374000060448201526064016104d7565b600482815481106105655761056561252c565b60009182526020808320600592830201600301805460018101825590845292209091018290558054839190839081106105a0576105a061252c565b9060005260206000209060060201600101819055505050565b60006001600160a01b0316600187876040516105d6929190612542565b908152604051908190036020019020546001600160a01b03161461063c5760405162461bcd60e51b815260206004820152601e60248201527f6572726f723a206163636f756e7420616c72656164792065786973747321000060448201526064016104d7565b336001878760405161064f929190612542565b908152604080516020928190038301812080546001600160a01b0319166001600160a01b039590951694909417909355601f840182900482028301820190528282526106d8919084908490819084018382808284376000920191909152505060408051808201909152600a8152691a5b991a5d9a591d585b60b21b60208201529150611c809050565b156107b5576005546106f1576005805460010181556000525b600580546001810182556000919091526006027f036b6384b5eca791c62761152d0c79bb0604c104a5fb6f4eb0703f3154bb3db0810190610755907f036b6384b5eca791c62761152d0c79bb0604c104a5fb6f4eb0703f3154bb3db2018686611cb8565b5060055461076590600190612568565b8082556003820180546001600160a01b031916339081179091556000908152600260209081526040808320939093558251918252810191829052516107ae916005840191611d3c565b50506108bb565b6004546107c9576004805460010181556000525b600480546001810182556000919091526005027f8a35acfbc15ff81a39ae7d344fd709f28e8600b4aa8c65c6b64bfe7fe36bd19b81019061082d907f8a35acfbc15ff81a39ae7d344fd709f28e8600b4aa8c65c6b64bfe7fe36bd19c018686611cb8565b5060045461083d90600190612568565b81556002810180546001600160a01b031916331790556040805160008152602081019182905251610872916003840191611d3c565b506040805160008152602081019182905251610892916004840191611d3c565b5054336000908152600260209081526040808320939093556003905220805460ff191660011790555b505050505050565b6060600482815481106108d8576108d861252c565b906000526020600020906005020160040180548060200260200160405190810160405280929190818152602001828054801561093357602002820191906000526020600020905b81548152602001906001019080831161091f575b50505050509050919050565b6006818154811061094f57600080fd5b90600052602060002090600202016000915090508060000180546109729061257f565b80601f016020809104026020016040519081016040528092919081815260200182805461099e9061257f565b80156109eb5780601f106109c0576101008083540402835291602001916109eb565b820191906000526020600020905b8154815290600101906020018083116109ce57829003601f168201915b5050505050908060010154905082565b60058181548110610a0b57600080fd5b9060005260206000209060060201600091509050806000015490806001015490806002018054610a3a9061257f565b80601f0160208091040260200160405190810160405280929190818152602001828054610a669061257f565b8015610ab35780601f10610a8857610100808354040283529160200191610ab3565b820191906000526020600020905b815481529060010190602001808311610a9657829003601f168201915b505050600384015460049094015492936001600160a01b0381169360ff600160a01b830481169450600160a81b909204909116915087565b60088181548110610afb57600080fd5b60009182526020909120600590910201805460018201805491935090610b209061257f565b80601f0160208091040260200160405190810160405280929190818152602001828054610b4c9061257f565b8015610b995780601f10610b6e57610100808354040283529160200191610b99565b820191906000526020600020905b815481529060010190602001808311610b7c57829003601f168201915b5050506002909301549192505060ff1683565b3360009081526002602052604090205483908114610bc957600080fd5b60088054600181018255600091909152600580549181027ff3f7a9fe364faab93b216da50a3214154f22a0a2b415b23a84c8169e8b636ee3019186908110610c1357610c1361252c565b90600052602060002090600602016005016001600880549050610c369190612568565b815460018181018455600093845260209093200155600854610c589190612568565b8155610c68600182018585611cb8565b5060028101805460ff191690556040805160008152602081019182905251610c94916003840191611d3c565b5060408051600081526020810191829052516108bb916004840191611d3c565b60606004805480602002602001604051908101604052809291908181526020016000905b82821015610e6657838290600052602060002090600502016040518060a001604052908160008201548152602001600182018054610d159061257f565b80601f0160208091040260200160405190810160405280929190818152602001828054610d419061257f565b8015610d8e5780601f10610d6357610100808354040283529160200191610d8e565b820191906000526020600020905b815481529060010190602001808311610d7157829003601f168201915b505050918352505060028201546001600160a01b03166020808301919091526003830180546040805182850281018501825282815294019392830182828015610df657602002820191906000526020600020905b815481526020019060010190808311610de2575b5050505050815260200160048201805480602002602001604051908101604052809291908181526020018280548015610e4e57602002820191906000526020600020905b815481526020019060010190808311610e3a575b50505050508152505081526020019060010190610cd8565b50505050905090565b33600090815260026020526040902054841415610ee55760405162461bcd60e51b815260206004820152602e60248201527f6572726f723a20456e646f727365722063616e6e6f7420656e646f727365207460448201526d1a195a5c881bdddb881cdada5b1b60921b60648201526084016104d7565b60078054600181019091553360009081526002602081905260409091205491027fa66cc928b5edb82af9bd49922954155ab7b0942694bea4ce44661d9a8736c6888101918255610f58907fa66cc928b5edb82af9bd49922954155ab7b0942694bea4ce44661d9a8736c689018484611cb8565b5060088481548110610f6c57610f6c61252c565b90600052602060002090600502016004016001600780549050610f8f9190612568565b81546001810183556000928352602080842090910191909155338252600290526040902054600580549091908110610fc957610fc961252c565b906000526020600020906006020160030160159054906101000a900460ff161561109a57600585815481106110005761100061252c565b906000526020600020906006020160010154600560026000336001600160a01b03166001600160a01b03168152602001908152602001600020548154811061104a5761104a61252c565b906000526020600020906006020160010154141561109a576001600885815481106110775761107761252c565b60009182526020909120600590910201600201805460ff19169115159190911790555b5050505050565b6060600482815481106110b6576110b661252c565b9060005260206000209060050201600301805480602002602001604051908101604052809291908181526020018280548015610933576020028201919060005260206000209081548152602001906001019080831161091f5750505050509050919050565b3360009081526003602052604090205460ff1661118c5760405162461bcd60e51b815260206004820152602960248201527f6572726f723a2073656e646572206e6f7420616e206f7267616e697a6174696f6044820152681b881858d8dbdd5b9d60ba1b60648201526084016104d7565b3360009081526002602052604090205460058054839081106111b0576111b061252c565b906000526020600020906006020160010154146112235760405162461bcd60e51b815260206004820152602b60248201527f6572726f723a2075736572206973206e6f74206f66207468652073616d65206f60448201526a3933b0b734bd30ba34b7b760a91b60648201526084016104d7565b600581815481106112365761123661252c565b906000526020600020906006020160030160159054906101000a900460ff1615156001151514156112a1576000600582815481106112765761127661252c565b906000526020600020906006020160030160156101000a81548160ff02191690831515021790555050565b6001600582815481106112765761127661252c565b336001600160a01b0316600184846040516112d2929190612542565b908152604051908190036020019020546001600160a01b0316146113555760405162461bcd60e51b815260206004820152603460248201527f6572726f723a2046756e6374696f6e2063616c6c65642066726f6d20696e636f60448201527372726563742077616c6c6574206164647265737360601b60648201526084016104d7565b8060018484604051611368929190612542565b908152604080516020928190038301902080546001600160a01b0319166001600160a01b03948516179055336000908152600290925280822080549083905593909216815220555050565b6060600882815481106108d8576108d861252c565b6060600582815481106113dd576113dd61252c565b9060005260206000209060060201600501805480602002602001604051908101604052809291908181526020018280548015610933576020028201919060005260206000209081548152602001906001019080831161091f5750505050509050919050565b6060600060018484604051611458929190612542565b90815260405190819003602001902054336001600160a01b03909116146114dd5760405162461bcd60e51b815260206004820152603360248201527f6572726f723a20696e636f72726563742077616c6c65742061646472657373206044820152723ab9b2b2103337b91039b4b3b734b7339034b760691b60648201526084016104d7565b3360009081526003602052604090205460ff16156115ad576040518060400160405280600c81526020016b37b933b0b734bd30ba34b7b760a11b815250915060005b6004548110156115a757336001600160a01b0316600482815481106115465761154661252c565b60009182526020909120600260059092020101546001600160a01b03161415611595576004818154811061157c5761157c61252c565b90600052602060002090600502016000015491506115a7565b8061159f816125ba565b91505061151f565b5061165f565b6040518060400160405280600a8152602001691a5b991a5d9a591d585b60b21b815250915060005b60055481101561165d57336001600160a01b0316600582815481106115fc576115fc61252c565b60009182526020909120600360069092020101546001600160a01b0316141561164b57600581815481106116325761163261252c565b906000526020600020906006020160000154915061165d565b80611655816125ba565b9150506115d5565b505b9250929050565b336000908152600260205260409020548390811461168357600080fd5b60068054600181018255600091909152835160029091027ff652222313e28459528d920b65115c16c04f3efc82aaedc97be59f3f377c0d3f01906116cd9082906020870190611d77565b506006546116dd90600190612568565b600182015560088054849081106116f6576116f661252c565b60009182526020808320600194850154600593909302016003018054948501815583529091209091015550505050565b6007818154811061173657600080fd5b6000918252602090912060029091020180546001820180549193509061175b9061257f565b80601f01602080910402602001604051908101604052809291908181526020018280546117879061257f565b80156117d45780601f106117a9576101008083540402835291602001916117d4565b820191906000526020600020905b8154815290600101906020018083116117b757829003601f168201915b5050505050905082565b3360009081526003602052604090205460ff166118545760405162461bcd60e51b815260206004820152602e60248201527f6572726f723a206f6e6c79206f7267616e697a6174696f6e732063616e20726560448201526d6d6f766520656d706c6f7965657360901b60648201526084016104d7565b60045482106118755760405162461bcd60e51b81526004016104d7906124ea565b60055481106118c65760405162461bcd60e51b815260206004820152601e60248201527f6572726f723a20656d706c6f79656520646f6573206e6f74206578697374000060448201526064016104d7565b6000600483815481106118db576118db61252c565b9060005260206000209060050201600301905060005b81548110156119a6578282828154811061190d5761190d61252c565b90600052602060002001541415611994578154829061192e90600190612568565b8154811061193e5761193e61252c565b906000526020600020015482828154811061195b5761195b61252c565b906000526020600020018190555081805480611979576119796125d5565b600190038181906000526020600020016000905590556119a6565b8061199e816125ba565b9150506118f1565b50600483815481106119ba576119ba61252c565b600091825260208083206005928302016004018054600181018255908452908320018490558054849081106119f1576119f161252c565b906000526020600020906006020160010181905550505050565b60606005805480602002602001604051908101604052809291908181526020016000905b82821015610e665783829060005260206000209060060201604051806101000160405290816000820154815260200160018201548152602001600282018054611a779061257f565b80601f0160208091040260200160405190810160405280929190818152602001828054611aa39061257f565b8015611af05780601f10611ac557610100808354040283529160200191611af0565b820191906000526020600020905b815481529060010190602001808311611ad357829003601f168201915b505050918352505060038201546001600160a01b03811660208084019190915260ff600160a01b830481161515604080860191909152600160a81b90930416151560608401526004840154608084015260058401805483518184028101840190945280845260a0909401939091830182828015611b8c57602002820191906000526020600020905b815481526020019060010190808311611b78575b50505050508152505081526020019060010190611a2f565b60048181548110611bb457600080fd5b60009182526020909120600590910201805460018201805491935090611bd99061257f565b80601f0160208091040260200160405190810160405280929190818152602001828054611c059061257f565b8015611c525780601f10611c2757610100808354040283529160200191611c52565b820191906000526020600020905b815481529060010190602001808311611c3557829003601f168201915b505050600290930154919250506001600160a01b031683565b6060600882815481106110b6576110b661252c565b6000611c8c8383611c93565b9392505050565b600081518351148015611c8c5750508051602091820120825192909101919091201490565b828054611cc49061257f565b90600052602060002090601f016020900481019282611ce65760008555611d2c565b82601f10611cff5782800160ff19823516178555611d2c565b82800160010185558215611d2c579182015b82811115611d2c578235825591602001919060010190611d11565b50611d38929150611dea565b5090565b828054828255906000526020600020908101928215611d2c579160200282015b82811115611d2c578251825591602001919060010190611d5c565b828054611d839061257f565b90600052602060002090601f016020900481019282611da55760008555611d2c565b82601f10611dbe57805160ff1916838001178555611d2c565b82800160010185558215611d2c5791820182811115611d2c578251825591602001919060010190611d5c565b5b80821115611d385760008155600101611deb565b60008060408385031215611e1257600080fd5b50508035926020909101359150565b60008083601f840112611e3357600080fd5b50813567ffffffffffffffff811115611e4b57600080fd5b60208301915083602082850101111561165f57600080fd5b60008060008060008060608789031215611e7c57600080fd5b863567ffffffffffffffff80821115611e9457600080fd5b611ea08a838b01611e21565b90985096506020890135915080821115611eb957600080fd5b611ec58a838b01611e21565b90965094506040890135915080821115611ede57600080fd5b50611eeb89828a01611e21565b979a9699509497509295939492505050565b600060208284031215611f0f57600080fd5b5035919050565b6020808252825182820181905260009190848201906040850190845b81811015611f4e57835183529284019291840191600101611f32565b50909695505050505050565b80356001600160a01b0381168114611f7157600080fd5b919050565b600060208284031215611f8857600080fd5b611c8c82611f5a565b6000815180845260005b81811015611fb757602081850181015186830182015201611f9b565b81811115611fc9576000602083870101525b50601f01601f19169290920160200192915050565b604081526000611ff16040830185611f91565b90508260208301529392505050565b87815286602082015260e06040820152600061201f60e0830188611f91565b6001600160a01b0396909616606083015250921515608084015290151560a083015260c0909101529392505050565b634e487b7160e01b600052604160045260246000fd5b600082601f83011261207557600080fd5b813567ffffffffffffffff808211156120905761209061204e565b604051601f8301601f19908116603f011681019082821181831017156120b8576120b861204e565b816040528381528660208588010111156120d157600080fd5b836020870160208301376000602085830101528094505050505092915050565b60006020828403121561210357600080fd5b813567ffffffffffffffff81111561211a57600080fd5b61212684828501612064565b949350505050565b8381526060602082015260006121476060830185611f91565b90508215156040830152949350505050565b60008060006040848603121561216e57600080fd5b83359250602084013567ffffffffffffffff81111561218c57600080fd5b61219886828701611e21565b9497909650939450505050565b600081518084526020808501945080840160005b838110156121d5578151875295820195908201906001016121b9565b509495945050505050565b60006020808301818452808551808352604092508286019150828160051b87010184880160005b8381101561229457603f19898403018552815160a08151855288820151818a87015261223582870182611f91565b838a01516001600160a01b0316878b0152606080850151888303828a0152919350915061226283826121a5565b925050506080808301519250858203818701525061228081836121a5565b968901969450505090860190600101612207565b509098975050505050505050565b600080600080606085870312156122b857600080fd5b8435935060208501359250604085013567ffffffffffffffff8111156122dd57600080fd5b6122e987828801611e21565b95989497509550505050565b60008060006040848603121561230a57600080fd5b833567ffffffffffffffff81111561232157600080fd5b61232d86828701611e21565b9094509250612340905060208501611f5a565b90509250925092565b6000806020838503121561235c57600080fd5b823567ffffffffffffffff81111561237357600080fd5b61237f85828601611e21565b90969095509350505050565b6000806000606084860312156123a057600080fd5b83359250602084013567ffffffffffffffff8111156123be57600080fd5b6123ca86828701612064565b925050604084013590509250925092565b8281526040602082015260006121266040830184611f91565b60006020808301818452808551808352604092508286019150828160051b87010184880160005b8381101561229457603f19898403018552815161010081518552888201518986015287820151818987015261245282870182611f91565b6060848101516001600160a01b03169088015260808085015115159088015260a08085015115159088015260c0808501519088015260e0938401518782039488019490945291506124a5905081836121a5565b96890196945050509086019060010161241b565b8381526060602082015260006124d26060830185611f91565b905060018060a01b0383166040830152949350505050565b60208082526022908201527f6572726f723a206f7267616e697a6174696f6e20646f6573206e6f74206578696040820152611cdd60f21b606082015260800190565b634e487b7160e01b600052603260045260246000fd5b8183823760009101908152919050565b634e487b7160e01b600052601160045260246000fd5b60008282101561257a5761257a612552565b500390565b600181811c9082168061259357607f821691505b602082108114156125b457634e487b7160e01b600052602260045260246000fd5b50919050565b60006000198214156125ce576125ce612552565b5060010190565b634e487b7160e01b600052603160045260246000fdfea26469706673582212205a924df8ce8273457567042983dad3a4e458efa25a97e864f56f480a1a2500ff64736f6c63430008090033",
  "linkReferences": {},
  "deployedLinkReferences": {}
}