{"contracts/SkillChain.sol":{"SkillChain":{"abi":[{"inputs":[],"stateMutability":"nonpayable","type":"constructor"},{"inputs":[{"internalType":"uint256","name":"individual_id","type":"uint256"},{"internalType":"string","name":"metaurl","type":"string"},{"internalType":"uint256","name":"linked_skill_id","type":"uint256"}],"name":"add_certification","outputs":[],"stateMutability":"nonpayable","type":"function"},{"inputs":[{"internalType":"uint256","name":"org_id","type":"uint256"},{"internalType":"uint256","name":"employee_id","type":"uint256"}],"name":"add_employee","outputs":[],"stateMutability":"nonpayable","type":"function"},{"inputs":[{"internalType":"uint256","name":"individualid","type":"uint256"},{"internalType":"string","name":"skill_name","type":"string"}],"name":"add_skill","outputs":[],"stateMutability":"nonpayable","type":"function"},{"inputs":[{"internalType":"address","name":"","type":"address"}],"name":"address_to_id","outputs":[{"internalType":"uint256","name":"","type":"uint256"}],"stateMutability":"view","type":"function"},{"inputs":[{"internalType":"uint256","name":"id","type":"uint256"}],"name":"cert_of_skill","outputs":[{"internalType":"uint256[]","name":"","type":"uint256[]"}],"stateMutability":"view","type":"function"},{"inputs":[{"internalType":"uint256","name":"","type":"uint256"}],"name":"certifications","outputs":[{"internalType":"string","name":"metaurl","type":"string"},{"internalType":"uint256","name":"id","type":"uint256"}],"stateMutability":"view","type":"function"},{"inputs":[{"internalType":"uint256","name":"id","type":"uint256"}],"name":"curr_emp_of_organization","outputs":[{"internalType":"uint256[]","name":"","type":"uint256[]"}],"stateMutability":"view","type":"function"},{"inputs":[{"internalType":"uint256","name":"employee_id","type":"uint256"}],"name":"editemployeerole","outputs":[],"stateMutability":"nonpayable","type":"function"},{"inputs":[{"internalType":"string","name":"","type":"string"}],"name":"email_to_address","outputs":[{"internalType":"address","name":"","type":"address"}],"stateMutability":"view","type":"function"},{"inputs":[{"internalType":"uint256","name":"","type":"uint256"}],"name":"employees","outputs":[{"internalType":"uint256","name":"id","type":"uint256"},{"internalType":"uint256","name":"organization_id","type":"uint256"},{"internalType":"string","name":"metaurl","type":"string"},{"internalType":"address","name":"wallet_address","type":"address"},{"internalType":"bool","name":"is_employed","type":"bool"},{"internalType":"bool","name":"is_manager","type":"bool"},{"internalType":"uint256","name":"num_skill","type":"uint256"}],"stateMutability":"view","type":"function"},{"inputs":[],"name":"getAllOrgs","outputs":[{"components":[{"internalType":"uint256","name":"id","type":"uint256"},{"internalType":"string","name":"metaurl","type":"string"},{"internalType":"address","name":"wallet_address","type":"address"},{"internalType":"uint256[]","name":"current_employees","type":"uint256[]"},{"internalType":"uint256[]","name":"previous_employees","type":"uint256[]"}],"internalType":"struct SkillChain.organization[]","name":"","type":"tuple[]"}],"stateMutability":"view","type":"function"},{"inputs":[],"name":"getAllUsers","outputs":[{"components":[{"internalType":"uint256","name":"id","type":"uint256"},{"internalType":"uint256","name":"organization_id","type":"uint256"},{"internalType":"string","name":"metaurl","type":"string"},{"internalType":"address","name":"wallet_address","type":"address"},{"internalType":"bool","name":"is_employed","type":"bool"},{"internalType":"bool","name":"is_manager","type":"bool"},{"internalType":"uint256","name":"num_skill","type":"uint256"},{"internalType":"uint256[]","name":"individual_skills","type":"uint256[]"}],"internalType":"struct SkillChain.individual[]","name":"","type":"tuple[]"}],"stateMutability":"view","type":"function"},{"inputs":[],"name":"getNumberOfOrganizations","outputs":[{"internalType":"uint256","name":"","type":"uint256"}],"stateMutability":"view","type":"function"},{"inputs":[],"name":"getNumberOfUsers","outputs":[{"internalType":"uint256","name":"","type":"uint256"}],"stateMutability":"view","type":"function"},{"inputs":[],"name":"initialized","outputs":[{"internalType":"bool","name":"","type":"bool"}],"stateMutability":"view","type":"function"},{"inputs":[{"internalType":"address","name":"","type":"address"}],"name":"is_organization","outputs":[{"internalType":"bool","name":"","type":"bool"}],"stateMutability":"view","type":"function"},{"inputs":[{"internalType":"uint256","name":"","type":"uint256"}],"name":"organizations","outputs":[{"internalType":"uint256","name":"id","type":"uint256"},{"internalType":"string","name":"metaurl","type":"string"},{"internalType":"address","name":"wallet_address","type":"address"}],"stateMutability":"view","type":"function"},{"inputs":[{"internalType":"uint256","name":"id","type":"uint256"}],"name":"prev_emp_of_organization","outputs":[{"internalType":"uint256[]","name":"","type":"uint256[]"}],"stateMutability":"view","type":"function"},{"inputs":[{"internalType":"uint256","name":"org_id","type":"uint256"},{"internalType":"uint256","name":"employee_id","type":"uint256"}],"name":"remove_employee","outputs":[],"stateMutability":"nonpayable","type":"function"},{"inputs":[{"internalType":"string","name":"email","type":"string"},{"internalType":"string","name":"metaurl","type":"string"},{"internalType":"string","name":"acc_type","type":"string"}],"name":"sign_up","outputs":[],"stateMutability":"nonpayable","type":"function"},{"inputs":[{"internalType":"string","name":"email","type":"string"}],"name":"signin","outputs":[{"internalType":"string","name":"accountType","type":"string"},{"internalType":"uint256","name":"id","type":"uint256"}],"stateMutability":"view","type":"function"},{"inputs":[{"internalType":"uint256","name":"","type":"uint256"}],"name":"skills","outputs":[{"internalType":"uint256","name":"id","type":"uint256"},{"internalType":"string","name":"name","type":"string"},{"internalType":"bool","name":"verified","type":"bool"}],"stateMutability":"view","type":"function"},{"inputs":[{"internalType":"uint256","name":"id","type":"uint256"}],"name":"skills_of_individual","outputs":[{"internalType":"uint256[]","name":"","type":"uint256[]"}],"stateMutability":"view","type":"function"},{"inputs":[{"internalType":"string","name":"email","type":"string"},{"internalType":"address","name":"new_address","type":"address"}],"name":"update_wallet_address","outputs":[],"stateMutability":"nonpayable","type":"function"},{"inputs":[{"internalType":"uint256","name":"id","type":"uint256"}],"name":"ver_of_skill","outputs":[{"internalType":"uint256[]","name":"","type":"uint256[]"}],"stateMutability":"view","type":"function"},{"inputs":[{"internalType":"uint256","name":"","type":"uint256"}],"name":"verifications","outputs":[{"internalType":"uint256","name":"verifier_id","type":"uint256"},{"internalType":"string","name":"metaurl","type":"string"}],"stateMutability":"view","type":"function"},{"inputs":[{"internalType":"uint256","name":"individual_id","type":"uint256"},{"internalType":"uint256","name":"skill_id","type":"uint256"},{"internalType":"string","name":"metaurl","type":"string"}],"name":"verify_skill","outputs":[],"stateMutability":"nonpayable","type":"function"}],"evm":{"bytecode":{"linkReferences":{},"object":"608060405234801561001057600080fd5b5060005460ff16156100685760405162461bcd60e51b815260206004820152601c60248201527f436f6e747261637420616c726561647920696e697469616c697a656400000000604482015260640160405180910390fd5b6000805460ff19166001179055612621806100846000396000f3fe608060405234801561001057600080fd5b50600436106101a95760003560e01c80636f09af16116100f9578063b1d79ec111610097578063cf88e16f11610071578063cf88e16f1461040b578063e2842d791461041e578063e792dd8a14610433578063f7a03f3b1461045557600080fd5b8063b1d79ec1146103cf578063b90b0a10146103e2578063bd3a694e1461040357600080fd5b8063884ffe32116100d3578063884ffe3214610383578063963aef9f1461039657806397a62bc6146103a95780639a4dc41e146103bc57600080fd5b80636f09af161461033d5780637a52f30e146103505780637fa6d7e61461037057600080fd5b80634739326b1161016657806350d15fbe1161014057806350d15fbe146102e05780635a2ec07c1461030257806361c30fdc146103155780636c4cc7a61461032a57600080fd5b80634739326b1461025c5780634845a295146102825780634d009288146102ce57600080fd5b806308a32ae1146101ae5780631575cdea146101c3578063158ef93e146101d65780632d59cdea146101f85780632f7e8a78146102185780633c0359a41461023b575b600080fd5b6101c16101bc366004611dff565b610468565b005b6101c16101d1366004611e63565b6105b9565b6000546101e39060ff1681565b60405190151581526020015b60405180910390f35b61020b610206366004611efd565b6108c3565b6040516101ef9190611f16565b6101e3610226366004611f76565b60036020526000908152604090205460ff1681565b61024e610249366004611efd565b61093f565b6040516101ef929190611fde565b61026f61026a366004611efd565b6109fb565b6040516101ef9796959493929190612000565b6102b66102903660046120f1565b80516020818301810180516001825292820191909301209152546001600160a01b031681565b6040516001600160a01b0390911681526020016101ef565b6005545b6040519081526020016101ef565b6102f36102ee366004611efd565b610aeb565b6040516101ef9392919061212e565b6101c1610310366004612159565b610bac565b61031d610cb4565b6040516101ef91906121e0565b6101c16103383660046122a2565b610e6f565b61020b61034b366004611efd565b6110a1565b6102d261035e366004611f76565b60026020526000908152604090205481565b6101c161037e366004611efd565b61111b565b6101c16103913660046122f5565b6112b6565b61020b6103a4366004611efd565b6113b3565b61020b6103b7366004611efd565b6113c8565b61024e6103ca366004612349565b611442565b6101c16103dd36600461238b565b611666565b6103f56103f0366004611efd565b611726565b6040516101ef9291906123db565b6004546102d2565b6101c1610419366004611dff565b6117de565b610426611a0b565b6040516101ef91906123f4565b610446610441366004611efd565b611ba4565b6040516101ef939291906124b9565b61020b610463366004611efd565b611c6b565b3360009081526003602052604090205460ff166104e05760405162461bcd60e51b815260206004820152602b60248201527f6572726f723a206f6e6c79206f7267616e697a6174696f6e732063616e20616460448201526a6420656d706c6f7965657360a81b60648201526084015b60405180910390fd5b60045482106105015760405162461bcd60e51b81526004016104d7906124ea565b60055481106105525760405162461bcd60e51b815260206004820152601e60248201527f6572726f723a20656d706c6f79656520646f6573206e6f74206578697374000060448201526064016104d7565b600482815481106105655761056561252c565b60009182526020808320600592830201600301805460018101825590845292209091018290558054839190839081106105a0576105a061252c565b9060005260206000209060060201600101819055505050565b60006001600160a01b0316600187876040516105d6929190612542565b908152604051908190036020019020546001600160a01b03161461063c5760405162461bcd60e51b815260206004820152601e60248201527f6572726f723a206163636f756e7420616c72656164792065786973747321000060448201526064016104d7565b336001878760405161064f929190612542565b908152604080516020928190038301812080546001600160a01b0319166001600160a01b039590951694909417909355601f840182900482028301820190528282526106d8919084908490819084018382808284376000920191909152505060408051808201909152600a8152691a5b991a5d9a591d585b60b21b60208201529150611c809050565b156107b5576005546106f1576005805460010181556000525b600580546001810182556000919091526006027f036b6384b5eca791c62761152d0c79bb0604c104a5fb6f4eb0703f3154bb3db0810190610755907f036b6384b5eca791c62761152d0c79bb0604c104a5fb6f4eb0703f3154bb3db2018686611cb8565b5060055461076590600190612568565b8082556003820180546001600160a01b031916339081179091556000908152600260209081526040808320939093558251918252810191829052516107ae916005840191611d3c565b50506108bb565b6004546107c9576004805460010181556000525b600480546001810182556000919091526005027f8a35acfbc15ff81a39ae7d344fd709f28e8600b4aa8c65c6b64bfe7fe36bd19b81019061082d907f8a35acfbc15ff81a39ae7d344fd709f28e8600b4aa8c65c6b64bfe7fe36bd19c018686611cb8565b5060045461083d90600190612568565b81556002810180546001600160a01b031916331790556040805160008152602081019182905251610872916003840191611d3c565b506040805160008152602081019182905251610892916004840191611d3c565b5054336000908152600260209081526040808320939093556003905220805460ff191660011790555b505050505050565b6060600482815481106108d8576108d861252c565b906000526020600020906005020160040180548060200260200160405190810160405280929190818152602001828054801561093357602002820191906000526020600020905b81548152602001906001019080831161091f575b50505050509050919050565b6006818154811061094f57600080fd5b90600052602060002090600202016000915090508060000180546109729061257f565b80601f016020809104026020016040519081016040528092919081815260200182805461099e9061257f565b80156109eb5780601f106109c0576101008083540402835291602001916109eb565b820191906000526020600020905b8154815290600101906020018083116109ce57829003601f168201915b5050505050908060010154905082565b60058181548110610a0b57600080fd5b9060005260206000209060060201600091509050806000015490806001015490806002018054610a3a9061257f565b80601f0160208091040260200160405190810160405280929190818152602001828054610a669061257f565b8015610ab35780601f10610a8857610100808354040283529160200191610ab3565b820191906000526020600020905b815481529060010190602001808311610a9657829003601f168201915b505050600384015460049094015492936001600160a01b0381169360ff600160a01b830481169450600160a81b909204909116915087565b60088181548110610afb57600080fd5b60009182526020909120600590910201805460018201805491935090610b209061257f565b80601f0160208091040260200160405190810160405280929190818152602001828054610b4c9061257f565b8015610b995780601f10610b6e57610100808354040283529160200191610b99565b820191906000526020600020905b815481529060010190602001808311610b7c57829003601f168201915b5050506002909301549192505060ff1683565b3360009081526002602052604090205483908114610bc957600080fd5b60088054600181018255600091909152600580549181027ff3f7a9fe364faab93b216da50a3214154f22a0a2b415b23a84c8169e8b636ee3019186908110610c1357610c1361252c565b90600052602060002090600602016005016001600880549050610c369190612568565b815460018181018455600093845260209093200155600854610c589190612568565b8155610c68600182018585611cb8565b5060028101805460ff191690556040805160008152602081019182905251610c94916003840191611d3c565b5060408051600081526020810191829052516108bb916004840191611d3c565b60606004805480602002602001604051908101604052809291908181526020016000905b82821015610e6657838290600052602060002090600502016040518060a001604052908160008201548152602001600182018054610d159061257f565b80601f0160208091040260200160405190810160405280929190818152602001828054610d419061257f565b8015610d8e5780601f10610d6357610100808354040283529160200191610d8e565b820191906000526020600020905b815481529060010190602001808311610d7157829003601f168201915b505050918352505060028201546001600160a01b03166020808301919091526003830180546040805182850281018501825282815294019392830182828015610df657602002820191906000526020600020905b815481526020019060010190808311610de2575b5050505050815260200160048201805480602002602001604051908101604052809291908181526020018280548015610e4e57602002820191906000526020600020905b815481526020019060010190808311610e3a575b50505050508152505081526020019060010190610cd8565b50505050905090565b33600090815260026020526040902054841415610ee55760405162461bcd60e51b815260206004820152602e60248201527f6572726f723a20456e646f727365722063616e6e6f7420656e646f727365207460448201526d1a195a5c881bdddb881cdada5b1b60921b60648201526084016104d7565b60078054600181019091553360009081526002602081905260409091205491027fa66cc928b5edb82af9bd49922954155ab7b0942694bea4ce44661d9a8736c6888101918255610f58907fa66cc928b5edb82af9bd49922954155ab7b0942694bea4ce44661d9a8736c689018484611cb8565b5060088481548110610f6c57610f6c61252c565b90600052602060002090600502016004016001600780549050610f8f9190612568565b81546001810183556000928352602080842090910191909155338252600290526040902054600580549091908110610fc957610fc961252c565b906000526020600020906006020160030160159054906101000a900460ff161561109a57600585815481106110005761100061252c565b906000526020600020906006020160010154600560026000336001600160a01b03166001600160a01b03168152602001908152602001600020548154811061104a5761104a61252c565b906000526020600020906006020160010154141561109a576001600885815481106110775761107761252c565b60009182526020909120600590910201600201805460ff19169115159190911790555b5050505050565b6060600482815481106110b6576110b661252c565b9060005260206000209060050201600301805480602002602001604051908101604052809291908181526020018280548015610933576020028201919060005260206000209081548152602001906001019080831161091f5750505050509050919050565b3360009081526003602052604090205460ff1661118c5760405162461bcd60e51b815260206004820152602960248201527f6572726f723a2073656e646572206e6f7420616e206f7267616e697a6174696f6044820152681b881858d8dbdd5b9d60ba1b60648201526084016104d7565b3360009081526002602052604090205460058054839081106111b0576111b061252c565b906000526020600020906006020160010154146112235760405162461bcd60e51b815260206004820152602b60248201527f6572726f723a2075736572206973206e6f74206f66207468652073616d65206f60448201526a3933b0b734bd30ba34b7b760a91b60648201526084016104d7565b600581815481106112365761123661252c565b906000526020600020906006020160030160159054906101000a900460ff1615156001151514156112a1576000600582815481106112765761127661252c565b906000526020600020906006020160030160156101000a81548160ff02191690831515021790555050565b6001600582815481106112765761127661252c565b336001600160a01b0316600184846040516112d2929190612542565b908152604051908190036020019020546001600160a01b0316146113555760405162461bcd60e51b815260206004820152603460248201527f6572726f723a2046756e6374696f6e2063616c6c65642066726f6d20696e636f60448201527372726563742077616c6c6574206164647265737360601b60648201526084016104d7565b8060018484604051611368929190612542565b908152604080516020928190038301902080546001600160a01b0319166001600160a01b03948516179055336000908152600290925280822080549083905593909216815220555050565b6060600882815481106108d8576108d861252c565b6060600582815481106113dd576113dd61252c565b9060005260206000209060060201600501805480602002602001604051908101604052809291908181526020018280548015610933576020028201919060005260206000209081548152602001906001019080831161091f5750505050509050919050565b6060600060018484604051611458929190612542565b90815260405190819003602001902054336001600160a01b03909116146114dd5760405162461bcd60e51b815260206004820152603360248201527f6572726f723a20696e636f72726563742077616c6c65742061646472657373206044820152723ab9b2b2103337b91039b4b3b734b7339034b760691b60648201526084016104d7565b3360009081526003602052604090205460ff16156115ad576040518060400160405280600c81526020016b37b933b0b734bd30ba34b7b760a11b815250915060005b6004548110156115a757336001600160a01b0316600482815481106115465761154661252c565b60009182526020909120600260059092020101546001600160a01b03161415611595576004818154811061157c5761157c61252c565b90600052602060002090600502016000015491506115a7565b8061159f816125ba565b91505061151f565b5061165f565b6040518060400160405280600a8152602001691a5b991a5d9a591d585b60b21b815250915060005b60055481101561165d57336001600160a01b0316600582815481106115fc576115fc61252c565b60009182526020909120600360069092020101546001600160a01b0316141561164b57600581815481106116325761163261252c565b906000526020600020906006020160000154915061165d565b80611655816125ba565b9150506115d5565b505b9250929050565b336000908152600260205260409020548390811461168357600080fd5b60068054600181018255600091909152835160029091027ff652222313e28459528d920b65115c16c04f3efc82aaedc97be59f3f377c0d3f01906116cd9082906020870190611d77565b506006546116dd90600190612568565b600182015560088054849081106116f6576116f661252c565b60009182526020808320600194850154600593909302016003018054948501815583529091209091015550505050565b6007818154811061173657600080fd5b6000918252602090912060029091020180546001820180549193509061175b9061257f565b80601f01602080910402602001604051908101604052809291908181526020018280546117879061257f565b80156117d45780601f106117a9576101008083540402835291602001916117d4565b820191906000526020600020905b8154815290600101906020018083116117b757829003601f168201915b5050505050905082565b3360009081526003602052604090205460ff166118545760405162461bcd60e51b815260206004820152602e60248201527f6572726f723a206f6e6c79206f7267616e697a6174696f6e732063616e20726560448201526d6d6f766520656d706c6f7965657360901b60648201526084016104d7565b60045482106118755760405162461bcd60e51b81526004016104d7906124ea565b60055481106118c65760405162461bcd60e51b815260206004820152601e60248201527f6572726f723a20656d706c6f79656520646f6573206e6f74206578697374000060448201526064016104d7565b6000600483815481106118db576118db61252c565b9060005260206000209060050201600301905060005b81548110156119a6578282828154811061190d5761190d61252c565b90600052602060002001541415611994578154829061192e90600190612568565b8154811061193e5761193e61252c565b906000526020600020015482828154811061195b5761195b61252c565b906000526020600020018190555081805480611979576119796125d5565b600190038181906000526020600020016000905590556119a6565b8061199e816125ba565b9150506118f1565b50600483815481106119ba576119ba61252c565b600091825260208083206005928302016004018054600181018255908452908320018490558054849081106119f1576119f161252c565b906000526020600020906006020160010181905550505050565b60606005805480602002602001604051908101604052809291908181526020016000905b82821015610e665783829060005260206000209060060201604051806101000160405290816000820154815260200160018201548152602001600282018054611a779061257f565b80601f0160208091040260200160405190810160405280929190818152602001828054611aa39061257f565b8015611af05780601f10611ac557610100808354040283529160200191611af0565b820191906000526020600020905b815481529060010190602001808311611ad357829003601f168201915b505050918352505060038201546001600160a01b03811660208084019190915260ff600160a01b830481161515604080860191909152600160a81b90930416151560608401526004840154608084015260058401805483518184028101840190945280845260a0909401939091830182828015611b8c57602002820191906000526020600020905b815481526020019060010190808311611b78575b50505050508152505081526020019060010190611a2f565b60048181548110611bb457600080fd5b60009182526020909120600590910201805460018201805491935090611bd99061257f565b80601f0160208091040260200160405190810160405280929190818152602001828054611c059061257f565b8015611c525780601f10611c2757610100808354040283529160200191611c52565b820191906000526020600020905b815481529060010190602001808311611c3557829003601f168201915b505050600290930154919250506001600160a01b031683565b6060600882815481106110b6576110b661252c565b6000611c8c8383611c93565b9392505050565b600081518351148015611c8c5750508051602091820120825192909101919091201490565b828054611cc49061257f565b90600052602060002090601f016020900481019282611ce65760008555611d2c565b82601f10611cff5782800160ff19823516178555611d2c565b82800160010185558215611d2c579182015b82811115611d2c578235825591602001919060010190611d11565b50611d38929150611dea565b5090565b828054828255906000526020600020908101928215611d2c579160200282015b82811115611d2c578251825591602001919060010190611d5c565b828054611d839061257f565b90600052602060002090601f016020900481019282611da55760008555611d2c565b82601f10611dbe57805160ff1916838001178555611d2c565b82800160010185558215611d2c5791820182811115611d2c578251825591602001919060010190611d5c565b5b80821115611d385760008155600101611deb565b60008060408385031215611e1257600080fd5b50508035926020909101359150565b60008083601f840112611e3357600080fd5b50813567ffffffffffffffff811115611e4b57600080fd5b60208301915083602082850101111561165f57600080fd5b60008060008060008060608789031215611e7c57600080fd5b863567ffffffffffffffff80821115611e9457600080fd5b611ea08a838b01611e21565b90985096506020890135915080821115611eb957600080fd5b611ec58a838b01611e21565b90965094506040890135915080821115611ede57600080fd5b50611eeb89828a01611e21565b979a9699509497509295939492505050565b600060208284031215611f0f57600080fd5b5035919050565b6020808252825182820181905260009190848201906040850190845b81811015611f4e57835183529284019291840191600101611f32565b50909695505050505050565b80356001600160a01b0381168114611f7157600080fd5b919050565b600060208284031215611f8857600080fd5b611c8c82611f5a565b6000815180845260005b81811015611fb757602081850181015186830182015201611f9b565b81811115611fc9576000602083870101525b50601f01601f19169290920160200192915050565b604081526000611ff16040830185611f91565b90508260208301529392505050565b87815286602082015260e06040820152600061201f60e0830188611f91565b6001600160a01b0396909616606083015250921515608084015290151560a083015260c0909101529392505050565b634e487b7160e01b600052604160045260246000fd5b600082601f83011261207557600080fd5b813567ffffffffffffffff808211156120905761209061204e565b604051601f8301601f19908116603f011681019082821181831017156120b8576120b861204e565b816040528381528660208588010111156120d157600080fd5b836020870160208301376000602085830101528094505050505092915050565b60006020828403121561210357600080fd5b813567ffffffffffffffff81111561211a57600080fd5b61212684828501612064565b949350505050565b8381526060602082015260006121476060830185611f91565b90508215156040830152949350505050565b60008060006040848603121561216e57600080fd5b83359250602084013567ffffffffffffffff81111561218c57600080fd5b61219886828701611e21565b9497909650939450505050565b600081518084526020808501945080840160005b838110156121d5578151875295820195908201906001016121b9565b509495945050505050565b60006020808301818452808551808352604092508286019150828160051b87010184880160005b8381101561229457603f19898403018552815160a08151855288820151818a87015261223582870182611f91565b838a01516001600160a01b0316878b0152606080850151888303828a0152919350915061226283826121a5565b925050506080808301519250858203818701525061228081836121a5565b968901969450505090860190600101612207565b509098975050505050505050565b600080600080606085870312156122b857600080fd5b8435935060208501359250604085013567ffffffffffffffff8111156122dd57600080fd5b6122e987828801611e21565b95989497509550505050565b60008060006040848603121561230a57600080fd5b833567ffffffffffffffff81111561232157600080fd5b61232d86828701611e21565b9094509250612340905060208501611f5a565b90509250925092565b6000806020838503121561235c57600080fd5b823567ffffffffffffffff81111561237357600080fd5b61237f85828601611e21565b90969095509350505050565b6000806000606084860312156123a057600080fd5b83359250602084013567ffffffffffffffff8111156123be57600080fd5b6123ca86828701612064565b925050604084013590509250925092565b8281526040602082015260006121266040830184611f91565b60006020808301818452808551808352604092508286019150828160051b87010184880160005b8381101561229457603f19898403018552815161010081518552888201518986015287820151818987015261245282870182611f91565b6060848101516001600160a01b03169088015260808085015115159088015260a08085015115159088015260c0808501519088015260e0938401518782039488019490945291506124a5905081836121a5565b96890196945050509086019060010161241b565b8381526060602082015260006124d26060830185611f91565b905060018060a01b0383166040830152949350505050565b60208082526022908201527f6572726f723a206f7267616e697a6174696f6e20646f6573206e6f74206578696040820152611cdd60f21b606082015260800190565b634e487b7160e01b600052603260045260246000fd5b8183823760009101908152919050565b634e487b7160e01b600052601160045260246000fd5b60008282101561257a5761257a612552565b500390565b600181811c9082168061259357607f821691505b602082108114156125b457634e487b7160e01b600052602260045260246000fd5b50919050565b60006000198214156125ce576125ce612552565b5060010190565b634e487b7160e01b600052603160045260246000fdfea26469706673582212205a924df8ce8273457567042983dad3a4e458efa25a97e864f56f480a1a2500ff64736f6c63430008090033","opcodes":"PUSH1 0x80 PUSH1 0x40 MSTORE CALLVALUE DUP1 ISZERO PUSH2 0x10 JUMPI PUSH1 0x0 DUP1 REVERT JUMPDEST POP PUSH1 0x0 SLOAD PUSH1 0xFF AND ISZERO PUSH2 0x68 JUMPI PUSH1 0x40 MLOAD PUSH3 0x461BCD PUSH1 0xE5 SHL DUP2 MSTORE PUSH1 0x20 PUSH1 0x4 DUP3 ADD MSTORE PUSH1 0x1C PUSH1 0x24 DUP3 ADD MSTORE PUSH32 0x436F6E747261637420616C726561647920696E697469616C697A656400000000 PUSH1 0x44 DUP3 ADD MSTORE PUSH1 0x64 ADD PUSH1 0x40 MLOAD DUP1 SWAP2 SUB SWAP1 REVERT JUMPDEST PUSH1 0x0 DUP1 SLOAD PUSH1 0xFF NOT AND PUSH1 0x1 OR SWAP1 SSTORE PUSH2 0x2621 DUP1 PUSH2 0x84 PUSH1 0x0 CODECOPY PUSH1 0x0 RETURN INVALID PUSH1 0x80 PUSH1 0x40 MSTORE CALLVALUE DUP1 ISZERO PUSH2 0x10 JUMPI PUSH1 0x0 DUP1 REVERT JUMPDEST POP PUSH1 0x4 CALLDATASIZE LT PUSH2 0x1A9 JUMPI PUSH1 0x0 CALLDATALOAD PUSH1 0xE0 SHR DUP1 PUSH4 0x6F09AF16 GT PUSH2 0xF9 JUMPI DUP1 PUSH4 0xB1D79EC1 GT PUSH2 0x97 JUMPI DUP1 PUSH4 0xCF88E16F GT PUSH2 0x71 JUMPI DUP1 PUSH4 0xCF88E16F EQ PUSH2 0x40B JUMPI DUP1 PUSH4 0xE2842D79 EQ PUSH2 0x41E JUMPI DUP1 PUSH4 0xE792DD8A EQ PUSH2 0x433 JUMPI DUP1 PUSH4 0xF7A03F3B EQ PUSH2 0x455 JUMPI PUSH1 0x0 DUP1 REVERT JUMPDEST DUP1 PUSH4 0xB1D79EC1 EQ PUSH2 0x3CF JUMPI DUP1 PUSH4 0xB90B0A10 EQ PUSH2 0x3E2 JUMPI DUP1 PUSH4 0xBD3A694E EQ PUSH2 0x403 JUMPI PUSH1 0x0 DUP1 REVERT JUMPDEST DUP1 PUSH4 0x884FFE32 GT PUSH2 0xD3 JUMPI DUP1 PUSH4 0x884FFE32 EQ PUSH2 0x383 JUMPI DUP1 PUSH4 0x963AEF9F EQ PUSH2 0x396 JUMPI DUP1 PUSH4 0x97A62BC6 EQ PUSH2 0x3A9 JUMPI DUP1 PUSH4 0x9A4DC41E EQ PUSH2 0x3BC JUMPI PUSH1 0x0 DUP1 REVERT JUMPDEST DUP1 PUSH4 0x6F09AF16 EQ PUSH2 0x33D JUMPI DUP1 PUSH4 0x7A52F30E EQ PUSH2 0x350 JUMPI DUP1 PUSH4 0x7FA6D7E6 EQ PUSH2 0x370 JUMPI PUSH1 0x0 DUP1 REVERT JUMPDEST DUP1 PUSH4 0x4739326B GT PUSH2 0x166 JUMPI DUP1 PUSH4 0x50D15FBE GT PUSH2 0x140 JUMPI DUP1 PUSH4 0x50D15FBE EQ PUSH2 0x2E0 JUMPI DUP1 PUSH4 0x5A2EC07C EQ PUSH2 0x302 JUMPI DUP1 PUSH4 0x61C30FDC EQ PUSH2 0x315 JUMPI DUP1 PUSH4 0x6C4CC7A6 EQ PUSH2 0x32A JUMPI PUSH1 0x0 DUP1 REVERT JUMPDEST DUP1 PUSH4 0x4739326B EQ PUSH2 0x25C JUMPI DUP1 PUSH4 0x4845A295 EQ PUSH2 0x282 JUMPI DUP1 PUSH4 0x4D009288 EQ PUSH2 0x2CE JUMPI PUSH1 0x0 DUP1 REVERT JUMPDEST DUP1 PUSH4 0x8A32AE1 EQ PUSH2 0x1AE JUMPI DUP1 PUSH4 0x1575CDEA EQ PUSH2 0x1C3 JUMPI DUP1 PUSH4 0x158EF93E EQ PUSH2 0x1D6 JUMPI DUP1 PUSH4 0x2D59CDEA EQ PUSH2 0x1F8 JUMPI DUP1 PUSH4 0x2F7E8A78 EQ PUSH2 0x218 JUMPI DUP1 PUSH4 0x3C0359A4 EQ PUSH2 0x23B JUMPI JUMPDEST PUSH1 0x0 DUP1 REVERT JUMPDEST PUSH2 0x1C1 PUSH2 0x1BC CALLDATASIZE PUSH1 0x4 PUSH2 0x1DFF JUMP JUMPDEST PUSH2 0x468 JUMP JUMPDEST STOP JUMPDEST PUSH2 0x1C1 PUSH2 0x1D1 CALLDATASIZE PUSH1 0x4 PUSH2 0x1E63 JUMP JUMPDEST PUSH2 0x5B9 JUMP JUMPDEST PUSH1 0x0 SLOAD PUSH2 0x1E3 SWAP1 PUSH1 0xFF AND DUP2 JUMP JUMPDEST PUSH1 0x40 MLOAD SWAP1 ISZERO ISZERO DUP2 MSTORE PUSH1 0x20 ADD JUMPDEST PUSH1 0x40 MLOAD DUP1 SWAP2 SUB SWAP1 RETURN JUMPDEST PUSH2 0x20B PUSH2 0x206 CALLDATASIZE PUSH1 0x4 PUSH2 0x1EFD JUMP JUMPDEST PUSH2 0x8C3 JUMP JUMPDEST PUSH1 0x40 MLOAD PUSH2 0x1EF SWAP2 SWAP1 PUSH2 0x1F16 JUMP JUMPDEST PUSH2 0x1E3 PUSH2 0x226 CALLDATASIZE PUSH1 0x4 PUSH2 0x1F76 JUMP JUMPDEST PUSH1 0x3 PUSH1 0x20 MSTORE PUSH1 0x0 SWAP1 DUP2 MSTORE PUSH1 0x40 SWAP1 KECCAK256 SLOAD PUSH1 0xFF AND DUP2 JUMP JUMPDEST PUSH2 0x24E PUSH2 0x249 CALLDATASIZE PUSH1 0x4 PUSH2 0x1EFD JUMP JUMPDEST PUSH2 0x93F JUMP JUMPDEST PUSH1 0x40 MLOAD PUSH2 0x1EF SWAP3 SWAP2 SWAP1 PUSH2 0x1FDE JUMP JUMPDEST PUSH2 0x26F PUSH2 0x26A CALLDATASIZE PUSH1 0x4 PUSH2 0x1EFD JUMP JUMPDEST PUSH2 0x9FB JUMP JUMPDEST PUSH1 0x40 MLOAD PUSH2 0x1EF SWAP8 SWAP7 SWAP6 SWAP5 SWAP4 SWAP3 SWAP2 SWAP1 PUSH2 0x2000 JUMP JUMPDEST PUSH2 0x2B6 PUSH2 0x290 CALLDATASIZE PUSH1 0x4 PUSH2 0x20F1 JUMP JUMPDEST DUP1 MLOAD PUSH1 0x20 DUP2 DUP4 ADD DUP2 ADD DUP1 MLOAD PUSH1 0x1 DUP3 MSTORE SWAP3 DUP3 ADD SWAP2 SWAP1 SWAP4 ADD KECCAK256 SWAP2 MSTORE SLOAD PUSH1 0x1 PUSH1 0x1 PUSH1 0xA0 SHL SUB AND DUP2 JUMP JUMPDEST PUSH1 0x40 MLOAD PUSH1 0x1 PUSH1 0x1 PUSH1 0xA0 SHL SUB SWAP1 SWAP2 AND DUP2 MSTORE PUSH1 0x20 ADD PUSH2 0x1EF JUMP JUMPDEST PUSH1 0x5 SLOAD JUMPDEST PUSH1 0x40 MLOAD SWAP1 DUP2 MSTORE PUSH1 0x20 ADD PUSH2 0x1EF JUMP JUMPDEST PUSH2 0x2F3 PUSH2 0x2EE CALLDATASIZE PUSH1 0x4 PUSH2 0x1EFD JUMP JUMPDEST PUSH2 0xAEB JUMP JUMPDEST PUSH1 0x40 MLOAD PUSH2 0x1EF SWAP4 SWAP3 SWAP2 SWAP1 PUSH2 0x212E JUMP JUMPDEST PUSH2 0x1C1 PUSH2 0x310 CALLDATASIZE PUSH1 0x4 PUSH2 0x2159 JUMP JUMPDEST PUSH2 0xBAC JUMP JUMPDEST PUSH2 0x31D PUSH2 0xCB4 JUMP JUMPDEST PUSH1 0x40 MLOAD PUSH2 0x1EF SWAP2 SWAP1 PUSH2 0x21E0 JUMP JUMPDEST PUSH2 0x1C1 PUSH2 0x338 CALLDATASIZE PUSH1 0x4 PUSH2 0x22A2 JUMP JUMPDEST PUSH2 0xE6F JUMP JUMPDEST PUSH2 0x20B PUSH2 0x34B CALLDATASIZE PUSH1 0x4 PUSH2 0x1EFD JUMP JUMPDEST PUSH2 0x10A1 JUMP JUMPDEST PUSH2 0x2D2 PUSH2 0x35E CALLDATASIZE PUSH1 0x4 PUSH2 0x1F76 JUMP JUMPDEST PUSH1 0x2 PUSH1 0x20 MSTORE PUSH1 0x0 SWAP1 DUP2 MSTORE PUSH1 0x40 SWAP1 KECCAK256 SLOAD DUP2 JUMP JUMPDEST PUSH2 0x1C1 PUSH2 0x37E CALLDATASIZE PUSH1 0x4 PUSH2 0x1EFD JUMP JUMPDEST PUSH2 0x111B JUMP JUMPDEST PUSH2 0x1C1 PUSH2 0x391 CALLDATASIZE PUSH1 0x4 PUSH2 0x22F5 JUMP JUMPDEST PUSH2 0x12B6 JUMP JUMPDEST PUSH2 0x20B PUSH2 0x3A4 CALLDATASIZE PUSH1 0x4 PUSH2 0x1EFD JUMP JUMPDEST PUSH2 0x13B3 JUMP JUMPDEST PUSH2 0x20B PUSH2 0x3B7 CALLDATASIZE PUSH1 0x4 PUSH2 0x1EFD JUMP JUMPDEST PUSH2 0x13C8 JUMP JUMPDEST PUSH2 0x24E PUSH2 0x3CA CALLDATASIZE PUSH1 0x4 PUSH2 0x2349 JUMP JUMPDEST PUSH2 0x1442 JUMP JUMPDEST PUSH2 0x1C1 PUSH2 0x3DD CALLDATASIZE PUSH1 0x4 PUSH2 0x238B JUMP JUMPDEST PUSH2 0x1666 JUMP JUMPDEST PUSH2 0x3F5 PUSH2 0x3F0 CALLDATASIZE PUSH1 0x4 PUSH2 0x1EFD JUMP JUMPDEST PUSH2 0x1726 JUMP JUMPDEST PUSH1 0x40 MLOAD PUSH2 0x1EF SWAP3 SWAP2 SWAP1 PUSH2 0x23DB JUMP JUMPDEST PUSH1 0x4 SLOAD PUSH2 0x2D2 JUMP JUMPDEST PUSH2 0x1C1 PUSH2 0x419 CALLDATASIZE PUSH1 0x4 PUSH2 0x1DFF JUMP JUMPDEST PUSH2 0x17DE JUMP JUMPDEST PUSH2 0x426 PUSH2 0x1A0B JUMP JUMPDEST PUSH1 0x40 MLOAD PUSH2 0x1EF SWAP2 SWAP1 PUSH2 0x23F4 JUMP JUMPDEST PUSH2 0x446 PUSH2 0x441 CALLDATASIZE PUSH1 0x4 PUSH2 0x1EFD JUMP JUMPDEST PUSH2 0x1BA4 JUMP JUMPDEST PUSH1 0x40 MLOAD PUSH2 0x1EF SWAP4 SWAP3 SWAP2 SWAP1 PUSH2 0x24B9 JUMP JUMPDEST PUSH2 0x20B PUSH2 0x463 CALLDATASIZE PUSH1 0x4 PUSH2 0x1EFD JUMP JUMPDEST PUSH2 0x1C6B JUMP JUMPDEST CALLER PUSH1 0x0 SWAP1 DUP2 MSTORE PUSH1 0x3 PUSH1 0x20 MSTORE PUSH1 0x40 SWAP1 KECCAK256 SLOAD PUSH1 0xFF AND PUSH2 0x4E0 JUMPI PUSH1 0x40 MLOAD PUSH3 0x461BCD PUSH1 0xE5 SHL DUP2 MSTORE PUSH1 0x20 PUSH1 0x4 DUP3 ADD MSTORE PUSH1 0x2B PUSH1 0x24 DUP3 ADD MSTORE PUSH32 0x6572726F723A206F6E6C79206F7267616E697A6174696F6E732063616E206164 PUSH1 0x44 DUP3 ADD MSTORE PUSH11 0x6420656D706C6F79656573 PUSH1 0xA8 SHL PUSH1 0x64 DUP3 ADD MSTORE PUSH1 0x84 ADD JUMPDEST PUSH1 0x40 MLOAD DUP1 SWAP2 SUB SWAP1 REVERT JUMPDEST PUSH1 0x4 SLOAD DUP3 LT PUSH2 0x501 JUMPI PUSH1 0x40 MLOAD PUSH3 0x461BCD PUSH1 0xE5 SHL DUP2 MSTORE PUSH1 0x4 ADD PUSH2 0x4D7 SWAP1 PUSH2 0x24EA JUMP JUMPDEST PUSH1 0x5 SLOAD DUP2 LT PUSH2 0x552 JUMPI PUSH1 0x40 MLOAD PUSH3 0x461BCD PUSH1 0xE5 SHL DUP2 MSTORE PUSH1 0x20 PUSH1 0x4 DUP3 ADD MSTORE PUSH1 0x1E PUSH1 0x24 DUP3 ADD MSTORE PUSH32 0x6572726F723A20656D706C6F79656520646F6573206E6F742065786973740000 PUSH1 0x44 DUP3 ADD MSTORE PUSH1 0x64 ADD PUSH2 0x4D7 JUMP JUMPDEST PUSH1 0x4 DUP3 DUP2 SLOAD DUP2 LT PUSH2 0x565 JUMPI PUSH2 0x565 PUSH2 0x252C JUMP JUMPDEST PUSH1 0x0 SWAP2 DUP3 MSTORE PUSH1 0x20 DUP1 DUP4 KECCAK256 PUSH1 0x5 SWAP3 DUP4 MUL ADD PUSH1 0x3 ADD DUP1 SLOAD PUSH1 0x1 DUP2 ADD DUP3 SSTORE SWAP1 DUP5 MSTORE SWAP3 KECCAK256 SWAP1 SWAP2 ADD DUP3 SWAP1 SSTORE DUP1 SLOAD DUP4 SWAP2 SWAP1 DUP4 SWAP1 DUP2 LT PUSH2 0x5A0 JUMPI PUSH2 0x5A0 PUSH2 0x252C JUMP JUMPDEST SWAP1 PUSH1 0x0 MSTORE PUSH1 0x20 PUSH1 0x0 KECCAK256 SWAP1 PUSH1 0x6 MUL ADD PUSH1 0x1 ADD DUP2 SWAP1 SSTORE POP POP POP JUMP JUMPDEST PUSH1 0x0 PUSH1 0x1 PUSH1 0x1 PUSH1 0xA0 SHL SUB AND PUSH1 0x1 DUP8 DUP8 PUSH1 0x40 MLOAD PUSH2 0x5D6 SWAP3 SWAP2 SWAP1 PUSH2 0x2542 JUMP JUMPDEST SWAP1 DUP2 MSTORE PUSH1 0x40 MLOAD SWAP1 DUP2 SWAP1 SUB PUSH1 0x20 ADD SWAP1 KECCAK256 SLOAD PUSH1 0x1 PUSH1 0x1 PUSH1 0xA0 SHL SUB AND EQ PUSH2 0x63C JUMPI PUSH1 0x40 MLOAD PUSH3 0x461BCD PUSH1 0xE5 SHL DUP2 MSTORE PUSH1 0x20 PUSH1 0x4 DUP3 ADD MSTORE PUSH1 0x1E PUSH1 0x24 DUP3 ADD MSTORE PUSH32 0x6572726F723A206163636F756E7420616C726561647920657869737473210000 PUSH1 0x44 DUP3 ADD MSTORE PUSH1 0x64 ADD PUSH2 0x4D7 JUMP JUMPDEST CALLER PUSH1 0x1 DUP8 DUP8 PUSH1 0x40 MLOAD PUSH2 0x64F SWAP3 SWAP2 SWAP1 PUSH2 0x2542 JUMP JUMPDEST SWAP1 DUP2 MSTORE PUSH1 0x40 DUP1 MLOAD PUSH1 0x20 SWAP3 DUP2 SWAP1 SUB DUP4 ADD DUP2 KECCAK256 DUP1 SLOAD PUSH1 0x1 PUSH1 0x1 PUSH1 0xA0 SHL SUB NOT AND PUSH1 0x1 PUSH1 0x1 PUSH1 0xA0 SHL SUB SWAP6 SWAP1 SWAP6 AND SWAP5 SWAP1 SWAP5 OR SWAP1 SWAP4 SSTORE PUSH1 0x1F DUP5 ADD DUP3 SWAP1 DIV DUP3 MUL DUP4 ADD DUP3 ADD SWAP1 MSTORE DUP3 DUP3 MSTORE PUSH2 0x6D8 SWAP2 SWAP1 DUP5 SWAP1 DUP5 SWAP1 DUP2 SWAP1 DUP5 ADD DUP4 DUP3 DUP1 DUP3 DUP5 CALLDATACOPY PUSH1 0x0 SWAP3 ADD SWAP2 SWAP1 SWAP2 MSTORE POP POP PUSH1 0x40 DUP1 MLOAD DUP1 DUP3 ADD SWAP1 SWAP2 MSTORE PUSH1 0xA DUP2 MSTORE PUSH10 0x1A5B991A5D9A591D585B PUSH1 0xB2 SHL PUSH1 0x20 DUP3 ADD MSTORE SWAP2 POP PUSH2 0x1C80 SWAP1 POP JUMP JUMPDEST ISZERO PUSH2 0x7B5 JUMPI PUSH1 0x5 SLOAD PUSH2 0x6F1 JUMPI PUSH1 0x5 DUP1 SLOAD PUSH1 0x1 ADD DUP2 SSTORE PUSH1 0x0 MSTORE JUMPDEST PUSH1 0x5 DUP1 SLOAD PUSH1 0x1 DUP2 ADD DUP3 SSTORE PUSH1 0x0 SWAP2 SWAP1 SWAP2 MSTORE PUSH1 0x6 MUL PUSH32 0x36B6384B5ECA791C62761152D0C79BB0604C104A5FB6F4EB0703F3154BB3DB0 DUP2 ADD SWAP1 PUSH2 0x755 SWAP1 PUSH32 0x36B6384B5ECA791C62761152D0C79BB0604C104A5FB6F4EB0703F3154BB3DB2 ADD DUP7 DUP7 PUSH2 0x1CB8 JUMP JUMPDEST POP PUSH1 0x5 SLOAD PUSH2 0x765 SWAP1 PUSH1 0x1 SWAP1 PUSH2 0x2568 JUMP JUMPDEST DUP1 DUP3 SSTORE PUSH1 0x3 DUP3 ADD DUP1 SLOAD PUSH1 0x1 PUSH1 0x1 PUSH1 0xA0 SHL SUB NOT AND CALLER SWAP1 DUP2 OR SWAP1 SWAP2 SSTORE PUSH1 0x0 SWAP1 DUP2 MSTORE PUSH1 0x2 PUSH1 0x20 SWAP1 DUP2 MSTORE PUSH1 0x40 DUP1 DUP4 KECCAK256 SWAP4 SWAP1 SWAP4 SSTORE DUP3 MLOAD SWAP2 DUP3 MSTORE DUP2 ADD SWAP2 DUP3 SWAP1 MSTORE MLOAD PUSH2 0x7AE SWAP2 PUSH1 0x5 DUP5 ADD SWAP2 PUSH2 0x1D3C JUMP JUMPDEST POP POP PUSH2 0x8BB JUMP JUMPDEST PUSH1 0x4 SLOAD PUSH2 0x7C9 JUMPI PUSH1 0x4 DUP1 SLOAD PUSH1 0x1 ADD DUP2 SSTORE PUSH1 0x0 MSTORE JUMPDEST PUSH1 0x4 DUP1 SLOAD PUSH1 0x1 DUP2 ADD DUP3 SSTORE PUSH1 0x0 SWAP2 SWAP1 SWAP2 MSTORE PUSH1 0x5 MUL PUSH32 0x8A35ACFBC15FF81A39AE7D344FD709F28E8600B4AA8C65C6B64BFE7FE36BD19B DUP2 ADD SWAP1 PUSH2 0x82D SWAP1 PUSH32 0x8A35ACFBC15FF81A39AE7D344FD709F28E8600B4AA8C65C6B64BFE7FE36BD19C ADD DUP7 DUP7 PUSH2 0x1CB8 JUMP JUMPDEST POP PUSH1 0x4 SLOAD PUSH2 0x83D SWAP1 PUSH1 0x1 SWAP1 PUSH2 0x2568 JUMP JUMPDEST DUP2 SSTORE PUSH1 0x2 DUP2 ADD DUP1 SLOAD PUSH1 0x1 PUSH1 0x1 PUSH1 0xA0 SHL SUB NOT AND CALLER OR SWAP1 SSTORE PUSH1 0x40 DUP1 MLOAD PUSH1 0x0 DUP2 MSTORE PUSH1 0x20 DUP2 ADD SWAP2 DUP3 SWAP1 MSTORE MLOAD PUSH2 0x872 SWAP2 PUSH1 0x3 DUP5 ADD SWAP2 PUSH2 0x1D3C JUMP JUMPDEST POP PUSH1 0x40 DUP1 MLOAD PUSH1 0x0 DUP2 MSTORE PUSH1 0x20 DUP2 ADD SWAP2 DUP3 SWAP1 MSTORE MLOAD PUSH2 0x892 SWAP2 PUSH1 0x4 DUP5 ADD SWAP2 PUSH2 0x1D3C JUMP JUMPDEST POP SLOAD CALLER PUSH1 0x0 SWAP1 DUP2 MSTORE PUSH1 0x2 PUSH1 0x20 SWAP1 DUP2 MSTORE PUSH1 0x40 DUP1 DUP4 KECCAK256 SWAP4 SWAP1 SWAP4 SSTORE PUSH1 0x3 SWAP1 MSTORE KECCAK256 DUP1 SLOAD PUSH1 0xFF NOT AND PUSH1 0x1 OR SWAP1 SSTORE JUMPDEST POP POP POP POP POP POP JUMP JUMPDEST PUSH1 0x60 PUSH1 0x4 DUP3 DUP2 SLOAD DUP2 LT PUSH2 0x8D8 JUMPI PUSH2 0x8D8 PUSH2 0x252C JUMP JUMPDEST SWAP1 PUSH1 0x0 MSTORE PUSH1 0x20 PUSH1 0x0 KECCAK256 SWAP1 PUSH1 0x5 MUL ADD PUSH1 0x4 ADD DUP1 SLOAD DUP1 PUSH1 0x20 MUL PUSH1 0x20 ADD PUSH1 0x40 MLOAD SWAP1 DUP2 ADD PUSH1 0x40 MSTORE DUP1 SWAP3 SWAP2 SWAP1 DUP2 DUP2 MSTORE PUSH1 0x20 ADD DUP3 DUP1 SLOAD DUP1 ISZERO PUSH2 0x933 JUMPI PUSH1 0x20 MUL DUP3 ADD SWAP2 SWAP1 PUSH1 0x0 MSTORE PUSH1 0x20 PUSH1 0x0 KECCAK256 SWAP1 JUMPDEST DUP2 SLOAD DUP2 MSTORE PUSH1 0x20 ADD SWAP1 PUSH1 0x1 ADD SWAP1 DUP1 DUP4 GT PUSH2 0x91F JUMPI JUMPDEST POP POP POP POP POP SWAP1 POP SWAP2 SWAP1 POP JUMP JUMPDEST PUSH1 0x6 DUP2 DUP2 SLOAD DUP2 LT PUSH2 0x94F JUMPI PUSH1 0x0 DUP1 REVERT JUMPDEST SWAP1 PUSH1 0x0 MSTORE PUSH1 0x20 PUSH1 0x0 KECCAK256 SWAP1 PUSH1 0x2 MUL ADD PUSH1 0x0 SWAP2 POP SWAP1 POP DUP1 PUSH1 0x0 ADD DUP1 SLOAD PUSH2 0x972 SWAP1 PUSH2 0x257F JUMP JUMPDEST DUP1 PUSH1 0x1F ADD PUSH1 0x20 DUP1 SWAP2 DIV MUL PUSH1 0x20 ADD PUSH1 0x40 MLOAD SWAP1 DUP2 ADD PUSH1 0x40 MSTORE DUP1 SWAP3 SWAP2 SWAP1 DUP2 DUP2 MSTORE PUSH1 0x20 ADD DUP3 DUP1 SLOAD PUSH2 0x99E SWAP1 PUSH2 0x257F JUMP JUMPDEST DUP1 ISZERO PUSH2 0x9EB JUMPI DUP1 PUSH1 0x1F LT PUSH2 0x9C0 JUMPI PUSH2 0x100 DUP1 DUP4 SLOAD DIV MUL DUP4 MSTORE SWAP2 PUSH1 0x20 ADD SWAP2 PUSH2 0x9EB JUMP JUMPDEST DUP3 ADD SWAP2 SWAP1 PUSH1 0x0 MSTORE PUSH1 0x20 PUSH1 0x0 KECCAK256 SWAP1 JUMPDEST DUP2 SLOAD DUP2 MSTORE SWAP1 PUSH1 0x1 ADD SWAP1 PUSH1 0x20 ADD DUP1 DUP4 GT PUSH2 0x9CE JUMPI DUP3 SWAP1 SUB PUSH1 0x1F AND DUP3 ADD SWAP2 JUMPDEST POP POP POP POP POP SWAP1 DUP1 PUSH1 0x1 ADD SLOAD SWAP1 POP DUP3 JUMP JUMPDEST PUSH1 0x5 DUP2 DUP2 SLOAD DUP2 LT PUSH2 0xA0B JUMPI PUSH1 0x0 DUP1 REVERT JUMPDEST SWAP1 PUSH1 0x0 MSTORE PUSH1 0x20 PUSH1 0x0 KECCAK256 SWAP1 PUSH1 0x6 MUL ADD PUSH1 0x0 SWAP2 POP SWAP1 POP DUP1 PUSH1 0x0 ADD SLOAD SWAP1 DUP1 PUSH1 0x1 ADD SLOAD SWAP1 DUP1 PUSH1 0x2 ADD DUP1 SLOAD PUSH2 0xA3A SWAP1 PUSH2 0x257F JUMP JUMPDEST DUP1 PUSH1 0x1F ADD PUSH1 0x20 DUP1 SWAP2 DIV MUL PUSH1 0x20 ADD PUSH1 0x40 MLOAD SWAP1 DUP2 ADD PUSH1 0x40 MSTORE DUP1 SWAP3 SWAP2 SWAP1 DUP2 DUP2 MSTORE PUSH1 0x20 ADD DUP3 DUP1 SLOAD PUSH2 0xA66 SWAP1 PUSH2 0x257F JUMP JUMPDEST DUP1 ISZERO PUSH2 0xAB3 JUMPI DUP1 PUSH1 0x1F LT PUSH2 0xA88 JUMPI PUSH2 0x100 DUP1 DUP4 SLOAD DIV MUL DUP4 MSTORE SWAP2 PUSH1 0x20 ADD SWAP2 PUSH2 0xAB3 JUMP JUMPDEST DUP3 ADD SWAP2 SWAP1 PUSH1 0x0 MSTORE PUSH1 0x20 PUSH1 0x0 KECCAK256 SWAP1 JUMPDEST DUP2 SLOAD DUP2 MSTORE SWAP1 PUSH1 0x1 ADD SWAP1 PUSH1 0x20 ADD DUP1 DUP4 GT PUSH2 0xA96 JUMPI DUP3 SWAP1 SUB PUSH1 0x1F AND DUP3 ADD SWAP2 JUMPDEST POP POP POP PUSH1 0x3 DUP5 ADD SLOAD PUSH1 0x4 SWAP1 SWAP5 ADD SLOAD SWAP3 SWAP4 PUSH1 0x1 PUSH1 0x1 PUSH1 0xA0 SHL SUB DUP2 AND SWAP4 PUSH1 0xFF PUSH1 0x1 PUSH1 0xA0 SHL DUP4 DIV DUP2 AND SWAP5 POP PUSH1 0x1 PUSH1 0xA8 SHL SWAP1 SWAP3 DIV SWAP1 SWAP2 AND SWAP2 POP DUP8 JUMP JUMPDEST PUSH1 0x8 DUP2 DUP2 SLOAD DUP2 LT PUSH2 0xAFB JUMPI PUSH1 0x0 DUP1 REVERT JUMPDEST PUSH1 0x0 SWAP2 DUP3 MSTORE PUSH1 0x20 SWAP1 SWAP2 KECCAK256 PUSH1 0x5 SWAP1 SWAP2 MUL ADD DUP1 SLOAD PUSH1 0x1 DUP3 ADD DUP1 SLOAD SWAP2 SWAP4 POP SWAP1 PUSH2 0xB20 SWAP1 PUSH2 0x257F JUMP JUMPDEST DUP1 PUSH1 0x1F ADD PUSH1 0x20 DUP1 SWAP2 DIV MUL PUSH1 0x20 ADD PUSH1 0x40 MLOAD SWAP1 DUP2 ADD PUSH1 0x40 MSTORE DUP1 SWAP3 SWAP2 SWAP1 DUP2 DUP2 MSTORE PUSH1 0x20 ADD DUP3 DUP1 SLOAD PUSH2 0xB4C SWAP1 PUSH2 0x257F JUMP JUMPDEST DUP1 ISZERO PUSH2 0xB99 JUMPI DUP1 PUSH1 0x1F LT PUSH2 0xB6E JUMPI PUSH2 0x100 DUP1 DUP4 SLOAD DIV MUL DUP4 MSTORE SWAP2 PUSH1 0x20 ADD SWAP2 PUSH2 0xB99 JUMP JUMPDEST DUP3 ADD SWAP2 SWAP1 PUSH1 0x0 MSTORE PUSH1 0x20 PUSH1 0x0 KECCAK256 SWAP1 JUMPDEST DUP2 SLOAD DUP2 MSTORE SWAP1 PUSH1 0x1 ADD SWAP1 PUSH1 0x20 ADD DUP1 DUP4 GT PUSH2 0xB7C JUMPI DUP3 SWAP1 SUB PUSH1 0x1F AND DUP3 ADD SWAP2 JUMPDEST POP POP POP PUSH1 0x2 SWAP1 SWAP4 ADD SLOAD SWAP2 SWAP3 POP POP PUSH1 0xFF AND DUP4 JUMP JUMPDEST CALLER PUSH1 0x0 SWAP1 DUP2 MSTORE PUSH1 0x2 PUSH1 0x20 MSTORE PUSH1 0x40 SWAP1 KECCAK256 SLOAD DUP4 SWAP1 DUP2 EQ PUSH2 0xBC9 JUMPI PUSH1 0x0 DUP1 REVERT JUMPDEST PUSH1 0x8 DUP1 SLOAD PUSH1 0x1 DUP2 ADD DUP3 SSTORE PUSH1 0x0 SWAP2 SWAP1 SWAP2 MSTORE PUSH1 0x5 DUP1 SLOAD SWAP2 DUP2 MUL PUSH32 0xF3F7A9FE364FAAB93B216DA50A3214154F22A0A2B415B23A84C8169E8B636EE3 ADD SWAP2 DUP7 SWAP1 DUP2 LT PUSH2 0xC13 JUMPI PUSH2 0xC13 PUSH2 0x252C JUMP JUMPDEST SWAP1 PUSH1 0x0 MSTORE PUSH1 0x20 PUSH1 0x0 KECCAK256 SWAP1 PUSH1 0x6 MUL ADD PUSH1 0x5 ADD PUSH1 0x1 PUSH1 0x8 DUP1 SLOAD SWAP1 POP PUSH2 0xC36 SWAP2 SWAP1 PUSH2 0x2568 JUMP JUMPDEST DUP2 SLOAD PUSH1 0x1 DUP2 DUP2 ADD DUP5 SSTORE PUSH1 0x0 SWAP4 DUP5 MSTORE PUSH1 0x20 SWAP1 SWAP4 KECCAK256 ADD SSTORE PUSH1 0x8 SLOAD PUSH2 0xC58 SWAP2 SWAP1 PUSH2 0x2568 JUMP JUMPDEST DUP2 SSTORE PUSH2 0xC68 PUSH1 0x1 DUP3 ADD DUP6 DUP6 PUSH2 0x1CB8 JUMP JUMPDEST POP PUSH1 0x2 DUP2 ADD DUP1 SLOAD PUSH1 0xFF NOT AND SWAP1 SSTORE PUSH1 0x40 DUP1 MLOAD PUSH1 0x0 DUP2 MSTORE PUSH1 0x20 DUP2 ADD SWAP2 DUP3 SWAP1 MSTORE MLOAD PUSH2 0xC94 SWAP2 PUSH1 0x3 DUP5 ADD SWAP2 PUSH2 0x1D3C JUMP JUMPDEST POP PUSH1 0x40 DUP1 MLOAD PUSH1 0x0 DUP2 MSTORE PUSH1 0x20 DUP2 ADD SWAP2 DUP3 SWAP1 MSTORE MLOAD PUSH2 0x8BB SWAP2 PUSH1 0x4 DUP5 ADD SWAP2 PUSH2 0x1D3C JUMP JUMPDEST PUSH1 0x60 PUSH1 0x4 DUP1 SLOAD DUP1 PUSH1 0x20 MUL PUSH1 0x20 ADD PUSH1 0x40 MLOAD SWAP1 DUP2 ADD PUSH1 0x40 MSTORE DUP1 SWAP3 SWAP2 SWAP1 DUP2 DUP2 MSTORE PUSH1 0x20 ADD PUSH1 0x0 SWAP1 JUMPDEST DUP3 DUP3 LT ISZERO PUSH2 0xE66 JUMPI DUP4 DUP3 SWAP1 PUSH1 0x0 MSTORE PUSH1 0x20 PUSH1 0x0 KECCAK256 SWAP1 PUSH1 0x5 MUL ADD PUSH1 0x40 MLOAD DUP1 PUSH1 0xA0 ADD PUSH1 0x40 MSTORE SWAP1 DUP2 PUSH1 0x0 DUP3 ADD SLOAD DUP2 MSTORE PUSH1 0x20 ADD PUSH1 0x1 DUP3 ADD DUP1 SLOAD PUSH2 0xD15 SWAP1 PUSH2 0x257F JUMP JUMPDEST DUP1 PUSH1 0x1F ADD PUSH1 0x20 DUP1 SWAP2 DIV MUL PUSH1 0x20 ADD PUSH1 0x40 MLOAD SWAP1 DUP2 ADD PUSH1 0x40 MSTORE DUP1 SWAP3 SWAP2 SWAP1 DUP2 DUP2 MSTORE PUSH1 0x20 ADD DUP3 DUP1 SLOAD PUSH2 0xD41 SWAP1 PUSH2 0x257F JUMP JUMPDEST DUP1 ISZERO PUSH2 0xD8E JUMPI DUP1 PUSH1 0x1F LT PUSH2 0xD63 JUMPI PUSH2 0x100 DUP1 DUP4 SLOAD DIV MUL DUP4 MSTORE SWAP2 PUSH1 0x20 ADD SWAP2 PUSH2 0xD8E JUMP JUMPDEST DUP3 ADD SWAP2 SWAP1 PUSH1 0x0 MSTORE PUSH1 0x20 PUSH1 0x0 KECCAK256 SWAP1 JUMPDEST DUP2 SLOAD DUP2 MSTORE SWAP1 PUSH1 0x1 ADD SWAP1 PUSH1 0x20 ADD DUP1 DUP4 GT PUSH2 0xD71 JUMPI DUP3 SWAP1 SUB PUSH1 0x1F AND DUP3 ADD SWAP2 JUMPDEST POP POP POP SWAP2 DUP4 MSTORE POP POP PUSH1 0x2 DUP3 ADD SLOAD PUSH1 0x1 PUSH1 0x1 PUSH1 0xA0 SHL SUB AND PUSH1 0x20 DUP1 DUP4 ADD SWAP2 SWAP1 SWAP2 MSTORE PUSH1 0x3 DUP4 ADD DUP1 SLOAD PUSH1 0x40 DUP1 MLOAD DUP3 DUP6 MUL DUP2 ADD DUP6 ADD DUP3 MSTORE DUP3 DUP2 MSTORE SWAP5 ADD SWAP4 SWAP3 DUP4 ADD DUP3 DUP3 DUP1 ISZERO PUSH2 0xDF6 JUMPI PUSH1 0x20 MUL DUP3 ADD SWAP2 SWAP1 PUSH1 0x0 MSTORE PUSH1 0x20 PUSH1 0x0 KECCAK256 SWAP1 JUMPDEST DUP2 SLOAD DUP2 MSTORE PUSH1 0x20 ADD SWAP1 PUSH1 0x1 ADD SWAP1 DUP1 DUP4 GT PUSH2 0xDE2 JUMPI JUMPDEST POP POP POP POP POP DUP2 MSTORE PUSH1 0x20 ADD PUSH1 0x4 DUP3 ADD DUP1 SLOAD DUP1 PUSH1 0x20 MUL PUSH1 0x20 ADD PUSH1 0x40 MLOAD SWAP1 DUP2 ADD PUSH1 0x40 MSTORE DUP1 SWAP3 SWAP2 SWAP1 DUP2 DUP2 MSTORE PUSH1 0x20 ADD DUP3 DUP1 SLOAD DUP1 ISZERO PUSH2 0xE4E JUMPI PUSH1 0x20 MUL DUP3 ADD SWAP2 SWAP1 PUSH1 0x0 MSTORE PUSH1 0x20 PUSH1 0x0 KECCAK256 SWAP1 JUMPDEST DUP2 SLOAD DUP2 MSTORE PUSH1 0x20 ADD SWAP1 PUSH1 0x1 ADD SWAP1 DUP1 DUP4 GT PUSH2 0xE3A JUMPI JUMPDEST POP POP POP POP POP DUP2 MSTORE POP POP DUP2 MSTORE PUSH1 0x20 ADD SWAP1 PUSH1 0x1 ADD SWAP1 PUSH2 0xCD8 JUMP JUMPDEST POP POP POP POP SWAP1 POP SWAP1 JUMP JUMPDEST CALLER PUSH1 0x0 SWAP1 DUP2 MSTORE PUSH1 0x2 PUSH1 0x20 MSTORE PUSH1 0x40 SWAP1 KECCAK256 SLOAD DUP5 EQ ISZERO PUSH2 0xEE5 JUMPI PUSH1 0x40 MLOAD PUSH3 0x461BCD PUSH1 0xE5 SHL DUP2 MSTORE PUSH1 0x20 PUSH1 0x4 DUP3 ADD MSTORE PUSH1 0x2E PUSH1 0x24 DUP3 ADD MSTORE PUSH32 0x6572726F723A20456E646F727365722063616E6E6F7420656E646F7273652074 PUSH1 0x44 DUP3 ADD MSTORE PUSH14 0x1A195A5C881BDDDB881CDADA5B1B PUSH1 0x92 SHL PUSH1 0x64 DUP3 ADD MSTORE PUSH1 0x84 ADD PUSH2 0x4D7 JUMP JUMPDEST PUSH1 0x7 DUP1 SLOAD PUSH1 0x1 DUP2 ADD SWAP1 SWAP2 SSTORE CALLER PUSH1 0x0 SWAP1 DUP2 MSTORE PUSH1 0x2 PUSH1 0x20 DUP2 SWAP1 MSTORE PUSH1 0x40 SWAP1 SWAP2 KECCAK256 SLOAD SWAP2 MUL PUSH32 0xA66CC928B5EDB82AF9BD49922954155AB7B0942694BEA4CE44661D9A8736C688 DUP2 ADD SWAP2 DUP3 SSTORE PUSH2 0xF58 SWAP1 PUSH32 0xA66CC928B5EDB82AF9BD49922954155AB7B0942694BEA4CE44661D9A8736C689 ADD DUP5 DUP5 PUSH2 0x1CB8 JUMP JUMPDEST POP PUSH1 0x8 DUP5 DUP2 SLOAD DUP2 LT PUSH2 0xF6C JUMPI PUSH2 0xF6C PUSH2 0x252C JUMP JUMPDEST SWAP1 PUSH1 0x0 MSTORE PUSH1 0x20 PUSH1 0x0 KECCAK256 SWAP1 PUSH1 0x5 MUL ADD PUSH1 0x4 ADD PUSH1 0x1 PUSH1 0x7 DUP1 SLOAD SWAP1 POP PUSH2 0xF8F SWAP2 SWAP1 PUSH2 0x2568 JUMP JUMPDEST DUP2 SLOAD PUSH1 0x1 DUP2 ADD DUP4 SSTORE PUSH1 0x0 SWAP3 DUP4 MSTORE PUSH1 0x20 DUP1 DUP5 KECCAK256 SWAP1 SWAP2 ADD SWAP2 SWAP1 SWAP2 SSTORE CALLER DUP3 MSTORE PUSH1 0x2 SWAP1 MSTORE PUSH1 0x40 SWAP1 KECCAK256 SLOAD PUSH1 0x5 DUP1 SLOAD SWAP1 SWAP2 SWAP1 DUP2 LT PUSH2 0xFC9 JUMPI PUSH2 0xFC9 PUSH2 0x252C JUMP JUMPDEST SWAP1 PUSH1 0x0 MSTORE PUSH1 0x20 PUSH1 0x0 KECCAK256 SWAP1 PUSH1 0x6 MUL ADD PUSH1 0x3 ADD PUSH1 0x15 SWAP1 SLOAD SWAP1 PUSH2 0x100 EXP SWAP1 DIV PUSH1 0xFF AND ISZERO PUSH2 0x109A JUMPI PUSH1 0x5 DUP6 DUP2 SLOAD DUP2 LT PUSH2 0x1000 JUMPI PUSH2 0x1000 PUSH2 0x252C JUMP JUMPDEST SWAP1 PUSH1 0x0 MSTORE PUSH1 0x20 PUSH1 0x0 KECCAK256 SWAP1 PUSH1 0x6 MUL ADD PUSH1 0x1 ADD SLOAD PUSH1 0x5 PUSH1 0x2 PUSH1 0x0 CALLER PUSH1 0x1 PUSH1 0x1 PUSH1 0xA0 SHL SUB AND PUSH1 0x1 PUSH1 0x1 PUSH1 0xA0 SHL SUB AND DUP2 MSTORE PUSH1 0x20 ADD SWAP1 DUP2 MSTORE PUSH1 0x20 ADD PUSH1 0x0 KECCAK256 SLOAD DUP2 SLOAD DUP2 LT PUSH2 0x104A JUMPI PUSH2 0x104A PUSH2 0x252C JUMP JUMPDEST SWAP1 PUSH1 0x0 MSTORE PUSH1 0x20 PUSH1 0x0 KECCAK256 SWAP1 PUSH1 0x6 MUL ADD PUSH1 0x1 ADD SLOAD EQ ISZERO PUSH2 0x109A JUMPI PUSH1 0x1 PUSH1 0x8 DUP6 DUP2 SLOAD DUP2 LT PUSH2 0x1077 JUMPI PUSH2 0x1077 PUSH2 0x252C JUMP JUMPDEST PUSH1 0x0 SWAP2 DUP3 MSTORE PUSH1 0x20 SWAP1 SWAP2 KECCAK256 PUSH1 0x5 SWAP1 SWAP2 MUL ADD PUSH1 0x2 ADD DUP1 SLOAD PUSH1 0xFF NOT AND SWAP2 ISZERO ISZERO SWAP2 SWAP1 SWAP2 OR SWAP1 SSTORE JUMPDEST POP POP POP POP POP JUMP JUMPDEST PUSH1 0x60 PUSH1 0x4 DUP3 DUP2 SLOAD DUP2 LT PUSH2 0x10B6 JUMPI PUSH2 0x10B6 PUSH2 0x252C JUMP JUMPDEST SWAP1 PUSH1 0x0 MSTORE PUSH1 0x20 PUSH1 0x0 KECCAK256 SWAP1 PUSH1 0x5 MUL ADD PUSH1 0x3 ADD DUP1 SLOAD DUP1 PUSH1 0x20 MUL PUSH1 0x20 ADD PUSH1 0x40 MLOAD SWAP1 DUP2 ADD PUSH1 0x40 MSTORE DUP1 SWAP3 SWAP2 SWAP1 DUP2 DUP2 MSTORE PUSH1 0x20 ADD DUP3 DUP1 SLOAD DUP1 ISZERO PUSH2 0x933 JUMPI PUSH1 0x20 MUL DUP3 ADD SWAP2 SWAP1 PUSH1 0x0 MSTORE PUSH1 0x20 PUSH1 0x0 KECCAK256 SWAP1 DUP2 SLOAD DUP2 MSTORE PUSH1 0x20 ADD SWAP1 PUSH1 0x1 ADD SWAP1 DUP1 DUP4 GT PUSH2 0x91F JUMPI POP POP POP POP POP SWAP1 POP SWAP2 SWAP1 POP JUMP JUMPDEST CALLER PUSH1 0x0 SWAP1 DUP2 MSTORE PUSH1 0x3 PUSH1 0x20 MSTORE PUSH1 0x40 SWAP1 KECCAK256 SLOAD PUSH1 0xFF AND PUSH2 0x118C JUMPI PUSH1 0x40 MLOAD PUSH3 0x461BCD PUSH1 0xE5 SHL DUP2 MSTORE PUSH1 0x20 PUSH1 0x4 DUP3 ADD MSTORE PUSH1 0x29 PUSH1 0x24 DUP3 ADD MSTORE PUSH32 0x6572726F723A2073656E646572206E6F7420616E206F7267616E697A6174696F PUSH1 0x44 DUP3 ADD MSTORE PUSH9 0x1B881858D8DBDD5B9D PUSH1 0xBA SHL PUSH1 0x64 DUP3 ADD MSTORE PUSH1 0x84 ADD PUSH2 0x4D7 JUMP JUMPDEST CALLER PUSH1 0x0 SWAP1 DUP2 MSTORE PUSH1 0x2 PUSH1 0x20 MSTORE PUSH1 0x40 SWAP1 KECCAK256 SLOAD PUSH1 0x5 DUP1 SLOAD DUP4 SWAP1 DUP2 LT PUSH2 0x11B0 JUMPI PUSH2 0x11B0 PUSH2 0x252C JUMP JUMPDEST SWAP1 PUSH1 0x0 MSTORE PUSH1 0x20 PUSH1 0x0 KECCAK256 SWAP1 PUSH1 0x6 MUL ADD PUSH1 0x1 ADD SLOAD EQ PUSH2 0x1223 JUMPI PUSH1 0x40 MLOAD PUSH3 0x461BCD PUSH1 0xE5 SHL DUP2 MSTORE PUSH1 0x20 PUSH1 0x4 DUP3 ADD MSTORE PUSH1 0x2B PUSH1 0x24 DUP3 ADD MSTORE PUSH32 0x6572726F723A2075736572206973206E6F74206F66207468652073616D65206F PUSH1 0x44 DUP3 ADD MSTORE PUSH11 0x3933B0B734BD30BA34B7B7 PUSH1 0xA9 SHL PUSH1 0x64 DUP3 ADD MSTORE PUSH1 0x84 ADD PUSH2 0x4D7 JUMP JUMPDEST PUSH1 0x5 DUP2 DUP2 SLOAD DUP2 LT PUSH2 0x1236 JUMPI PUSH2 0x1236 PUSH2 0x252C JUMP JUMPDEST SWAP1 PUSH1 0x0 MSTORE PUSH1 0x20 PUSH1 0x0 KECCAK256 SWAP1 PUSH1 0x6 MUL ADD PUSH1 0x3 ADD PUSH1 0x15 SWAP1 SLOAD SWAP1 PUSH2 0x100 EXP SWAP1 DIV PUSH1 0xFF AND ISZERO ISZERO PUSH1 0x1 ISZERO ISZERO EQ ISZERO PUSH2 0x12A1 JUMPI PUSH1 0x0 PUSH1 0x5 DUP3 DUP2 SLOAD DUP2 LT PUSH2 0x1276 JUMPI PUSH2 0x1276 PUSH2 0x252C JUMP JUMPDEST SWAP1 PUSH1 0x0 MSTORE PUSH1 0x20 PUSH1 0x0 KECCAK256 SWAP1 PUSH1 0x6 MUL ADD PUSH1 0x3 ADD PUSH1 0x15 PUSH2 0x100 EXP DUP2 SLOAD DUP2 PUSH1 0xFF MUL NOT AND SWAP1 DUP4 ISZERO ISZERO MUL OR SWAP1 SSTORE POP POP JUMP JUMPDEST PUSH1 0x1 PUSH1 0x5 DUP3 DUP2 SLOAD DUP2 LT PUSH2 0x1276 JUMPI PUSH2 0x1276 PUSH2 0x252C JUMP JUMPDEST CALLER PUSH1 0x1 PUSH1 0x1 PUSH1 0xA0 SHL SUB AND PUSH1 0x1 DUP5 DUP5 PUSH1 0x40 MLOAD PUSH2 0x12D2 SWAP3 SWAP2 SWAP1 PUSH2 0x2542 JUMP JUMPDEST SWAP1 DUP2 MSTORE PUSH1 0x40 MLOAD SWAP1 DUP2 SWAP1 SUB PUSH1 0x20 ADD SWAP1 KECCAK256 SLOAD PUSH1 0x1 PUSH1 0x1 PUSH1 0xA0 SHL SUB AND EQ PUSH2 0x1355 JUMPI PUSH1 0x40 MLOAD PUSH3 0x461BCD PUSH1 0xE5 SHL DUP2 MSTORE PUSH1 0x20 PUSH1 0x4 DUP3 ADD MSTORE PUSH1 0x34 PUSH1 0x24 DUP3 ADD MSTORE PUSH32 0x6572726F723A2046756E6374696F6E2063616C6C65642066726F6D20696E636F PUSH1 0x44 DUP3 ADD MSTORE PUSH20 0x72726563742077616C6C65742061646472657373 PUSH1 0x60 SHL PUSH1 0x64 DUP3 ADD MSTORE PUSH1 0x84 ADD PUSH2 0x4D7 JUMP JUMPDEST DUP1 PUSH1 0x1 DUP5 DUP5 PUSH1 0x40 MLOAD PUSH2 0x1368 SWAP3 SWAP2 SWAP1 PUSH2 0x2542 JUMP JUMPDEST SWAP1 DUP2 MSTORE PUSH1 0x40 DUP1 MLOAD PUSH1 0x20 SWAP3 DUP2 SWAP1 SUB DUP4 ADD SWAP1 KECCAK256 DUP1 SLOAD PUSH1 0x1 PUSH1 0x1 PUSH1 0xA0 SHL SUB NOT AND PUSH1 0x1 PUSH1 0x1 PUSH1 0xA0 SHL SUB SWAP5 DUP6 AND OR SWAP1 SSTORE CALLER PUSH1 0x0 SWAP1 DUP2 MSTORE PUSH1 0x2 SWAP1 SWAP3 MSTORE DUP1 DUP3 KECCAK256 DUP1 SLOAD SWAP1 DUP4 SWAP1 SSTORE SWAP4 SWAP1 SWAP3 AND DUP2 MSTORE KECCAK256 SSTORE POP POP JUMP JUMPDEST PUSH1 0x60 PUSH1 0x8 DUP3 DUP2 SLOAD DUP2 LT PUSH2 0x8D8 JUMPI PUSH2 0x8D8 PUSH2 0x252C JUMP JUMPDEST PUSH1 0x60 PUSH1 0x5 DUP3 DUP2 SLOAD DUP2 LT PUSH2 0x13DD JUMPI PUSH2 0x13DD PUSH2 0x252C JUMP JUMPDEST SWAP1 PUSH1 0x0 MSTORE PUSH1 0x20 PUSH1 0x0 KECCAK256 SWAP1 PUSH1 0x6 MUL ADD PUSH1 0x5 ADD DUP1 SLOAD DUP1 PUSH1 0x20 MUL PUSH1 0x20 ADD PUSH1 0x40 MLOAD SWAP1 DUP2 ADD PUSH1 0x40 MSTORE DUP1 SWAP3 SWAP2 SWAP1 DUP2 DUP2 MSTORE PUSH1 0x20 ADD DUP3 DUP1 SLOAD DUP1 ISZERO PUSH2 0x933 JUMPI PUSH1 0x20 MUL DUP3 ADD SWAP2 SWAP1 PUSH1 0x0 MSTORE PUSH1 0x20 PUSH1 0x0 KECCAK256 SWAP1 DUP2 SLOAD DUP2 MSTORE PUSH1 0x20 ADD SWAP1 PUSH1 0x1 ADD SWAP1 DUP1 DUP4 GT PUSH2 0x91F JUMPI POP POP POP POP POP SWAP1 POP SWAP2 SWAP1 POP JUMP JUMPDEST PUSH1 0x60 PUSH1 0x0 PUSH1 0x1 DUP5 DUP5 PUSH1 0x40 MLOAD PUSH2 0x1458 SWAP3 SWAP2 SWAP1 PUSH2 0x2542 JUMP JUMPDEST SWAP1 DUP2 MSTORE PUSH1 0x40 MLOAD SWAP1 DUP2 SWAP1 SUB PUSH1 0x20 ADD SWAP1 KECCAK256 SLOAD CALLER PUSH1 0x1 PUSH1 0x1 PUSH1 0xA0 SHL SUB SWAP1 SWAP2 AND EQ PUSH2 0x14DD JUMPI PUSH1 0x40 MLOAD PUSH3 0x461BCD PUSH1 0xE5 SHL DUP2 MSTORE PUSH1 0x20 PUSH1 0x4 DUP3 ADD MSTORE PUSH1 0x33 PUSH1 0x24 DUP3 ADD MSTORE PUSH32 0x6572726F723A20696E636F72726563742077616C6C6574206164647265737320 PUSH1 0x44 DUP3 ADD MSTORE PUSH19 0x3AB9B2B2103337B91039B4B3B734B7339034B7 PUSH1 0x69 SHL PUSH1 0x64 DUP3 ADD MSTORE PUSH1 0x84 ADD PUSH2 0x4D7 JUMP JUMPDEST CALLER PUSH1 0x0 SWAP1 DUP2 MSTORE PUSH1 0x3 PUSH1 0x20 MSTORE PUSH1 0x40 SWAP1 KECCAK256 SLOAD PUSH1 0xFF AND ISZERO PUSH2 0x15AD JUMPI PUSH1 0x40 MLOAD DUP1 PUSH1 0x40 ADD PUSH1 0x40 MSTORE DUP1 PUSH1 0xC DUP2 MSTORE PUSH1 0x20 ADD PUSH12 0x37B933B0B734BD30BA34B7B7 PUSH1 0xA1 SHL DUP2 MSTORE POP SWAP2 POP PUSH1 0x0 JUMPDEST PUSH1 0x4 SLOAD DUP2 LT ISZERO PUSH2 0x15A7 JUMPI CALLER PUSH1 0x1 PUSH1 0x1 PUSH1 0xA0 SHL SUB AND PUSH1 0x4 DUP3 DUP2 SLOAD DUP2 LT PUSH2 0x1546 JUMPI PUSH2 0x1546 PUSH2 0x252C JUMP JUMPDEST PUSH1 0x0 SWAP2 DUP3 MSTORE PUSH1 0x20 SWAP1 SWAP2 KECCAK256 PUSH1 0x2 PUSH1 0x5 SWAP1 SWAP3 MUL ADD ADD SLOAD PUSH1 0x1 PUSH1 0x1 PUSH1 0xA0 SHL SUB AND EQ ISZERO PUSH2 0x1595 JUMPI PUSH1 0x4 DUP2 DUP2 SLOAD DUP2 LT PUSH2 0x157C JUMPI PUSH2 0x157C PUSH2 0x252C JUMP JUMPDEST SWAP1 PUSH1 0x0 MSTORE PUSH1 0x20 PUSH1 0x0 KECCAK256 SWAP1 PUSH1 0x5 MUL ADD PUSH1 0x0 ADD SLOAD SWAP2 POP PUSH2 0x15A7 JUMP JUMPDEST DUP1 PUSH2 0x159F DUP2 PUSH2 0x25BA JUMP JUMPDEST SWAP2 POP POP PUSH2 0x151F JUMP JUMPDEST POP PUSH2 0x165F JUMP JUMPDEST PUSH1 0x40 MLOAD DUP1 PUSH1 0x40 ADD PUSH1 0x40 MSTORE DUP1 PUSH1 0xA DUP2 MSTORE PUSH1 0x20 ADD PUSH10 0x1A5B991A5D9A591D585B PUSH1 0xB2 SHL DUP2 MSTORE POP SWAP2 POP PUSH1 0x0 JUMPDEST PUSH1 0x5 SLOAD DUP2 LT ISZERO PUSH2 0x165D JUMPI CALLER PUSH1 0x1 PUSH1 0x1 PUSH1 0xA0 SHL SUB AND PUSH1 0x5 DUP3 DUP2 SLOAD DUP2 LT PUSH2 0x15FC JUMPI PUSH2 0x15FC PUSH2 0x252C JUMP JUMPDEST PUSH1 0x0 SWAP2 DUP3 MSTORE PUSH1 0x20 SWAP1 SWAP2 KECCAK256 PUSH1 0x3 PUSH1 0x6 SWAP1 SWAP3 MUL ADD ADD SLOAD PUSH1 0x1 PUSH1 0x1 PUSH1 0xA0 SHL SUB AND EQ ISZERO PUSH2 0x164B JUMPI PUSH1 0x5 DUP2 DUP2 SLOAD DUP2 LT PUSH2 0x1632 JUMPI PUSH2 0x1632 PUSH2 0x252C JUMP JUMPDEST SWAP1 PUSH1 0x0 MSTORE PUSH1 0x20 PUSH1 0x0 KECCAK256 SWAP1 PUSH1 0x6 MUL ADD PUSH1 0x0 ADD SLOAD SWAP2 POP PUSH2 0x165D JUMP JUMPDEST DUP1 PUSH2 0x1655 DUP2 PUSH2 0x25BA JUMP JUMPDEST SWAP2 POP POP PUSH2 0x15D5 JUMP JUMPDEST POP JUMPDEST SWAP3 POP SWAP3 SWAP1 POP JUMP JUMPDEST CALLER PUSH1 0x0 SWAP1 DUP2 MSTORE PUSH1 0x2 PUSH1 0x20 MSTORE PUSH1 0x40 SWAP1 KECCAK256 SLOAD DUP4 SWAP1 DUP2 EQ PUSH2 0x1683 JUMPI PUSH1 0x0 DUP1 REVERT JUMPDEST PUSH1 0x6 DUP1 SLOAD PUSH1 0x1 DUP2 ADD DUP3 SSTORE PUSH1 0x0 SWAP2 SWAP1 SWAP2 MSTORE DUP4 MLOAD PUSH1 0x2 SWAP1 SWAP2 MUL PUSH32 0xF652222313E28459528D920B65115C16C04F3EFC82AAEDC97BE59F3F377C0D3F ADD SWAP1 PUSH2 0x16CD SWAP1 DUP3 SWAP1 PUSH1 0x20 DUP8 ADD SWAP1 PUSH2 0x1D77 JUMP JUMPDEST POP PUSH1 0x6 SLOAD PUSH2 0x16DD SWAP1 PUSH1 0x1 SWAP1 PUSH2 0x2568 JUMP JUMPDEST PUSH1 0x1 DUP3 ADD SSTORE PUSH1 0x8 DUP1 SLOAD DUP5 SWAP1 DUP2 LT PUSH2 0x16F6 JUMPI PUSH2 0x16F6 PUSH2 0x252C JUMP JUMPDEST PUSH1 0x0 SWAP2 DUP3 MSTORE PUSH1 0x20 DUP1 DUP4 KECCAK256 PUSH1 0x1 SWAP5 DUP6 ADD SLOAD PUSH1 0x5 SWAP4 SWAP1 SWAP4 MUL ADD PUSH1 0x3 ADD DUP1 SLOAD SWAP5 DUP6 ADD DUP2 SSTORE DUP4 MSTORE SWAP1 SWAP2 KECCAK256 SWAP1 SWAP2 ADD SSTORE POP POP POP POP JUMP JUMPDEST PUSH1 0x7 DUP2 DUP2 SLOAD DUP2 LT PUSH2 0x1736 JUMPI PUSH1 0x0 DUP1 REVERT JUMPDEST PUSH1 0x0 SWAP2 DUP3 MSTORE PUSH1 0x20 SWAP1 SWAP2 KECCAK256 PUSH1 0x2 SWAP1 SWAP2 MUL ADD DUP1 SLOAD PUSH1 0x1 DUP3 ADD DUP1 SLOAD SWAP2 SWAP4 POP SWAP1 PUSH2 0x175B SWAP1 PUSH2 0x257F JUMP JUMPDEST DUP1 PUSH1 0x1F ADD PUSH1 0x20 DUP1 SWAP2 DIV MUL PUSH1 0x20 ADD PUSH1 0x40 MLOAD SWAP1 DUP2 ADD PUSH1 0x40 MSTORE DUP1 SWAP3 SWAP2 SWAP1 DUP2 DUP2 MSTORE PUSH1 0x20 ADD DUP3 DUP1 SLOAD PUSH2 0x1787 SWAP1 PUSH2 0x257F JUMP JUMPDEST DUP1 ISZERO PUSH2 0x17D4 JUMPI DUP1 PUSH1 0x1F LT PUSH2 0x17A9 JUMPI PUSH2 0x100 DUP1 DUP4 SLOAD DIV MUL DUP4 MSTORE SWAP2 PUSH1 0x20 ADD SWAP2 PUSH2 0x17D4 JUMP JUMPDEST DUP3 ADD SWAP2 SWAP1 PUSH1 0x0 MSTORE PUSH1 0x20 PUSH1 0x0 KECCAK256 SWAP1 JUMPDEST DUP2 SLOAD DUP2 MSTORE SWAP1 PUSH1 0x1 ADD SWAP1 PUSH1 0x20 ADD DUP1 DUP4 GT PUSH2 0x17B7 JUMPI DUP3 SWAP1 SUB PUSH1 0x1F AND DUP3 ADD SWAP2 JUMPDEST POP POP POP POP POP SWAP1 POP DUP3 JUMP JUMPDEST CALLER PUSH1 0x0 SWAP1 DUP2 MSTORE PUSH1 0x3 PUSH1 0x20 MSTORE PUSH1 0x40 SWAP1 KECCAK256 SLOAD PUSH1 0xFF AND PUSH2 0x1854 JUMPI PUSH1 0x40 MLOAD PUSH3 0x461BCD PUSH1 0xE5 SHL DUP2 MSTORE PUSH1 0x20 PUSH1 0x4 DUP3 ADD MSTORE PUSH1 0x2E PUSH1 0x24 DUP3 ADD MSTORE PUSH32 0x6572726F723A206F6E6C79206F7267616E697A6174696F6E732063616E207265 PUSH1 0x44 DUP3 ADD MSTORE PUSH14 0x6D6F766520656D706C6F79656573 PUSH1 0x90 SHL PUSH1 0x64 DUP3 ADD MSTORE PUSH1 0x84 ADD PUSH2 0x4D7 JUMP JUMPDEST PUSH1 0x4 SLOAD DUP3 LT PUSH2 0x1875 JUMPI PUSH1 0x40 MLOAD PUSH3 0x461BCD PUSH1 0xE5 SHL DUP2 MSTORE PUSH1 0x4 ADD PUSH2 0x4D7 SWAP1 PUSH2 0x24EA JUMP JUMPDEST PUSH1 0x5 SLOAD DUP2 LT PUSH2 0x18C6 JUMPI PUSH1 0x40 MLOAD PUSH3 0x461BCD PUSH1 0xE5 SHL DUP2 MSTORE PUSH1 0x20 PUSH1 0x4 DUP3 ADD MSTORE PUSH1 0x1E PUSH1 0x24 DUP3 ADD MSTORE PUSH32 0x6572726F723A20656D706C6F79656520646F6573206E6F742065786973740000 PUSH1 0x44 DUP3 ADD MSTORE PUSH1 0x64 ADD PUSH2 0x4D7 JUMP JUMPDEST PUSH1 0x0 PUSH1 0x4 DUP4 DUP2 SLOAD DUP2 LT PUSH2 0x18DB JUMPI PUSH2 0x18DB PUSH2 0x252C JUMP JUMPDEST SWAP1 PUSH1 0x0 MSTORE PUSH1 0x20 PUSH1 0x0 KECCAK256 SWAP1 PUSH1 0x5 MUL ADD PUSH1 0x3 ADD SWAP1 POP PUSH1 0x0 JUMPDEST DUP2 SLOAD DUP2 LT ISZERO PUSH2 0x19A6 JUMPI DUP3 DUP3 DUP3 DUP2 SLOAD DUP2 LT PUSH2 0x190D JUMPI PUSH2 0x190D PUSH2 0x252C JUMP JUMPDEST SWAP1 PUSH1 0x0 MSTORE PUSH1 0x20 PUSH1 0x0 KECCAK256 ADD SLOAD EQ ISZERO PUSH2 0x1994 JUMPI DUP2 SLOAD DUP3 SWAP1 PUSH2 0x192E SWAP1 PUSH1 0x1 SWAP1 PUSH2 0x2568 JUMP JUMPDEST DUP2 SLOAD DUP2 LT PUSH2 0x193E JUMPI PUSH2 0x193E PUSH2 0x252C JUMP JUMPDEST SWAP1 PUSH1 0x0 MSTORE PUSH1 0x20 PUSH1 0x0 KECCAK256 ADD SLOAD DUP3 DUP3 DUP2 SLOAD DUP2 LT PUSH2 0x195B JUMPI PUSH2 0x195B PUSH2 0x252C JUMP JUMPDEST SWAP1 PUSH1 0x0 MSTORE PUSH1 0x20 PUSH1 0x0 KECCAK256 ADD DUP2 SWAP1 SSTORE POP DUP2 DUP1 SLOAD DUP1 PUSH2 0x1979 JUMPI PUSH2 0x1979 PUSH2 0x25D5 JUMP JUMPDEST PUSH1 0x1 SWAP1 SUB DUP2 DUP2 SWAP1 PUSH1 0x0 MSTORE PUSH1 0x20 PUSH1 0x0 KECCAK256 ADD PUSH1 0x0 SWAP1 SSTORE SWAP1 SSTORE PUSH2 0x19A6 JUMP JUMPDEST DUP1 PUSH2 0x199E DUP2 PUSH2 0x25BA JUMP JUMPDEST SWAP2 POP POP PUSH2 0x18F1 JUMP JUMPDEST POP PUSH1 0x4 DUP4 DUP2 SLOAD DUP2 LT PUSH2 0x19BA JUMPI PUSH2 0x19BA PUSH2 0x252C JUMP JUMPDEST PUSH1 0x0 SWAP2 DUP3 MSTORE PUSH1 0x20 DUP1 DUP4 KECCAK256 PUSH1 0x5 SWAP3 DUP4 MUL ADD PUSH1 0x4 ADD DUP1 SLOAD PUSH1 0x1 DUP2 ADD DUP3 SSTORE SWAP1 DUP5 MSTORE SWAP1 DUP4 KECCAK256 ADD DUP5 SWAP1 SSTORE DUP1 SLOAD DUP5 SWAP1 DUP2 LT PUSH2 0x19F1 JUMPI PUSH2 0x19F1 PUSH2 0x252C JUMP JUMPDEST SWAP1 PUSH1 0x0 MSTORE PUSH1 0x20 PUSH1 0x0 KECCAK256 SWAP1 PUSH1 0x6 MUL ADD PUSH1 0x1 ADD DUP2 SWAP1 SSTORE POP POP POP POP JUMP JUMPDEST PUSH1 0x60 PUSH1 0x5 DUP1 SLOAD DUP1 PUSH1 0x20 MUL PUSH1 0x20 ADD PUSH1 0x40 MLOAD SWAP1 DUP2 ADD PUSH1 0x40 MSTORE DUP1 SWAP3 SWAP2 SWAP1 DUP2 DUP2 MSTORE PUSH1 0x20 ADD PUSH1 0x0 SWAP1 JUMPDEST DUP3 DUP3 LT ISZERO PUSH2 0xE66 JUMPI DUP4 DUP3 SWAP1 PUSH1 0x0 MSTORE PUSH1 0x20 PUSH1 0x0 KECCAK256 SWAP1 PUSH1 0x6 MUL ADD PUSH1 0x40 MLOAD DUP1 PUSH2 0x100 ADD PUSH1 0x40 MSTORE SWAP1 DUP2 PUSH1 0x0 DUP3 ADD SLOAD DUP2 MSTORE PUSH1 0x20 ADD PUSH1 0x1 DUP3 ADD SLOAD DUP2 MSTORE PUSH1 0x20 ADD PUSH1 0x2 DUP3 ADD DUP1 SLOAD PUSH2 0x1A77 SWAP1 PUSH2 0x257F JUMP JUMPDEST DUP1 PUSH1 0x1F ADD PUSH1 0x20 DUP1 SWAP2 DIV MUL PUSH1 0x20 ADD PUSH1 0x40 MLOAD SWAP1 DUP2 ADD PUSH1 0x40 MSTORE DUP1 SWAP3 SWAP2 SWAP1 DUP2 DUP2 MSTORE PUSH1 0x20 ADD DUP3 DUP1 SLOAD PUSH2 0x1AA3 SWAP1 PUSH2 0x257F JUMP JUMPDEST DUP1 ISZERO PUSH2 0x1AF0 JUMPI DUP1 PUSH1 0x1F LT PUSH2 0x1AC5 JUMPI PUSH2 0x100 DUP1 DUP4 SLOAD DIV MUL DUP4 MSTORE SWAP2 PUSH1 0x20 ADD SWAP2 PUSH2 0x1AF0 JUMP JUMPDEST DUP3 ADD SWAP2 SWAP1 PUSH1 0x0 MSTORE PUSH1 0x20 PUSH1 0x0 KECCAK256 SWAP1 JUMPDEST DUP2 SLOAD DUP2 MSTORE SWAP1 PUSH1 0x1 ADD SWAP1 PUSH1 0x20 ADD DUP1 DUP4 GT PUSH2 0x1AD3 JUMPI DUP3 SWAP1 SUB PUSH1 0x1F AND DUP3 ADD SWAP2 JUMPDEST POP POP POP SWAP2 DUP4 MSTORE POP POP PUSH1 0x3 DUP3 ADD SLOAD PUSH1 0x1 PUSH1 0x1 PUSH1 0xA0 SHL SUB DUP2 AND PUSH1 0x20 DUP1 DUP5 ADD SWAP2 SWAP1 SWAP2 MSTORE PUSH1 0xFF PUSH1 0x1 PUSH1 0xA0 SHL DUP4 DIV DUP2 AND ISZERO ISZERO PUSH1 0x40 DUP1 DUP7 ADD SWAP2 SWAP1 SWAP2 MSTORE PUSH1 0x1 PUSH1 0xA8 SHL SWAP1 SWAP4 DIV AND ISZERO ISZERO PUSH1 0x60 DUP5 ADD MSTORE PUSH1 0x4 DUP5 ADD SLOAD PUSH1 0x80 DUP5 ADD MSTORE PUSH1 0x5 DUP5 ADD DUP1 SLOAD DUP4 MLOAD DUP2 DUP5 MUL DUP2 ADD DUP5 ADD SWAP1 SWAP5 MSTORE DUP1 DUP5 MSTORE PUSH1 0xA0 SWAP1 SWAP5 ADD SWAP4 SWAP1 SWAP2 DUP4 ADD DUP3 DUP3 DUP1 ISZERO PUSH2 0x1B8C JUMPI PUSH1 0x20 MUL DUP3 ADD SWAP2 SWAP1 PUSH1 0x0 MSTORE PUSH1 0x20 PUSH1 0x0 KECCAK256 SWAP1 JUMPDEST DUP2 SLOAD DUP2 MSTORE PUSH1 0x20 ADD SWAP1 PUSH1 0x1 ADD SWAP1 DUP1 DUP4 GT PUSH2 0x1B78 JUMPI JUMPDEST POP POP POP POP POP DUP2 MSTORE POP POP DUP2 MSTORE PUSH1 0x20 ADD SWAP1 PUSH1 0x1 ADD SWAP1 PUSH2 0x1A2F JUMP JUMPDEST PUSH1 0x4 DUP2 DUP2 SLOAD DUP2 LT PUSH2 0x1BB4 JUMPI PUSH1 0x0 DUP1 REVERT JUMPDEST PUSH1 0x0 SWAP2 DUP3 MSTORE PUSH1 0x20 SWAP1 SWAP2 KECCAK256 PUSH1 0x5 SWAP1 SWAP2 MUL ADD DUP1 SLOAD PUSH1 0x1 DUP3 ADD DUP1 SLOAD SWAP2 SWAP4 POP SWAP1 PUSH2 0x1BD9 SWAP1 PUSH2 0x257F JUMP JUMPDEST DUP1 PUSH1 0x1F ADD PUSH1 0x20 DUP1 SWAP2 DIV MUL PUSH1 0x20 ADD PUSH1 0x40 MLOAD SWAP1 DUP2 ADD PUSH1 0x40 MSTORE DUP1 SWAP3 SWAP2 SWAP1 DUP2 DUP2 MSTORE PUSH1 0x20 ADD DUP3 DUP1 SLOAD PUSH2 0x1C05 SWAP1 PUSH2 0x257F JUMP JUMPDEST DUP1 ISZERO PUSH2 0x1C52 JUMPI DUP1 PUSH1 0x1F LT PUSH2 0x1C27 JUMPI PUSH2 0x100 DUP1 DUP4 SLOAD DIV MUL DUP4 MSTORE SWAP2 PUSH1 0x20 ADD SWAP2 PUSH2 0x1C52 JUMP JUMPDEST DUP3 ADD SWAP2 SWAP1 PUSH1 0x0 MSTORE PUSH1 0x20 PUSH1 0x0 KECCAK256 SWAP1 JUMPDEST DUP2 SLOAD DUP2 MSTORE SWAP1 PUSH1 0x1 ADD SWAP1 PUSH1 0x20 ADD DUP1 DUP4 GT PUSH2 0x1C35 JUMPI DUP3 SWAP1 SUB PUSH1 0x1F AND DUP3 ADD SWAP2 JUMPDEST POP POP POP PUSH1 0x2 SWAP1 SWAP4 ADD SLOAD SWAP2 SWAP3 POP POP PUSH1 0x1 PUSH1 0x1 PUSH1 0xA0 SHL SUB AND DUP4 JUMP JUMPDEST PUSH1 0x60 PUSH1 0x8 DUP3 DUP2 SLOAD DUP2 LT PUSH2 0x10B6 JUMPI PUSH2 0x10B6 PUSH2 0x252C JUMP JUMPDEST PUSH1 0x0 PUSH2 0x1C8C DUP4 DUP4 PUSH2 0x1C93 JUMP JUMPDEST SWAP4 SWAP3 POP POP POP JUMP JUMPDEST PUSH1 0x0 DUP2 MLOAD DUP4 MLOAD EQ DUP1 ISZERO PUSH2 0x1C8C JUMPI POP POP DUP1 MLOAD PUSH1 0x20 SWAP2 DUP3 ADD KECCAK256 DUP3 MLOAD SWAP3 SWAP1 SWAP2 ADD SWAP2 SWAP1 SWAP2 KECCAK256 EQ SWAP1 JUMP JUMPDEST DUP3 DUP1 SLOAD PUSH2 0x1CC4 SWAP1 PUSH2 0x257F JUMP JUMPDEST SWAP1 PUSH1 0x0 MSTORE PUSH1 0x20 PUSH1 0x0 KECCAK256 SWAP1 PUSH1 0x1F ADD PUSH1 0x20 SWAP1 DIV DUP2 ADD SWAP3 DUP3 PUSH2 0x1CE6 JUMPI PUSH1 0x0 DUP6 SSTORE PUSH2 0x1D2C JUMP JUMPDEST DUP3 PUSH1 0x1F LT PUSH2 0x1CFF JUMPI DUP3 DUP1 ADD PUSH1 0xFF NOT DUP3 CALLDATALOAD AND OR DUP6 SSTORE PUSH2 0x1D2C JUMP JUMPDEST DUP3 DUP1 ADD PUSH1 0x1 ADD DUP6 SSTORE DUP3 ISZERO PUSH2 0x1D2C JUMPI SWAP2 DUP3 ADD JUMPDEST DUP3 DUP2 GT ISZERO PUSH2 0x1D2C JUMPI DUP3 CALLDATALOAD DUP3 SSTORE SWAP2 PUSH1 0x20 ADD SWAP2 SWAP1 PUSH1 0x1 ADD SWAP1 PUSH2 0x1D11 JUMP JUMPDEST POP PUSH2 0x1D38 SWAP3 SWAP2 POP PUSH2 0x1DEA JUMP JUMPDEST POP SWAP1 JUMP JUMPDEST DUP3 DUP1 SLOAD DUP3 DUP3 SSTORE SWAP1 PUSH1 0x0 MSTORE PUSH1 0x20 PUSH1 0x0 KECCAK256 SWAP1 DUP2 ADD SWAP3 DUP3 ISZERO PUSH2 0x1D2C JUMPI SWAP2 PUSH1 0x20 MUL DUP3 ADD JUMPDEST DUP3 DUP2 GT ISZERO PUSH2 0x1D2C JUMPI DUP3 MLOAD DUP3 SSTORE SWAP2 PUSH1 0x20 ADD SWAP2 SWAP1 PUSH1 0x1 ADD SWAP1 PUSH2 0x1D5C JUMP JUMPDEST DUP3 DUP1 SLOAD PUSH2 0x1D83 SWAP1 PUSH2 0x257F JUMP JUMPDEST SWAP1 PUSH1 0x0 MSTORE PUSH1 0x20 PUSH1 0x0 KECCAK256 SWAP1 PUSH1 0x1F ADD PUSH1 0x20 SWAP1 DIV DUP2 ADD SWAP3 DUP3 PUSH2 0x1DA5 JUMPI PUSH1 0x0 DUP6 SSTORE PUSH2 0x1D2C JUMP JUMPDEST DUP3 PUSH1 0x1F LT PUSH2 0x1DBE JUMPI DUP1 MLOAD PUSH1 0xFF NOT AND DUP4 DUP1 ADD OR DUP6 SSTORE PUSH2 0x1D2C JUMP JUMPDEST DUP3 DUP1 ADD PUSH1 0x1 ADD DUP6 SSTORE DUP3 ISZERO PUSH2 0x1D2C JUMPI SWAP2 DUP3 ADD DUP3 DUP2 GT ISZERO PUSH2 0x1D2C JUMPI DUP3 MLOAD DUP3 SSTORE SWAP2 PUSH1 0x20 ADD SWAP2 SWAP1 PUSH1 0x1 ADD SWAP1 PUSH2 0x1D5C JUMP JUMPDEST JUMPDEST DUP1 DUP3 GT ISZERO PUSH2 0x1D38 JUMPI PUSH1 0x0 DUP2 SSTORE PUSH1 0x1 ADD PUSH2 0x1DEB JUMP JUMPDEST PUSH1 0x0 DUP1 PUSH1 0x40 DUP4 DUP6 SUB SLT ISZERO PUSH2 0x1E12 JUMPI PUSH1 0x0 DUP1 REVERT JUMPDEST POP POP DUP1 CALLDATALOAD SWAP3 PUSH1 0x20 SWAP1 SWAP2 ADD CALLDATALOAD SWAP2 POP JUMP JUMPDEST PUSH1 0x0 DUP1 DUP4 PUSH1 0x1F DUP5 ADD SLT PUSH2 0x1E33 JUMPI PUSH1 0x0 DUP1 REVERT JUMPDEST POP DUP2 CALLDATALOAD PUSH8 0xFFFFFFFFFFFFFFFF DUP2 GT ISZERO PUSH2 0x1E4B JUMPI PUSH1 0x0 DUP1 REVERT JUMPDEST PUSH1 0x20 DUP4 ADD SWAP2 POP DUP4 PUSH1 0x20 DUP3 DUP6 ADD ADD GT ISZERO PUSH2 0x165F JUMPI PUSH1 0x0 DUP1 REVERT JUMPDEST PUSH1 0x0 DUP1 PUSH1 0x0 DUP1 PUSH1 0x0 DUP1 PUSH1 0x60 DUP8 DUP10 SUB SLT ISZERO PUSH2 0x1E7C JUMPI PUSH1 0x0 DUP1 REVERT JUMPDEST DUP7 CALLDATALOAD PUSH8 0xFFFFFFFFFFFFFFFF DUP1 DUP3 GT ISZERO PUSH2 0x1E94 JUMPI PUSH1 0x0 DUP1 REVERT JUMPDEST PUSH2 0x1EA0 DUP11 DUP4 DUP12 ADD PUSH2 0x1E21 JUMP JUMPDEST SWAP1 SWAP9 POP SWAP7 POP PUSH1 0x20 DUP10 ADD CALLDATALOAD SWAP2 POP DUP1 DUP3 GT ISZERO PUSH2 0x1EB9 JUMPI PUSH1 0x0 DUP1 REVERT JUMPDEST PUSH2 0x1EC5 DUP11 DUP4 DUP12 ADD PUSH2 0x1E21 JUMP JUMPDEST SWAP1 SWAP7 POP SWAP5 POP PUSH1 0x40 DUP10 ADD CALLDATALOAD SWAP2 POP DUP1 DUP3 GT ISZERO PUSH2 0x1EDE JUMPI PUSH1 0x0 DUP1 REVERT JUMPDEST POP PUSH2 0x1EEB DUP10 DUP3 DUP11 ADD PUSH2 0x1E21 JUMP JUMPDEST SWAP8 SWAP11 SWAP7 SWAP10 POP SWAP5 SWAP8 POP SWAP3 SWAP6 SWAP4 SWAP5 SWAP3 POP POP POP JUMP JUMPDEST PUSH1 0x0 PUSH1 0x20 DUP3 DUP5 SUB SLT ISZERO PUSH2 0x1F0F JUMPI PUSH1 0x0 DUP1 REVERT JUMPDEST POP CALLDATALOAD SWAP2 SWAP1 POP JUMP JUMPDEST PUSH1 0x20 DUP1 DUP3 MSTORE DUP3 MLOAD DUP3 DUP3 ADD DUP2 SWAP1 MSTORE PUSH1 0x0 SWAP2 SWAP1 DUP5 DUP3 ADD SWAP1 PUSH1 0x40 DUP6 ADD SWAP1 DUP5 JUMPDEST DUP2 DUP2 LT ISZERO PUSH2 0x1F4E JUMPI DUP4 MLOAD DUP4 MSTORE SWAP3 DUP5 ADD SWAP3 SWAP2 DUP5 ADD SWAP2 PUSH1 0x1 ADD PUSH2 0x1F32 JUMP JUMPDEST POP SWAP1 SWAP7 SWAP6 POP POP POP POP POP POP JUMP JUMPDEST DUP1 CALLDATALOAD PUSH1 0x1 PUSH1 0x1 PUSH1 0xA0 SHL SUB DUP2 AND DUP2 EQ PUSH2 0x1F71 JUMPI PUSH1 0x0 DUP1 REVERT JUMPDEST SWAP2 SWAP1 POP JUMP JUMPDEST PUSH1 0x0 PUSH1 0x20 DUP3 DUP5 SUB SLT ISZERO PUSH2 0x1F88 JUMPI PUSH1 0x0 DUP1 REVERT JUMPDEST PUSH2 0x1C8C DUP3 PUSH2 0x1F5A JUMP JUMPDEST PUSH1 0x0 DUP2 MLOAD DUP1 DUP5 MSTORE PUSH1 0x0 JUMPDEST DUP2 DUP2 LT ISZERO PUSH2 0x1FB7 JUMPI PUSH1 0x20 DUP2 DUP6 ADD DUP2 ADD MLOAD DUP7 DUP4 ADD DUP3 ADD MSTORE ADD PUSH2 0x1F9B JUMP JUMPDEST DUP2 DUP2 GT ISZERO PUSH2 0x1FC9 JUMPI PUSH1 0x0 PUSH1 0x20 DUP4 DUP8 ADD ADD MSTORE JUMPDEST POP PUSH1 0x1F ADD PUSH1 0x1F NOT AND SWAP3 SWAP1 SWAP3 ADD PUSH1 0x20 ADD SWAP3 SWAP2 POP POP JUMP JUMPDEST PUSH1 0x40 DUP2 MSTORE PUSH1 0x0 PUSH2 0x1FF1 PUSH1 0x40 DUP4 ADD DUP6 PUSH2 0x1F91 JUMP JUMPDEST SWAP1 POP DUP3 PUSH1 0x20 DUP4 ADD MSTORE SWAP4 SWAP3 POP POP POP JUMP JUMPDEST DUP8 DUP2 MSTORE DUP7 PUSH1 0x20 DUP3 ADD MSTORE PUSH1 0xE0 PUSH1 0x40 DUP3 ADD MSTORE PUSH1 0x0 PUSH2 0x201F PUSH1 0xE0 DUP4 ADD DUP9 PUSH2 0x1F91 JUMP JUMPDEST PUSH1 0x1 PUSH1 0x1 PUSH1 0xA0 SHL SUB SWAP7 SWAP1 SWAP7 AND PUSH1 0x60 DUP4 ADD MSTORE POP SWAP3 ISZERO ISZERO PUSH1 0x80 DUP5 ADD MSTORE SWAP1 ISZERO ISZERO PUSH1 0xA0 DUP4 ADD MSTORE PUSH1 0xC0 SWAP1 SWAP2 ADD MSTORE SWAP4 SWAP3 POP POP POP JUMP JUMPDEST PUSH4 0x4E487B71 PUSH1 0xE0 SHL PUSH1 0x0 MSTORE PUSH1 0x41 PUSH1 0x4 MSTORE PUSH1 0x24 PUSH1 0x0 REVERT JUMPDEST PUSH1 0x0 DUP3 PUSH1 0x1F DUP4 ADD SLT PUSH2 0x2075 JUMPI PUSH1 0x0 DUP1 REVERT JUMPDEST DUP2 CALLDATALOAD PUSH8 0xFFFFFFFFFFFFFFFF DUP1 DUP3 GT ISZERO PUSH2 0x2090 JUMPI PUSH2 0x2090 PUSH2 0x204E JUMP JUMPDEST PUSH1 0x40 MLOAD PUSH1 0x1F DUP4 ADD PUSH1 0x1F NOT SWAP1 DUP2 AND PUSH1 0x3F ADD AND DUP2 ADD SWAP1 DUP3 DUP3 GT DUP2 DUP4 LT OR ISZERO PUSH2 0x20B8 JUMPI PUSH2 0x20B8 PUSH2 0x204E JUMP JUMPDEST DUP2 PUSH1 0x40 MSTORE DUP4 DUP2 MSTORE DUP7 PUSH1 0x20 DUP6 DUP9 ADD ADD GT ISZERO PUSH2 0x20D1 JUMPI PUSH1 0x0 DUP1 REVERT JUMPDEST DUP4 PUSH1 0x20 DUP8 ADD PUSH1 0x20 DUP4 ADD CALLDATACOPY PUSH1 0x0 PUSH1 0x20 DUP6 DUP4 ADD ADD MSTORE DUP1 SWAP5 POP POP POP POP POP SWAP3 SWAP2 POP POP JUMP JUMPDEST PUSH1 0x0 PUSH1 0x20 DUP3 DUP5 SUB SLT ISZERO PUSH2 0x2103 JUMPI PUSH1 0x0 DUP1 REVERT JUMPDEST DUP2 CALLDATALOAD PUSH8 0xFFFFFFFFFFFFFFFF DUP2 GT ISZERO PUSH2 0x211A JUMPI PUSH1 0x0 DUP1 REVERT JUMPDEST PUSH2 0x2126 DUP5 DUP3 DUP6 ADD PUSH2 0x2064 JUMP JUMPDEST SWAP5 SWAP4 POP POP POP POP JUMP JUMPDEST DUP4 DUP2 MSTORE PUSH1 0x60 PUSH1 0x20 DUP3 ADD MSTORE PUSH1 0x0 PUSH2 0x2147 PUSH1 0x60 DUP4 ADD DUP6 PUSH2 0x1F91 JUMP JUMPDEST SWAP1 POP DUP3 ISZERO ISZERO PUSH1 0x40 DUP4 ADD MSTORE SWAP5 SWAP4 POP POP POP POP JUMP JUMPDEST PUSH1 0x0 DUP1 PUSH1 0x0 PUSH1 0x40 DUP5 DUP7 SUB SLT ISZERO PUSH2 0x216E JUMPI PUSH1 0x0 DUP1 REVERT JUMPDEST DUP4 CALLDATALOAD SWAP3 POP PUSH1 0x20 DUP5 ADD CALLDATALOAD PUSH8 0xFFFFFFFFFFFFFFFF DUP2 GT ISZERO PUSH2 0x218C JUMPI PUSH1 0x0 DUP1 REVERT JUMPDEST PUSH2 0x2198 DUP7 DUP3 DUP8 ADD PUSH2 0x1E21 JUMP JUMPDEST SWAP5 SWAP8 SWAP1 SWAP7 POP SWAP4 SWAP5 POP POP POP POP JUMP JUMPDEST PUSH1 0x0 DUP2 MLOAD DUP1 DUP5 MSTORE PUSH1 0x20 DUP1 DUP6 ADD SWAP5 POP DUP1 DUP5 ADD PUSH1 0x0 JUMPDEST DUP4 DUP2 LT ISZERO PUSH2 0x21D5 JUMPI DUP2 MLOAD DUP8 MSTORE SWAP6 DUP3 ADD SWAP6 SWAP1 DUP3 ADD SWAP1 PUSH1 0x1 ADD PUSH2 0x21B9 JUMP JUMPDEST POP SWAP5 SWAP6 SWAP5 POP POP POP POP POP JUMP JUMPDEST PUSH1 0x0 PUSH1 0x20 DUP1 DUP4 ADD DUP2 DUP5 MSTORE DUP1 DUP6 MLOAD DUP1 DUP4 MSTORE PUSH1 0x40 SWAP3 POP DUP3 DUP7 ADD SWAP2 POP DUP3 DUP2 PUSH1 0x5 SHL DUP8 ADD ADD DUP5 DUP9 ADD PUSH1 0x0 JUMPDEST DUP4 DUP2 LT ISZERO PUSH2 0x2294 JUMPI PUSH1 0x3F NOT DUP10 DUP5 SUB ADD DUP6 MSTORE DUP2 MLOAD PUSH1 0xA0 DUP2 MLOAD DUP6 MSTORE DUP9 DUP3 ADD MLOAD DUP2 DUP11 DUP8 ADD MSTORE PUSH2 0x2235 DUP3 DUP8 ADD DUP3 PUSH2 0x1F91 JUMP JUMPDEST DUP4 DUP11 ADD MLOAD PUSH1 0x1 PUSH1 0x1 PUSH1 0xA0 SHL SUB AND DUP8 DUP12 ADD MSTORE PUSH1 0x60 DUP1 DUP6 ADD MLOAD DUP9 DUP4 SUB DUP3 DUP11 ADD MSTORE SWAP2 SWAP4 POP SWAP2 POP PUSH2 0x2262 DUP4 DUP3 PUSH2 0x21A5 JUMP JUMPDEST SWAP3 POP POP POP PUSH1 0x80 DUP1 DUP4 ADD MLOAD SWAP3 POP DUP6 DUP3 SUB DUP2 DUP8 ADD MSTORE POP PUSH2 0x2280 DUP2 DUP4 PUSH2 0x21A5 JUMP JUMPDEST SWAP7 DUP10 ADD SWAP7 SWAP5 POP POP POP SWAP1 DUP7 ADD SWAP1 PUSH1 0x1 ADD PUSH2 0x2207 JUMP JUMPDEST POP SWAP1 SWAP9 SWAP8 POP POP POP POP POP POP POP POP JUMP JUMPDEST PUSH1 0x0 DUP1 PUSH1 0x0 DUP1 PUSH1 0x60 DUP6 DUP8 SUB SLT ISZERO PUSH2 0x22B8 JUMPI PUSH1 0x0 DUP1 REVERT JUMPDEST DUP5 CALLDATALOAD SWAP4 POP PUSH1 0x20 DUP6 ADD CALLDATALOAD SWAP3 POP PUSH1 0x40 DUP6 ADD CALLDATALOAD PUSH8 0xFFFFFFFFFFFFFFFF DUP2 GT ISZERO PUSH2 0x22DD JUMPI PUSH1 0x0 DUP1 REVERT JUMPDEST PUSH2 0x22E9 DUP8 DUP3 DUP9 ADD PUSH2 0x1E21 JUMP JUMPDEST SWAP6 SWAP9 SWAP5 SWAP8 POP SWAP6 POP POP POP POP JUMP JUMPDEST PUSH1 0x0 DUP1 PUSH1 0x0 PUSH1 0x40 DUP5 DUP7 SUB SLT ISZERO PUSH2 0x230A JUMPI PUSH1 0x0 DUP1 REVERT JUMPDEST DUP4 CALLDATALOAD PUSH8 0xFFFFFFFFFFFFFFFF DUP2 GT ISZERO PUSH2 0x2321 JUMPI PUSH1 0x0 DUP1 REVERT JUMPDEST PUSH2 0x232D DUP7 DUP3 DUP8 ADD PUSH2 0x1E21 JUMP JUMPDEST SWAP1 SWAP5 POP SWAP3 POP PUSH2 0x2340 SWAP1 POP PUSH1 0x20 DUP6 ADD PUSH2 0x1F5A JUMP JUMPDEST SWAP1 POP SWAP3 POP SWAP3 POP SWAP3 JUMP JUMPDEST PUSH1 0x0 DUP1 PUSH1 0x20 DUP4 DUP6 SUB SLT ISZERO PUSH2 0x235C JUMPI PUSH1 0x0 DUP1 REVERT JUMPDEST DUP3 CALLDATALOAD PUSH8 0xFFFFFFFFFFFFFFFF DUP2 GT ISZERO PUSH2 0x2373 JUMPI PUSH1 0x0 DUP1 REVERT JUMPDEST PUSH2 0x237F DUP6 DUP3 DUP7 ADD PUSH2 0x1E21 JUMP JUMPDEST SWAP1 SWAP7 SWAP1 SWAP6 POP SWAP4 POP POP POP POP JUMP JUMPDEST PUSH1 0x0 DUP1 PUSH1 0x0 PUSH1 0x60 DUP5 DUP7 SUB SLT ISZERO PUSH2 0x23A0 JUMPI PUSH1 0x0 DUP1 REVERT JUMPDEST DUP4 CALLDATALOAD SWAP3 POP PUSH1 0x20 DUP5 ADD CALLDATALOAD PUSH8 0xFFFFFFFFFFFFFFFF DUP2 GT ISZERO PUSH2 0x23BE JUMPI PUSH1 0x0 DUP1 REVERT JUMPDEST PUSH2 0x23CA DUP7 DUP3 DUP8 ADD PUSH2 0x2064 JUMP JUMPDEST SWAP3 POP POP PUSH1 0x40 DUP5 ADD CALLDATALOAD SWAP1 POP SWAP3 POP SWAP3 POP SWAP3 JUMP JUMPDEST DUP3 DUP2 MSTORE PUSH1 0x40 PUSH1 0x20 DUP3 ADD MSTORE PUSH1 0x0 PUSH2 0x2126 PUSH1 0x40 DUP4 ADD DUP5 PUSH2 0x1F91 JUMP JUMPDEST PUSH1 0x0 PUSH1 0x20 DUP1 DUP4 ADD DUP2 DUP5 MSTORE DUP1 DUP6 MLOAD DUP1 DUP4 MSTORE PUSH1 0x40 SWAP3 POP DUP3 DUP7 ADD SWAP2 POP DUP3 DUP2 PUSH1 0x5 SHL DUP8 ADD ADD DUP5 DUP9 ADD PUSH1 0x0 JUMPDEST DUP4 DUP2 LT ISZERO PUSH2 0x2294 JUMPI PUSH1 0x3F NOT DUP10 DUP5 SUB ADD DUP6 MSTORE DUP2 MLOAD PUSH2 0x100 DUP2 MLOAD DUP6 MSTORE DUP9 DUP3 ADD MLOAD DUP10 DUP7 ADD MSTORE DUP8 DUP3 ADD MLOAD DUP2 DUP10 DUP8 ADD MSTORE PUSH2 0x2452 DUP3 DUP8 ADD DUP3 PUSH2 0x1F91 JUMP JUMPDEST PUSH1 0x60 DUP5 DUP2 ADD MLOAD PUSH1 0x1 PUSH1 0x1 PUSH1 0xA0 SHL SUB AND SWAP1 DUP9 ADD MSTORE PUSH1 0x80 DUP1 DUP6 ADD MLOAD ISZERO ISZERO SWAP1 DUP9 ADD MSTORE PUSH1 0xA0 DUP1 DUP6 ADD MLOAD ISZERO ISZERO SWAP1 DUP9 ADD MSTORE PUSH1 0xC0 DUP1 DUP6 ADD MLOAD SWAP1 DUP9 ADD MSTORE PUSH1 0xE0 SWAP4 DUP5 ADD MLOAD DUP8 DUP3 SUB SWAP5 DUP9 ADD SWAP5 SWAP1 SWAP5 MSTORE SWAP2 POP PUSH2 0x24A5 SWAP1 POP DUP2 DUP4 PUSH2 0x21A5 JUMP JUMPDEST SWAP7 DUP10 ADD SWAP7 SWAP5 POP POP POP SWAP1 DUP7 ADD SWAP1 PUSH1 0x1 ADD PUSH2 0x241B JUMP JUMPDEST DUP4 DUP2 MSTORE PUSH1 0x60 PUSH1 0x20 DUP3 ADD MSTORE PUSH1 0x0 PUSH2 0x24D2 PUSH1 0x60 DUP4 ADD DUP6 PUSH2 0x1F91 JUMP JUMPDEST SWAP1 POP PUSH1 0x1 DUP1 PUSH1 0xA0 SHL SUB DUP4 AND PUSH1 0x40 DUP4 ADD MSTORE SWAP5 SWAP4 POP POP POP POP JUMP JUMPDEST PUSH1 0x20 DUP1 DUP3 MSTORE PUSH1 0x22 SWAP1 DUP3 ADD MSTORE PUSH32 0x6572726F723A206F7267616E697A6174696F6E20646F6573206E6F7420657869 PUSH1 0x40 DUP3 ADD MSTORE PUSH2 0x1CDD PUSH1 0xF2 SHL PUSH1 0x60 DUP3 ADD MSTORE PUSH1 0x80 ADD SWAP1 JUMP JUMPDEST PUSH4 0x4E487B71 PUSH1 0xE0 SHL PUSH1 0x0 MSTORE PUSH1 0x32 PUSH1 0x4 MSTORE PUSH1 0x24 PUSH1 0x0 REVERT JUMPDEST DUP2 DUP4 DUP3 CALLDATACOPY PUSH1 0x0 SWAP2 ADD SWAP1 DUP2 MSTORE SWAP2 SWAP1 POP JUMP JUMPDEST PUSH4 0x4E487B71 PUSH1 0xE0 SHL PUSH1 0x0 MSTORE PUSH1 0x11 PUSH1 0x4 MSTORE PUSH1 0x24 PUSH1 0x0 REVERT JUMPDEST PUSH1 0x0 DUP3 DUP3 LT ISZERO PUSH2 0x257A JUMPI PUSH2 0x257A PUSH2 0x2552 JUMP JUMPDEST POP SUB SWAP1 JUMP JUMPDEST PUSH1 0x1 DUP2 DUP2 SHR SWAP1 DUP3 AND DUP1 PUSH2 0x2593 JUMPI PUSH1 0x7F DUP3 AND SWAP2 POP JUMPDEST PUSH1 0x20 DUP3 LT DUP2 EQ ISZERO PUSH2 0x25B4 JUMPI PUSH4 0x4E487B71 PUSH1 0xE0 SHL PUSH1 0x0 MSTORE PUSH1 0x22 PUSH1 0x4 MSTORE PUSH1 0x24 PUSH1 0x0 REVERT JUMPDEST POP SWAP2 SWAP1 POP JUMP JUMPDEST PUSH1 0x0 PUSH1 0x0 NOT DUP3 EQ ISZERO PUSH2 0x25CE JUMPI PUSH2 0x25CE PUSH2 0x2552 JUMP JUMPDEST POP PUSH1 0x1 ADD SWAP1 JUMP JUMPDEST PUSH4 0x4E487B71 PUSH1 0xE0 SHL PUSH1 0x0 MSTORE PUSH1 0x31 PUSH1 0x4 MSTORE PUSH1 0x24 PUSH1 0x0 REVERT INVALID LOG2 PUSH5 0x6970667358 0x22 SLT KECCAK256 GAS SWAP3 0x4D 0xF8 0xCE DUP3 PUSH20 0x457567042983DAD3A4E458EFA25A97E864F56F48 EXP BYTE 0x25 STOP SELFDESTRUCT PUSH5 0x736F6C6343 STOP ADDMOD MULMOD STOP CALLER "},"methodIdentifiers":{"add_certification(uint256,string,uint256)":"b1d79ec1","add_employee(uint256,uint256)":"08a32ae1","add_skill(uint256,string)":"5a2ec07c","address_to_id(address)":"7a52f30e","cert_of_skill(uint256)":"f7a03f3b","certifications(uint256)":"3c0359a4","curr_emp_of_organization(uint256)":"6f09af16","editemployeerole(uint256)":"7fa6d7e6","email_to_address(string)":"4845a295","employees(uint256)":"4739326b","getAllOrgs()":"61c30fdc","getAllUsers()":"e2842d79","getNumberOfOrganizations()":"bd3a694e","getNumberOfUsers()":"4d009288","initialized()":"158ef93e","is_organization(address)":"2f7e8a78","organizations(uint256)":"e792dd8a","prev_emp_of_organization(uint256)":"2d59cdea","remove_employee(uint256,uint256)":"cf88e16f","sign_up(string,string,string)":"1575cdea","signin(string)":"9a4dc41e","skills(uint256)":"50d15fbe","skills_of_individual(uint256)":"97a62bc6","update_wallet_address(string,address)":"884ffe32","ver_of_skill(uint256)":"963aef9f","verifications(uint256)":"b90b0a10","verify_skill(uint256,uint256,string)":"6c4cc7a6"}}}}}