{
  "contractName": "Admin",
  "abi": [
    {
      "inputs": [],
      "stateMutability": "nonpayable",
      "type": "constructor"
    },
    {
      "inputs": [],
      "name": "owner",
      "outputs": [
        {
          "internalType": "address",
          "name": "",
          "type": "address"
        }
      ],
      "stateMutability": "view",
      "type": "function",
      "constant": true
    },
    {
      "inputs": [
        {
          "internalType": "address",
          "name": "EthAddress",
          "type": "address"
        },
        {
          "internalType": "string",
          "name": "Name",
          "type": "string"
        },
        {
          "internalType": "string",
          "name": "Location",
          "type": "string"
        },
        {
          "internalType": "string",
          "name": "Description",
          "type": "string"
        },
        {
          "internalType": "uint256",
          "name": "Role",
          "type": "uint256"
        }
      ],
      "name": "registerUser",
      "outputs": [],
      "stateMutability": "nonpayable",
      "type": "function"
    },
    {
      "inputs": [
        {
          "internalType": "address",
          "name": "_employeeAddress",
          "type": "address"
        }
      ],
      "name": "isEmployee",
      "outputs": [
        {
          "internalType": "bool",
          "name": "",
          "type": "bool"
        }
      ],
      "stateMutability": "view",
      "type": "function",
      "constant": true
    },
    {
      "inputs": [
        {
          "internalType": "address",
          "name": "_organizationEndorser",
          "type": "address"
        }
      ],
      "name": "isOrganizationEndorser",
      "outputs": [
        {
          "internalType": "bool",
          "name": "",
          "type": "bool"
        }
      ],
      "stateMutability": "view",
      "type": "function",
      "constant": true
    },
    {
      "inputs": [],
      "name": "employeeCount",
      "outputs": [
        {
          "internalType": "uint256",
          "name": "",
          "type": "uint256"
        }
      ],
      "stateMutability": "view",
      "type": "function",
      "constant": true
    },
    {
      "inputs": [
        {
          "internalType": "address",
          "name": "_employee",
          "type": "address"
        }
      ],
      "name": "getEmployeeContractByAddress",
      "outputs": [
        {
          "internalType": "address",
          "name": "",
          "type": "address"
        }
      ],
      "stateMutability": "view",
      "type": "function",
      "constant": true
    },
    {
      "inputs": [
        {
          "internalType": "uint256",
          "name": "index",
          "type": "uint256"
        }
      ],
      "name": "getEmployeeContractByIndex",
      "outputs": [
        {
          "internalType": "address",
          "name": "",
          "type": "address"
        }
      ],
      "stateMutability": "view",
      "type": "function",
      "constant": true
    },
    {
      "inputs": [],
      "name": "OrganizationEndorserCount",
      "outputs": [
        {
          "internalType": "uint256",
          "name": "",
          "type": "uint256"
        }
      ],
      "stateMutability": "view",
      "type": "function",
      "constant": true
    },
    {
      "inputs": [
        {
          "internalType": "address",
          "name": "_organization",
          "type": "address"
        }
      ],
      "name": "getOrganizationContractByAddress",
      "outputs": [
        {
          "internalType": "address",
          "name": "",
          "type": "address"
        }
      ],
      "stateMutability": "view",
      "type": "function",
      "constant": true
    },
    {
      "inputs": [
        {
          "internalType": "uint256",
          "name": "index",
          "type": "uint256"
        }
      ],
      "name": "getOrganizationContractByIndex",
      "outputs": [
        {
          "internalType": "address",
          "name": "",
          "type": "address"
        }
      ],
      "stateMutability": "view",
      "type": "function",
      "constant": true
    }
  ],
  "bytecode": "0x608060405234801561001057600080fd5b50336000806101000a81548173ffffffffffffffffffffffffffffffffffffffff021916908373ffffffffffffffffffffffffffffffffffffffff16021790555061527e806100606000396000f3fe60806040523480156200001157600080fd5b5060043610620000ac5760003560e01c80638da5cb5b116200006f5780638da5cb5b14620001a95780639047bf5814620001cb578063bf5a94b614620001ed578063c684ba28146200020f578063ea66543f146200024557620000ac565b806315d809f914620000b157806316ab8a3514620000e7578063323ddfc4146200011d578063447a81fe14620001535780636f93dc561462000189575b600080fd5b620000cf6004803603810190620000c99190620008d0565b6200027b565b604051620000de919062000947565b60405180910390f35b620001056004803603810190620000ff919062000995565b620002d0565b604051620001149190620009e4565b60405180910390f35b6200013b600480360381019062000135919062000995565b62000368565b6040516200014a919062000947565b60405180910390f35b6200017160048036038101906200016b9190620008d0565b620003d1565b60405162000180919062000947565b60405180910390f35b620001a76004803603810190620001a1919062000b63565b62000426565b005b620001b362000726565b604051620001c2919062000947565b60405180910390f35b620001d56200074a565b604051620001e4919062000c59565b60405180910390f35b620001f762000757565b60405162000206919062000c59565b60405180910390f35b6200022d600480360381019062000227919062000995565b62000764565b6040516200023c919062000947565b60405180910390f35b6200026360048036038101906200025d919062000995565b620007cd565b604051620002729190620009e4565b60405180910390f35b6000620002c96004838154811062000298576200029762000c76565b5b9060005260206000200160009054906101000a900473ffffffffffffffffffffffffffffffffffffffff1662000764565b9050919050565b60008073ffffffffffffffffffffffffffffffffffffffff16600260008473ffffffffffffffffffffffffffffffffffffffff1673ffffffffffffffffffffffffffffffffffffffff16815260200190815260200160002060009054906101000a900473ffffffffffffffffffffffffffffffffffffffff1673ffffffffffffffffffffffffffffffffffffffff1614159050919050565b6000600160008373ffffffffffffffffffffffffffffffffffffffff1673ffffffffffffffffffffffffffffffffffffffff16815260200190815260200160002060009054906101000a900473ffffffffffffffffffffffffffffffffffffffff169050919050565b60006200041f60038381548110620003ee57620003ed62000c76565b5b9060005260206000200160009054906101000a900473ffffffffffffffffffffffffffffffffffffffff1662000368565b9050919050565b60008054906101000a900473ffffffffffffffffffffffffffffffffffffffff1673ffffffffffffffffffffffffffffffffffffffff163373ffffffffffffffffffffffffffffffffffffffff16146200047f57600080fd5b60018103620005d65760008060009054906101000a900473ffffffffffffffffffffffffffffffffffffffff1686868686604051620004be9062000865565b620004ce95949392919062000d38565b604051809103906000f080158015620004eb573d6000803e3d6000fd5b50905080600160008873ffffffffffffffffffffffffffffffffffffffff1673ffffffffffffffffffffffffffffffffffffffff16815260200190815260200160002060006101000a81548173ffffffffffffffffffffffffffffffffffffffff021916908373ffffffffffffffffffffffffffffffffffffffff1602179055506003869080600181540180825580915050600190039060005260206000200160009091909190916101000a81548173ffffffffffffffffffffffffffffffffffffffff021916908373ffffffffffffffffffffffffffffffffffffffff160217905550506200071f565b60008060009054906101000a900473ffffffffffffffffffffffffffffffffffffffff16868686866040516200060c9062000873565b6200061c95949392919062000d38565b604051809103906000f08015801562000639573d6000803e3d6000fd5b50905080600260008873ffffffffffffffffffffffffffffffffffffffff1673ffffffffffffffffffffffffffffffffffffffff16815260200190815260200160002060006101000a81548173ffffffffffffffffffffffffffffffffffffffff021916908373ffffffffffffffffffffffffffffffffffffffff1602179055506004869080600181540180825580915050600190039060005260206000200160009091909190916101000a81548173ffffffffffffffffffffffffffffffffffffffff021916908373ffffffffffffffffffffffffffffffffffffffff160217905550505b5050505050565b60008054906101000a900473ffffffffffffffffffffffffffffffffffffffff1681565b6000600380549050905090565b6000600480549050905090565b6000600260008373ffffffffffffffffffffffffffffffffffffffff1673ffffffffffffffffffffffffffffffffffffffff16815260200190815260200160002060009054906101000a900473ffffffffffffffffffffffffffffffffffffffff169050919050565b60008073ffffffffffffffffffffffffffffffffffffffff16600160008473ffffffffffffffffffffffffffffffffffffffff1673ffffffffffffffffffffffffffffffffffffffff16815260200190815260200160002060009054906101000a900473ffffffffffffffffffffffffffffffffffffffff1673ffffffffffffffffffffffffffffffffffffffff1614159050919050565b6138b48062000dab83390190565b610bea806200465f83390190565b6000604051905090565b600080fd5b600080fd5b6000819050919050565b620008aa8162000895565b8114620008b657600080fd5b50565b600081359050620008ca816200089f565b92915050565b600060208284031215620008e957620008e86200088b565b5b6000620008f984828501620008b9565b91505092915050565b600073ffffffffffffffffffffffffffffffffffffffff82169050919050565b60006200092f8262000902565b9050919050565b620009418162000922565b82525050565b60006020820190506200095e600083018462000936565b92915050565b6200096f8162000922565b81146200097b57600080fd5b50565b6000813590506200098f8162000964565b92915050565b600060208284031215620009ae57620009ad6200088b565b5b6000620009be848285016200097e565b91505092915050565b60008115159050919050565b620009de81620009c7565b82525050565b6000602082019050620009fb6000830184620009d3565b92915050565b600080fd5b600080fd5b6000601f19601f8301169050919050565b7f4e487b7100000000000000000000000000000000000000000000000000000000600052604160045260246000fd5b62000a568262000a0b565b810181811067ffffffffffffffff8211171562000a785762000a7762000a1c565b5b80604052505050565b600062000a8d62000881565b905062000a9b828262000a4b565b919050565b600067ffffffffffffffff82111562000abe5762000abd62000a1c565b5b62000ac98262000a0b565b9050602081019050919050565b82818337600083830152505050565b600062000afc62000af68462000aa0565b62000a81565b90508281526020810184848401111562000b1b5762000b1a62000a06565b5b62000b2884828562000ad6565b509392505050565b600082601f83011262000b485762000b4762000a01565b5b813562000b5a84826020860162000ae5565b91505092915050565b600080600080600060a0868803121562000b825762000b816200088b565b5b600062000b92888289016200097e565b955050602086013567ffffffffffffffff81111562000bb65762000bb562000890565b5b62000bc48882890162000b30565b945050604086013567ffffffffffffffff81111562000be85762000be762000890565b5b62000bf68882890162000b30565b935050606086013567ffffffffffffffff81111562000c1a5762000c1962000890565b5b62000c288882890162000b30565b925050608062000c3b88828901620008b9565b9150509295509295909350565b62000c538162000895565b82525050565b600060208201905062000c70600083018462000c48565b92915050565b7f4e487b7100000000000000000000000000000000000000000000000000000000600052603260045260246000fd5b600081519050919050565b600082825260208201905092915050565b60005b8381101562000ce157808201518184015260208101905062000cc4565b8381111562000cf1576000848401525b50505050565b600062000d048262000ca5565b62000d10818562000cb0565b935062000d2281856020860162000cc1565b62000d2d8162000a0b565b840191505092915050565b600060a08201905062000d4f600083018862000936565b62000d5e602083018762000936565b818103604083015262000d72818662000cf7565b9050818103606083015262000d88818562000cf7565b9050818103608083015262000d9e818462000cf7565b9050969550505050505056fe60806040523480156200001157600080fd5b50604051620038b4380380620038b48339818101604052810190620000379190620003c8565b846000806101000a81548173ffffffffffffffffffffffffffffffffffffffff021916908373ffffffffffffffffffffffffffffffffffffffff16021790555082600690805190602001906200008f92919062000116565b5083600160006101000a81548173ffffffffffffffffffffffffffffffffffffffff021916908373ffffffffffffffffffffffffffffffffffffffff1602179055508160029080519060200190620000e992919062000116565b5080600390805190602001906200010292919062000116565b506000600581905550505050505062000511565b8280546200012490620004dc565b90600052602060002090601f01602090048101928262000148576000855562000194565b82601f106200016357805160ff191683800117855562000194565b8280016001018555821562000194579182015b828111156200019357825182559160200191906001019062000176565b5b509050620001a39190620001a7565b5090565b5b80821115620001c2576000816000905550600101620001a8565b5090565b6000604051905090565b600080fd5b600080fd5b600073ffffffffffffffffffffffffffffffffffffffff82169050919050565b60006200020782620001da565b9050919050565b6200021981620001fa565b81146200022557600080fd5b50565b60008151905062000239816200020e565b92915050565b600080fd5b600080fd5b6000601f19601f8301169050919050565b7f4e487b7100000000000000000000000000000000000000000000000000000000600052604160045260246000fd5b620002948262000249565b810181811067ffffffffffffffff82111715620002b657620002b56200025a565b5b80604052505050565b6000620002cb620001c6565b9050620002d9828262000289565b919050565b600067ffffffffffffffff821115620002fc57620002fb6200025a565b5b620003078262000249565b9050602081019050919050565b60005b838110156200033457808201518184015260208101905062000317565b8381111562000344576000848401525b50505050565b6000620003616200035b84620002de565b620002bf565b90508281526020810184848401111562000380576200037f62000244565b5b6200038d84828562000314565b509392505050565b600082601f830112620003ad57620003ac6200023f565b5b8151620003bf8482602086016200034a565b91505092915050565b600080600080600060a08688031215620003e757620003e6620001d0565b5b6000620003f78882890162000228565b95505060206200040a8882890162000228565b945050604086015167ffffffffffffffff8111156200042e576200042d620001d5565b5b6200043c8882890162000395565b935050606086015167ffffffffffffffff81111562000460576200045f620001d5565b5b6200046e8882890162000395565b925050608086015167ffffffffffffffff811115620004925762000491620001d5565b5b620004a08882890162000395565b9150509295509295909350565b7f4e487b7100000000000000000000000000000000000000000000000000000000600052602260045260246000fd5b60006002820490506001821680620004f557607f821691505b6020821081036200050b576200050a620004ad565b5b50919050565b61339380620005216000396000f3fe608060405234801561001057600080fd5b50600436106101425760003560e01c8063c07f7d16116100b8578063eda3467c1161007c578063eda3467c14610364578063f1d9efb214610380578063f5e616a61461039c578063fc017f25146103a6578063fdb10361146103c2578063fee7989e146103de57610142565b8063c07f7d16146102be578063cf6431c6146102da578063d57e0ad6146102f6578063d862ae871461032c578063e26017511461034857610142565b80636212fa021161010a5780636212fa02146101df578063645f29a8146101fd5780637b1d2d00146102315780637c067d8d1461024d57806394fb3da71461027d578063a3e3bf7d1461029b57610142565b806305f53b29146101475780632186879c14610165578063444fc6621461018157806344afd134146101b757806344f034ae146101d5575b600080fd5b61014f610412565b60405161015c919061280a565b60405180910390f35b61017f600480360381019061017a919061297f565b61041f565b005b61019b600480360381019061019691906129f4565b61051a565b6040516101ae9796959493929190612b05565b60405180910390f35b6101bf6105ef565b6040516101cc919061280a565b60405180910390f35b6101dd6105fc565b005b6101e76106f4565b6040516101f4919061280a565b60405180910390f35b610217600480360381019061021291906129f4565b610701565b604051610228959493929190612b89565b60405180910390f35b61024b60048036038101906102469190612c1d565b610764565b005b610267600480360381019061026291906129f4565b61097b565b604051610274919061280a565b60405180910390f35b61028561099f565b604051610292919061280a565b60405180910390f35b6102a36109ac565b6040516102b596959493929190612c8c565b60405180910390f35b6102d860048036038101906102d39190612d02565b610b9c565b005b6102f460048036038101906102ef919061297f565b610e03565b005b610310600480360381019061030b91906129f4565b610eb9565b6040516103239796959493929190612dbd565b60405180910390f35b61034660048036038101906103419190612e48565b610f26565b005b610362600480360381019061035d9190612ec0565b611148565b005b61037e6004803603810190610379919061297f565b611236565b005b61039a60048036038101906103959190612eed565b611331565b005b6103a46115f0565b005b6103c060048036038101906103bb9190612fd8565b6116e8565b005b6103dc60048036038101906103d7919061307f565b6117c2565b005b6103f860048036038101906103f391906129f4565b611933565b60405161040995949392919061310a565b60405180910390f35b6000600880549050905090565b600160009054906101000a900473ffffffffffffffffffffffffffffffffffffffff1673ffffffffffffffffffffffffffffffffffffffff163373ffffffffffffffffffffffffffffffffffffffff16146104af576040517f08c379a00000000000000000000000000000000000000000000000000000000081526004016104a6906131d6565b60405180910390fd5b6009816040516104bf9190613232565b908152602001604051809103902060030160019054906101000a900460ff16156009826040516104ef9190613232565b908152602001604051809103902060030160016101000a81548160ff02191690831515021790555050565b606060006060600080606060006105d66008898154811061053e5761053d613249565b5b906000526020600020018054610553906132a7565b80601f016020809104026020016040519081016040528092919081815260200182805461057f906132a7565b80156105cc5780601f106105a1576101008083540402835291602001916105cc565b820191906000526020600020905b8154815290600101906020018083116105af57829003601f168201915b50505050506119fd565b9650965096509650965096509650919395979092949650565b6000600a80549050905090565b600073ffffffffffffffffffffffffffffffffffffffff16600b60003373ffffffffffffffffffffffffffffffffffffffff1673ffffffffffffffffffffffffffffffffffffffff16815260200190815260200160002060010160009054906101000a900473ffffffffffffffffffffffffffffffffffffffff1673ffffffffffffffffffffffffffffffffffffffff160361069757600080fd5b6001600b60003373ffffffffffffffffffffffffffffffffffffffff1673ffffffffffffffffffffffffffffffffffffffff16815260200190815260200160002060040160006101000a81548160ff021916908315150217905550565b6000600e80549050905090565b600060608060006060610751600e878154811061072157610720613249565b5b9060005260206000200160009054906101000a900473ffffffffffffffffffffffffffffffffffffffff16611cec565b9450945094509450945091939590929450565b600160009054906101000a900473ffffffffffffffffffffffffffffffffffffffff1673ffffffffffffffffffffffffffffffffffffffff163373ffffffffffffffffffffffffffffffffffffffff16146107f4576040517f08c379a00000000000000000000000000000000000000000000000000000000081526004016107eb906131d6565b60405180910390fd5b6107fc612610565b83816000018190525082816020019073ffffffffffffffffffffffffffffffffffffffff16908173ffffffffffffffffffffffffffffffffffffffff168152505081816040018181525050600081606001901515908115158152505060018160800190151590811515815250508060098560405161087a9190613232565b908152602001604051809103902060008201518160000190805190602001906108a4929190612659565b5060208201518160010160006101000a81548173ffffffffffffffffffffffffffffffffffffffff021916908373ffffffffffffffffffffffffffffffffffffffff1602179055506040820151816002015560608201518160030160006101000a81548160ff02191690831515021790555060808201518160030160016101000a81548160ff021916908315150217905550905050600a84908060018154018082558091505060019003906000526020600020016000909190919091509080519060200190610974929190612659565b5050505050565b6004818154811061098b57600080fd5b906000526020600020016000915090505481565b6000600c80549050905090565b60006060806060600080600160009054906101000a900473ffffffffffffffffffffffffffffffffffffffff1660066002600360006005548480546109f0906132a7565b80601f0160208091040260200160405190810160405280929190818152602001828054610a1c906132a7565b8015610a695780601f10610a3e57610100808354040283529160200191610a69565b820191906000526020600020905b815481529060010190602001808311610a4c57829003601f168201915b50505050509450838054610a7c906132a7565b80601f0160208091040260200160405190810160405280929190818152602001828054610aa8906132a7565b8015610af55780601f10610aca57610100808354040283529160200191610af5565b820191906000526020600020905b815481529060010190602001808311610ad857829003601f168201915b50505050509350828054610b08906132a7565b80601f0160208091040260200160405190810160405280929190818152602001828054610b34906132a7565b8015610b815780601f10610b5657610100808354040283529160200191610b81565b820191906000526020600020905b815481529060010190602001808311610b6457829003601f168201915b50505050509250955095509550955095509550909192939495565b600160009054906101000a900473ffffffffffffffffffffffffffffffffffffffff1673ffffffffffffffffffffffffffffffffffffffff163373ffffffffffffffffffffffffffffffffffffffff1614610c2c576040517f08c379a0000000000000000000000000000000000000000000000000000000008152600401610c23906131d6565b60405180910390fd5b610c346126df565b84816000019073ffffffffffffffffffffffffffffffffffffffff16908173ffffffffffffffffffffffffffffffffffffffff1681525050838160200181905250828160400181905250600081606001901515908115158152505081816080018190525080600d60008773ffffffffffffffffffffffffffffffffffffffff1673ffffffffffffffffffffffffffffffffffffffff16815260200190815260200160002060008201518160000160006101000a81548173ffffffffffffffffffffffffffffffffffffffff021916908373ffffffffffffffffffffffffffffffffffffffff1602179055506020820151816001019080519060200190610d3b929190612659565b506040820151816002019080519060200190610d58929190612659565b5060608201518160030160006101000a81548160ff0219169083151502179055506080820151816004019080519060200190610d95929190612659565b50905050600e859080600181540180825580915050600190039060005260206000200160009091909190916101000a81548173ffffffffffffffffffffffffffffffffffffffff021916908373ffffffffffffffffffffffffffffffffffffffff1602179055505050505050565b600981604051610e139190613232565b908152602001604051809103902060010160009054906101000a900473ffffffffffffffffffffffffffffffffffffffff1673ffffffffffffffffffffffffffffffffffffffff163373ffffffffffffffffffffffffffffffffffffffff1614610e7c57600080fd5b6001600982604051610e8e9190613232565b908152602001604051809103902060030160006101000a81548160ff02191690831515021790555050565b60606000606080600060606000610f0d600c8981548110610edd57610edc613249565b5b9060005260206000200160009054906101000a900473ffffffffffffffffffffffffffffffffffffffff16612025565b9650965096509650965096509650919395979092949650565b600160009054906101000a900473ffffffffffffffffffffffffffffffffffffffff1673ffffffffffffffffffffffffffffffffffffffff163373ffffffffffffffffffffffffffffffffffffffff1614610fb6576040517f08c379a0000000000000000000000000000000000000000000000000000000008152600401610fad906131d6565b60405180910390fd5b610fbe612726565b8281600001819052508181604001819052506000816020018181525050600081606001901515908115158152505060018160c00190151590811515815250508060078460405161100e9190613232565b90815260200160405180910390206000820151816000019080519060200190611038929190612659565b5060208201518160010155604082015181600201908051906020019061105f929190612659565b5060608201518160030160006101000a81548160ff02191690831515021790555060808201518160030160016101000a81548173ffffffffffffffffffffffffffffffffffffffff021916908373ffffffffffffffffffffffffffffffffffffffff16021790555060a08201518160040190805190602001906110e3929190612659565b5060c08201518160050160006101000a81548160ff021916908315150217905550905050600883908060018154018082558091505060019003906000526020600020016000909190919091509080519060200190611142929190612659565b50505050565b600160009054906101000a900473ffffffffffffffffffffffffffffffffffffffff1673ffffffffffffffffffffffffffffffffffffffff163373ffffffffffffffffffffffffffffffffffffffff16146111d8576040517f08c379a00000000000000000000000000000000000000000000000000000000081526004016111cf906131d6565b60405180910390fd5b6000600b60008373ffffffffffffffffffffffffffffffffffffffff1673ffffffffffffffffffffffffffffffffffffffff16815260200190815260200160002060060160006101000a81548160ff02191690831515021790555050565b600160009054906101000a900473ffffffffffffffffffffffffffffffffffffffff1673ffffffffffffffffffffffffffffffffffffffff163373ffffffffffffffffffffffffffffffffffffffff16146112c6576040517f08c379a00000000000000000000000000000000000000000000000000000000081526004016112bd906131d6565b60405180910390fd5b6007816040516112d69190613232565b908152602001604051809103902060050160009054906101000a900460ff16156007826040516113069190613232565b908152602001604051809103902060050160006101000a81548160ff02191690831515021790555050565b600160009054906101000a900473ffffffffffffffffffffffffffffffffffffffff1673ffffffffffffffffffffffffffffffffffffffff163373ffffffffffffffffffffffffffffffffffffffff16146113c1576040517f08c379a00000000000000000000000000000000000000000000000000000000081526004016113b8906131d6565b60405180910390fd5b6113c961277d565b85816000018190525084816020019073ffffffffffffffffffffffffffffffffffffffff16908173ffffffffffffffffffffffffffffffffffffffff1681525050838160400181905250828160600181905250600081608001901515908115158152505060018160c0019015159081151581525050818160a0018190525080600b60008773ffffffffffffffffffffffffffffffffffffffff1673ffffffffffffffffffffffffffffffffffffffff16815260200190815260200160002060008201518160000190805190602001906114a3929190612659565b5060208201518160010160006101000a81548173ffffffffffffffffffffffffffffffffffffffff021916908373ffffffffffffffffffffffffffffffffffffffff1602179055506040820151816002019080519060200190611507929190612659565b506060820151816003019080519060200190611524929190612659565b5060808201518160040160006101000a81548160ff02191690831515021790555060a0820151816005019080519060200190611561929190612659565b5060c08201518160060160006101000a81548160ff021916908315150217905550905050600c859080600181540180825580915050600190039060005260206000200160009091909190916101000a81548173ffffffffffffffffffffffffffffffffffffffff021916908373ffffffffffffffffffffffffffffffffffffffff160217905550505050505050565b600073ffffffffffffffffffffffffffffffffffffffff16600d60003373ffffffffffffffffffffffffffffffffffffffff1673ffffffffffffffffffffffffffffffffffffffff16815260200190815260200160002060000160009054906101000a900473ffffffffffffffffffffffffffffffffffffffff1673ffffffffffffffffffffffffffffffffffffffff160361168b57600080fd5b6001600d60003373ffffffffffffffffffffffffffffffffffffffff1673ffffffffffffffffffffffffffffffffffffffff16815260200190815260200160002060030160006101000a81548160ff021916908315150217905550565b600160009054906101000a900473ffffffffffffffffffffffffffffffffffffffff1673ffffffffffffffffffffffffffffffffffffffff163373ffffffffffffffffffffffffffffffffffffffff1614611778576040517f08c379a000000000000000000000000000000000000000000000000000000000815260040161176f906131d6565b60405180910390fd5b826006908051906020019061178e929190612659565b5081600290805190602001906117a5929190612659565b5080600390805190602001906117bc929190612659565b50505050565b6007836040516117d29190613232565b908152602001604051809103902060050160009054906101000a900460ff166117fa57600080fd5b8160078460405161180b9190613232565b908152602001604051809103902060010181905550600482908060018154018082558091505060019003906000526020600020016000909190919091505560016005546118589190613307565b60058190555060016007846040516118709190613232565b908152602001604051809103902060030160006101000a81548160ff021916908315150217905550336007846040516118a99190613232565b908152602001604051809103902060030160016101000a81548173ffffffffffffffffffffffffffffffffffffffff021916908373ffffffffffffffffffffffffffffffffffffffff160217905550806007846040516119099190613232565b9081526020016040518091039020600401908051906020019061192d929190612659565b50505050565b60606000806000806119ea600a878154811061195257611951613249565b5b906000526020600020018054611967906132a7565b80601f0160208091040260200160405190810160405280929190818152602001828054611993906132a7565b80156119e05780601f106119b5576101008083540402835291602001916119e0565b820191906000526020600020905b8154815290600101906020018083116119c357829003601f168201915b5050505050612486565b9450945094509450945091939590929450565b60606000606060008060606000600788604051611a1a9190613232565b9081526020016040518091039020600001600789604051611a3b9190613232565b90815260200160405180910390206001015460078a604051611a5d9190613232565b908152602001604051809103902060020160078b604051611a7e9190613232565b908152602001604051809103902060030160009054906101000a900460ff1660078c604051611aad9190613232565b908152602001604051809103902060030160019054906101000a900473ffffffffffffffffffffffffffffffffffffffff1660078d604051611aef9190613232565b908152602001604051809103902060040160078e604051611b109190613232565b908152602001604051809103902060050160009054906101000a900460ff16868054611b3b906132a7565b80601f0160208091040260200160405190810160405280929190818152602001828054611b67906132a7565b8015611bb45780601f10611b8957610100808354040283529160200191611bb4565b820191906000526020600020905b815481529060010190602001808311611b9757829003601f168201915b50505050509650848054611bc7906132a7565b80601f0160208091040260200160405190810160405280929190818152602001828054611bf3906132a7565b8015611c405780601f10611c1557610100808354040283529160200191611c40565b820191906000526020600020905b815481529060010190602001808311611c2357829003601f168201915b50505050509450818054611c53906132a7565b80601f0160208091040260200160405190810160405280929190818152602001828054611c7f906132a7565b8015611ccc5780601f10611ca157610100808354040283529160200191611ccc565b820191906000526020600020905b815481529060010190602001808311611caf57829003601f168201915b505050505091509650965096509650965096509650919395979092949650565b600060608060006060600d60008773ffffffffffffffffffffffffffffffffffffffff1673ffffffffffffffffffffffffffffffffffffffff16815260200190815260200160002060000160009054906101000a900473ffffffffffffffffffffffffffffffffffffffff16600d60008873ffffffffffffffffffffffffffffffffffffffff1673ffffffffffffffffffffffffffffffffffffffff168152602001908152602001600020600101600d60008973ffffffffffffffffffffffffffffffffffffffff1673ffffffffffffffffffffffffffffffffffffffff168152602001908152602001600020600201600d60008a73ffffffffffffffffffffffffffffffffffffffff1673ffffffffffffffffffffffffffffffffffffffff16815260200190815260200160002060030160009054906101000a900460ff16600d60008b73ffffffffffffffffffffffffffffffffffffffff1673ffffffffffffffffffffffffffffffffffffffff168152602001908152602001600020600401838054611e7a906132a7565b80601f0160208091040260200160405190810160405280929190818152602001828054611ea6906132a7565b8015611ef35780601f10611ec857610100808354040283529160200191611ef3565b820191906000526020600020905b815481529060010190602001808311611ed657829003601f168201915b50505050509350828054611f06906132a7565b80601f0160208091040260200160405190810160405280929190818152602001828054611f32906132a7565b8015611f7f5780601f10611f5457610100808354040283529160200191611f7f565b820191906000526020600020905b815481529060010190602001808311611f6257829003601f168201915b50505050509250808054611f92906132a7565b80601f0160208091040260200160405190810160405280929190818152602001828054611fbe906132a7565b801561200b5780601f10611fe05761010080835404028352916020019161200b565b820191906000526020600020905b815481529060010190602001808311611fee57829003601f168201915b505050505090509450945094509450945091939590929450565b60606000606080600060606000600b60008973ffffffffffffffffffffffffffffffffffffffff1673ffffffffffffffffffffffffffffffffffffffff168152602001908152602001600020600001600b60008a73ffffffffffffffffffffffffffffffffffffffff1673ffffffffffffffffffffffffffffffffffffffff16815260200190815260200160002060010160009054906101000a900473ffffffffffffffffffffffffffffffffffffffff16600b60008b73ffffffffffffffffffffffffffffffffffffffff1673ffffffffffffffffffffffffffffffffffffffff168152602001908152602001600020600201600b60008c73ffffffffffffffffffffffffffffffffffffffff1673ffffffffffffffffffffffffffffffffffffffff168152602001908152602001600020600301600b60008d73ffffffffffffffffffffffffffffffffffffffff1673ffffffffffffffffffffffffffffffffffffffff16815260200190815260200160002060040160009054906101000a900460ff16600b60008e73ffffffffffffffffffffffffffffffffffffffff1673ffffffffffffffffffffffffffffffffffffffff168152602001908152602001600020600501600b60008f73ffffffffffffffffffffffffffffffffffffffff1673ffffffffffffffffffffffffffffffffffffffff16815260200190815260200160002060060160009054906101000a900460ff16868054612249906132a7565b80601f0160208091040260200160405190810160405280929190818152602001828054612275906132a7565b80156122c25780601f10612297576101008083540402835291602001916122c2565b820191906000526020600020905b8154815290600101906020018083116122a557829003601f168201915b505050505096508480546122d5906132a7565b80601f0160208091040260200160405190810160405280929190818152602001828054612301906132a7565b801561234e5780601f106123235761010080835404028352916020019161234e565b820191906000526020600020905b81548152906001019060200180831161233157829003601f168201915b50505050509450838054612361906132a7565b80601f016020809104026020016040519081016040528092919081815260200182805461238d906132a7565b80156123da5780601f106123af576101008083540402835291602001916123da565b820191906000526020600020905b8154815290600101906020018083116123bd57829003601f168201915b505050505093508180546123ed906132a7565b80601f0160208091040260200160405190810160405280929190818152602001828054612419906132a7565b80156124665780601f1061243b57610100808354040283529160200191612466565b820191906000526020600020905b81548152906001019060200180831161244957829003601f168201915b505050505091509650965096509650965096509650919395979092949650565b606060008060008060098660405161249e9190613232565b90815260200160405180910390206000016009876040516124bf9190613232565b908152602001604051809103902060010160009054906101000a900473ffffffffffffffffffffffffffffffffffffffff166009886040516125019190613232565b9081526020016040518091039020600201546009896040516125239190613232565b908152602001604051809103902060030160009054906101000a900460ff1660098a6040516125529190613232565b908152602001604051809103902060030160019054906101000a900460ff1684805461257d906132a7565b80601f01602080910402602001604051908101604052809291908181526020018280546125a9906132a7565b80156125f65780601f106125cb576101008083540402835291602001916125f6565b820191906000526020600020905b8154815290600101906020018083116125d957829003601f168201915b505050505094509450945094509450945091939590929450565b6040518060a0016040528060608152602001600073ffffffffffffffffffffffffffffffffffffffff168152602001600081526020016000151581526020016000151581525090565b828054612665906132a7565b90600052602060002090601f01602090048101928261268757600085556126ce565b82601f106126a057805160ff19168380011785556126ce565b828001600101855582156126ce579182015b828111156126cd5782518255916020019190600101906126b2565b5b5090506126db91906127d4565b5090565b6040518060a00160405280600073ffffffffffffffffffffffffffffffffffffffff1681526020016060815260200160608152602001600015158152602001606081525090565b6040518060e00160405280606081526020016000815260200160608152602001600015158152602001600073ffffffffffffffffffffffffffffffffffffffff168152602001606081526020016000151581525090565b6040518060e0016040528060608152602001600073ffffffffffffffffffffffffffffffffffffffff1681526020016060815260200160608152602001600015158152602001606081526020016000151581525090565b5b808211156127ed5760008160009055506001016127d5565b5090565b6000819050919050565b612804816127f1565b82525050565b600060208201905061281f60008301846127fb565b92915050565b6000604051905090565b600080fd5b600080fd5b600080fd5b600080fd5b6000601f19601f8301169050919050565b7f4e487b7100000000000000000000000000000000000000000000000000000000600052604160045260246000fd5b61288c82612843565b810181811067ffffffffffffffff821117156128ab576128aa612854565b5b80604052505050565b60006128be612825565b90506128ca8282612883565b919050565b600067ffffffffffffffff8211156128ea576128e9612854565b5b6128f382612843565b9050602081019050919050565b82818337600083830152505050565b600061292261291d846128cf565b6128b4565b90508281526020810184848401111561293e5761293d61283e565b5b612949848285612900565b509392505050565b600082601f83011261296657612965612839565b5b813561297684826020860161290f565b91505092915050565b6000602082840312156129955761299461282f565b5b600082013567ffffffffffffffff8111156129b3576129b2612834565b5b6129bf84828501612951565b91505092915050565b6129d1816127f1565b81146129dc57600080fd5b50565b6000813590506129ee816129c8565b92915050565b600060208284031215612a0a57612a0961282f565b5b6000612a18848285016129df565b91505092915050565b600081519050919050565b600082825260208201905092915050565b60005b83811015612a5b578082015181840152602081019050612a40565b83811115612a6a576000848401525b50505050565b6000612a7b82612a21565b612a858185612a2c565b9350612a95818560208601612a3d565b612a9e81612843565b840191505092915050565b60008115159050919050565b612abe81612aa9565b82525050565b600073ffffffffffffffffffffffffffffffffffffffff82169050919050565b6000612aef82612ac4565b9050919050565b612aff81612ae4565b82525050565b600060e0820190508181036000830152612b1f818a612a70565b9050612b2e60208301896127fb565b8181036040830152612b408188612a70565b9050612b4f6060830187612ab5565b612b5c6080830186612af6565b81810360a0830152612b6e8185612a70565b9050612b7d60c0830184612ab5565b98975050505050505050565b600060a082019050612b9e6000830188612af6565b8181036020830152612bb08187612a70565b90508181036040830152612bc48186612a70565b9050612bd36060830185612ab5565b8181036080830152612be58184612a70565b90509695505050505050565b612bfa81612ae4565b8114612c0557600080fd5b50565b600081359050612c1781612bf1565b92915050565b600080600060608486031215612c3657612c3561282f565b5b600084013567ffffffffffffffff811115612c5457612c53612834565b5b612c6086828701612951565b9350506020612c7186828701612c08565b9250506040612c82868287016129df565b9150509250925092565b600060c082019050612ca16000830189612af6565b8181036020830152612cb38188612a70565b90508181036040830152612cc78187612a70565b90508181036060830152612cdb8186612a70565b9050612cea60808301856127fb565b612cf760a08301846127fb565b979650505050505050565b60008060008060808587031215612d1c57612d1b61282f565b5b6000612d2a87828801612c08565b945050602085013567ffffffffffffffff811115612d4b57612d4a612834565b5b612d5787828801612951565b935050604085013567ffffffffffffffff811115612d7857612d77612834565b5b612d8487828801612951565b925050606085013567ffffffffffffffff811115612da557612da4612834565b5b612db187828801612951565b91505092959194509250565b600060e0820190508181036000830152612dd7818a612a70565b9050612de66020830189612af6565b8181036040830152612df88188612a70565b90508181036060830152612e0c8187612a70565b9050612e1b6080830186612ab5565b81810360a0830152612e2d8185612a70565b9050612e3c60c0830184612ab5565b98975050505050505050565b60008060408385031215612e5f57612e5e61282f565b5b600083013567ffffffffffffffff811115612e7d57612e7c612834565b5b612e8985828601612951565b925050602083013567ffffffffffffffff811115612eaa57612ea9612834565b5b612eb685828601612951565b9150509250929050565b600060208284031215612ed657612ed561282f565b5b6000612ee484828501612c08565b91505092915050565b600080600080600060a08688031215612f0957612f0861282f565b5b600086013567ffffffffffffffff811115612f2757612f26612834565b5b612f3388828901612951565b9550506020612f4488828901612c08565b945050604086013567ffffffffffffffff811115612f6557612f64612834565b5b612f7188828901612951565b935050606086013567ffffffffffffffff811115612f9257612f91612834565b5b612f9e88828901612951565b925050608086013567ffffffffffffffff811115612fbf57612fbe612834565b5b612fcb88828901612951565b9150509295509295909350565b600080600060608486031215612ff157612ff061282f565b5b600084013567ffffffffffffffff81111561300f5761300e612834565b5b61301b86828701612951565b935050602084013567ffffffffffffffff81111561303c5761303b612834565b5b61304886828701612951565b925050604084013567ffffffffffffffff81111561306957613068612834565b5b61307586828701612951565b9150509250925092565b6000806000606084860312156130985761309761282f565b5b600084013567ffffffffffffffff8111156130b6576130b5612834565b5b6130c286828701612951565b93505060206130d3868287016129df565b925050604084013567ffffffffffffffff8111156130f4576130f3612834565b5b61310086828701612951565b9150509250925092565b600060a08201905081810360008301526131248188612a70565b90506131336020830187612af6565b61314060408301866127fb565b61314d6060830185612ab5565b61315a6080830184612ab5565b9695505050505050565b7f4f6e6c792074686520656d706c6f7965652063616e2063616c6c20746869732060008201527f66756e6374696f6e000000000000000000000000000000000000000000000000602082015250565b60006131c0602883612a2c565b91506131cb82613164565b604082019050919050565b600060208201905081810360008301526131ef816131b3565b9050919050565b600081905092915050565b600061320c82612a21565b61321681856131f6565b9350613226818560208601612a3d565b80840191505092915050565b600061323e8284613201565b915081905092915050565b7f4e487b7100000000000000000000000000000000000000000000000000000000600052603260045260246000fd5b7f4e487b7100000000000000000000000000000000000000000000000000000000600052602260045260246000fd5b600060028204905060018216806132bf57607f821691505b6020821081036132d2576132d1613278565b5b50919050565b7f4e487b7100000000000000000000000000000000000000000000000000000000600052601160045260246000fd5b6000613312826127f1565b915061331d836127f1565b9250827fffffffffffffffffffffffffffffffffffffffffffffffffffffffffffffffff03821115613352576133516132d8565b5b82820190509291505056fea2646970667358221220488835783487eec105a0ec6224cc0ced188fbd37c6635db278d3c18e662a6f8764736f6c634300080d003360806040523480156200001157600080fd5b5060405162000bea38038062000bea8339818101604052810190620000379190620003c0565b846000806101000a81548173ffffffffffffffffffffffffffffffffffffffff021916908373ffffffffffffffffffffffffffffffffffffffff16021790555082600190805190602001906200008f9291906200010e565b5083600260006101000a81548173ffffffffffffffffffffffffffffffffffffffff021916908373ffffffffffffffffffffffffffffffffffffffff1602179055508160039080519060200190620000e99291906200010e565b508060049080519060200190620001029291906200010e565b50505050505062000509565b8280546200011c90620004d4565b90600052602060002090601f0160209004810192826200014057600085556200018c565b82601f106200015b57805160ff19168380011785556200018c565b828001600101855582156200018c579182015b828111156200018b5782518255916020019190600101906200016e565b5b5090506200019b91906200019f565b5090565b5b80821115620001ba576000816000905550600101620001a0565b5090565b6000604051905090565b600080fd5b600080fd5b600073ffffffffffffffffffffffffffffffffffffffff82169050919050565b6000620001ff82620001d2565b9050919050565b6200021181620001f2565b81146200021d57600080fd5b50565b600081519050620002318162000206565b92915050565b600080fd5b600080fd5b6000601f19601f8301169050919050565b7f4e487b7100000000000000000000000000000000000000000000000000000000600052604160045260246000fd5b6200028c8262000241565b810181811067ffffffffffffffff82111715620002ae57620002ad62000252565b5b80604052505050565b6000620002c3620001be565b9050620002d1828262000281565b919050565b600067ffffffffffffffff821115620002f457620002f362000252565b5b620002ff8262000241565b9050602081019050919050565b60005b838110156200032c5780820151818401526020810190506200030f565b838111156200033c576000848401525b50505050565b6000620003596200035384620002d6565b620002b7565b9050828152602081018484840111156200037857620003776200023c565b5b620003858482856200030c565b509392505050565b600082601f830112620003a557620003a462000237565b5b8151620003b784826020860162000342565b91505092915050565b600080600080600060a08688031215620003df57620003de620001c8565b5b6000620003ef8882890162000220565b9550506020620004028882890162000220565b945050604086015167ffffffffffffffff811115620004265762000425620001cd565b5b62000434888289016200038d565b935050606086015167ffffffffffffffff811115620004585762000457620001cd565b5b62000466888289016200038d565b925050608086015167ffffffffffffffff8111156200048a5762000489620001cd565b5b62000498888289016200038d565b9150509295509295909350565b7f4e487b7100000000000000000000000000000000000000000000000000000000600052602260045260246000fd5b60006002820490506001821680620004ed57607f821691505b602082108103620005035762000502620004a5565b5b50919050565b6106d180620005196000396000f3fe608060405234801561001057600080fd5b506004361061004b5760003560e01c8062ac80951461005057806352b9b9731461006c57806359420e481461008a578063e894d0a2146100ba575b600080fd5b61006a60048036038101906100659190610435565b6100db565b005b61007461019b565b604051610081919061047b565b60405180910390f35b6100a4600480360381019061009f91906104c2565b6101a8565b6040516100b191906104fe565b60405180910390f35b6100c26101f0565b6040516100d294939291906105b2565b60405180910390f35b600260009054906101000a900473ffffffffffffffffffffffffffffffffffffffff1673ffffffffffffffffffffffffffffffffffffffff163373ffffffffffffffffffffffffffffffffffffffff161461013557600080fd5b6005819080600181540180825580915050600190039060005260206000200160009091909190916101000a81548173ffffffffffffffffffffffffffffffffffffffff021916908373ffffffffffffffffffffffffffffffffffffffff16021790555050565b6000600580549050905090565b6000600582815481106101be576101bd61060c565b5b9060005260206000200160009054906101000a900473ffffffffffffffffffffffffffffffffffffffff169050919050565b606060006060806001600260009054906101000a900473ffffffffffffffffffffffffffffffffffffffff166003600483805461022c9061066a565b80601f01602080910402602001604051908101604052809291908181526020018280546102589061066a565b80156102a55780601f1061027a576101008083540402835291602001916102a5565b820191906000526020600020905b81548152906001019060200180831161028857829003601f168201915b505050505093508180546102b89061066a565b80601f01602080910402602001604051908101604052809291908181526020018280546102e49061066a565b80156103315780601f1061030657610100808354040283529160200191610331565b820191906000526020600020905b81548152906001019060200180831161031457829003601f168201915b505050505091508080546103449061066a565b80601f01602080910402602001604051908101604052809291908181526020018280546103709061066a565b80156103bd5780601f10610392576101008083540402835291602001916103bd565b820191906000526020600020905b8154815290600101906020018083116103a057829003601f168201915b50505050509050935093509350935090919293565b600080fd5b600073ffffffffffffffffffffffffffffffffffffffff82169050919050565b6000610402826103d7565b9050919050565b610412816103f7565b811461041d57600080fd5b50565b60008135905061042f81610409565b92915050565b60006020828403121561044b5761044a6103d2565b5b600061045984828501610420565b91505092915050565b6000819050919050565b61047581610462565b82525050565b6000602082019050610490600083018461046c565b92915050565b61049f81610462565b81146104aa57600080fd5b50565b6000813590506104bc81610496565b92915050565b6000602082840312156104d8576104d76103d2565b5b60006104e6848285016104ad565b91505092915050565b6104f8816103f7565b82525050565b600060208201905061051360008301846104ef565b92915050565b600081519050919050565b600082825260208201905092915050565b60005b83811015610553578082015181840152602081019050610538565b83811115610562576000848401525b50505050565b6000601f19601f8301169050919050565b600061058482610519565b61058e8185610524565b935061059e818560208601610535565b6105a781610568565b840191505092915050565b600060808201905081810360008301526105cc8187610579565b90506105db60208301866104ef565b81810360408301526105ed8185610579565b905081810360608301526106018184610579565b905095945050505050565b7f4e487b7100000000000000000000000000000000000000000000000000000000600052603260045260246000fd5b7f4e487b7100000000000000000000000000000000000000000000000000000000600052602260045260246000fd5b6000600282049050600182168061068257607f821691505b6020821081036106955761069461063b565b5b5091905056fea264697066735822122031d558f3801144c6a6e4b2900cc5e76b49d306e1cca9e92b0fcc0a25efbec2f464736f6c634300080d0033a26469706673582212209935a65977d4c1e2e7d928d3dd48ee4ea10a4ec708c52c2bdbee31e5e44f465e64736f6c634300080d0033",
  "immutableReferences": {},
  "source": "// SPDX-License-Identifier: GPL-3.0 License\n\n// Solidity version declaration\npragma solidity ^0.8.13;\n\n// Imports\nimport \"./Employee.sol\";\nimport \"./OrganizationEndorser.sol\";\n\n// Declaring the contract\ncontract Admin {\n  // The address of the contract owner\n  address public owner;\n\n  // Constructor function to set the owner of the contract\n  constructor() public {\n    owner = msg.sender;\n  }\n\n  // Modifier to only allow the owner to execute the following function\n  modifier onlyOwner() {\n    require(msg.sender == owner);\n    _;\n  }\n\n  // Mapping to store addresses of registered employees\n  mapping(address => address) registeredEmployeesmap;\n\n  // Mapping to store addresses of registered organizations\n  mapping(address => address) registeredOrganizationmap;\n\n  // Array to store addresses of registered employees\n  address[] registeredEmployees;\n\n  // Array to store addresses of registered organizations\n  address[] registeredOrganization;\n\n  // Function to register a new user with either employee or organization role\n  function registerUser(\n    address EthAddress,\n    string memory Name,\n    string memory Location,\n    string memory Description,\n    uint256 Role\n  ) public onlyOwner {\n    // If the role is employee\n    if (Role == 1) {\n      // Create a new instance of Employee contract\n      Employee newEmployee = new Employee(\n        owner,\n        EthAddress,\n        Name,\n        Location,\n        Description\n      );\n      // Add the new employee to the mapping of registered employees\n      registeredEmployeesmap[EthAddress] = address(newEmployee);\n\n      // Add the new employee's address to the array of registered employees\n      registeredEmployees.push(EthAddress);\n\n    } else {\n      // Create a new instance of OrganizationEndorser contract\n      OrganizationEndorser newOrganizationEndorser = new OrganizationEndorser(\n        owner,\n        EthAddress,\n        Name,\n        Location,\n        Description\n      );\n      // Add the new organization to the mapping of registered organizations\n      registeredOrganizationmap[EthAddress] = address(newOrganizationEndorser);\n\n      // Add the new organization's address to the array of registered organizations\n      registeredOrganization.push(EthAddress);\n    }\n  }\n\n  // User Section\n\n  // Function to check if an address is registered as an employee\n  function isEmployee(address _employeeAddress) public view returns (bool) {\n    return registeredEmployeesmap[_employeeAddress] != address(0x0);\n  }\n\n  // Function to check if an address is registered as an organization\n  function isOrganizationEndorser(address _organizationEndorser)\n    public\n    view\n    returns (bool)\n  {\n    return registeredOrganizationmap[_organizationEndorser] != address(0x0);\n  }\n\n  // Function to get the number of registered employees\n  function employeeCount() public view returns (uint256) {\n    return registeredEmployees.length;\n  }\n\n  // Function to get the contract address of an employee by their address\n  function getEmployeeContractByAddress(address _employee)\n    public\n    view\n    returns (address)\n  {\n    return registeredEmployeesmap[_employee];\n  }\n  \n  // Function to get the contract address of an employee by its index in the registeredEmployees array \n  function getEmployeeContractByIndex(uint256 index) public view returns (address) {\n    return getEmployeeContractByAddress(registeredEmployees[index]);\n  }\n\n  //Function to get the count of registered organizations\n  function OrganizationEndorserCount() public view returns (uint256) {\n    return registeredOrganization.length;\n  }\n\n  // Function to get the contract address of an organization by its address\n  function getOrganizationContractByAddress(address _organization) public view returns (address) {\n    return registeredOrganizationmap[_organization];\n  }\n\n  // Function to get the contract address of an organization by its index in the registeredOrganization array\n  function getOrganizationContractByIndex(uint256 index) public view returns (address) {\n    return getOrganizationContractByAddress(registeredOrganization[index]);\n  }\n}",
  "sourcePath": "C:\\Users\\DELL\\Documents\\GitHub\\TechAllureProject\\skillchain\\contracts\\Admin.sol",
  "compiler": {
    "name": "solc",
    "version": "0.8.13+commit.abaa5c0e.Emscripten.clang"
  },
  "schemaVersion": "3.4.11",
  "updatedAt": "2023-01-31T19:05:06.495Z",
  "networkType": "ethereum",
  "devdoc": {
    "kind": "dev",
    "methods": {},
    "version": 1
  },
  "userdoc": {
    "kind": "user",
    "methods": {},
    "version": 1
  }
}