{
  "contractName": "Employee",
  "abi": [
    {
      "inputs": [
        {
          "internalType": "address",
          "name": "_admin",
          "type": "address"
        },
        {
          "internalType": "address",
          "name": "_employee_address",
          "type": "address"
        },
        {
          "internalType": "string",
          "name": "_name",
          "type": "string"
        },
        {
          "internalType": "string",
          "name": "_description",
          "type": "string"
        },
        {
          "internalType": "string",
          "name": "_location",
          "type": "string"
        }
      ],
      "stateMutability": "nonpayable",
      "type": "constructor"
    },
    {
      "inputs": [
        {
          "internalType": "uint256",
          "name": "",
          "type": "uint256"
        }
      ],
      "name": "overallEndorsement",
      "outputs": [
        {
          "internalType": "uint256",
          "name": "",
          "type": "uint256"
        }
      ],
      "stateMutability": "view",
      "type": "function"
    },
    {
      "inputs": [],
      "name": "getEmployeeInfo",
      "outputs": [
        {
          "internalType": "address",
          "name": "",
          "type": "address"
        },
        {
          "internalType": "string",
          "name": "",
          "type": "string"
        },
        {
          "internalType": "string",
          "name": "",
          "type": "string"
        },
        {
          "internalType": "string",
          "name": "",
          "type": "string"
        },
        {
          "internalType": "uint256",
          "name": "",
          "type": "uint256"
        },
        {
          "internalType": "uint256",
          "name": "",
          "type": "uint256"
        }
      ],
      "stateMutability": "view",
      "type": "function"
    },
    {
      "inputs": [
        {
          "internalType": "string",
          "name": "_name",
          "type": "string"
        },
        {
          "internalType": "string",
          "name": "_descrip",
          "type": "string"
        },
        {
          "internalType": "string",
          "name": "_location",
          "type": "string"
        }
      ],
      "name": "editInfo",
      "outputs": [],
      "stateMutability": "nonpayable",
      "type": "function"
    },
    {
      "inputs": [
        {
          "internalType": "string",
          "name": "_name",
          "type": "string"
        },
        {
          "internalType": "string",
          "name": "_experience",
          "type": "string"
        }
      ],
      "name": "addSkill",
      "outputs": [],
      "stateMutability": "nonpayable",
      "type": "function"
    },
    {
      "inputs": [
        {
          "internalType": "string",
          "name": "_name",
          "type": "string"
        },
        {
          "internalType": "uint256",
          "name": "_overall_percentage",
          "type": "uint256"
        },
        {
          "internalType": "string",
          "name": "_review",
          "type": "string"
        }
      ],
      "name": "endorseSkill",
      "outputs": [],
      "stateMutability": "nonpayable",
      "type": "function"
    },
    {
      "inputs": [],
      "name": "getSkillCount",
      "outputs": [
        {
          "internalType": "uint256",
          "name": "",
          "type": "uint256"
        }
      ],
      "stateMutability": "view",
      "type": "function"
    },
    {
      "inputs": [
        {
          "internalType": "uint256",
          "name": "_index",
          "type": "uint256"
        }
      ],
      "name": "getSkillByIndex",
      "outputs": [
        {
          "internalType": "string",
          "name": "",
          "type": "string"
        },
        {
          "internalType": "uint256",
          "name": "",
          "type": "uint256"
        },
        {
          "internalType": "string",
          "name": "",
          "type": "string"
        },
        {
          "internalType": "bool",
          "name": "",
          "type": "bool"
        },
        {
          "internalType": "address",
          "name": "",
          "type": "address"
        },
        {
          "internalType": "string",
          "name": "",
          "type": "string"
        },
        {
          "internalType": "bool",
          "name": "",
          "type": "bool"
        }
      ],
      "stateMutability": "view",
      "type": "function"
    },
    {
      "inputs": [
        {
          "internalType": "string",
          "name": "_name",
          "type": "string"
        }
      ],
      "name": "deleteSkill",
      "outputs": [],
      "stateMutability": "nonpayable",
      "type": "function"
    },
    {
      "inputs": [
        {
          "internalType": "string",
          "name": "_name",
          "type": "string"
        },
        {
          "internalType": "address",
          "name": "_organization",
          "type": "address"
        },
        {
          "internalType": "uint256",
          "name": "_score",
          "type": "uint256"
        }
      ],
      "name": "addCertification",
      "outputs": [],
      "stateMutability": "nonpayable",
      "type": "function"
    },
    {
      "inputs": [
        {
          "internalType": "string",
          "name": "_name",
          "type": "string"
        }
      ],
      "name": "endorseCertification",
      "outputs": [],
      "stateMutability": "nonpayable",
      "type": "function"
    },
    {
      "inputs": [],
      "name": "getCertificationCount",
      "outputs": [
        {
          "internalType": "uint256",
          "name": "",
          "type": "uint256"
        }
      ],
      "stateMutability": "view",
      "type": "function"
    },
    {
      "inputs": [
        {
          "internalType": "uint256",
          "name": "_index",
          "type": "uint256"
        }
      ],
      "name": "getCertificationByIndex",
      "outputs": [
        {
          "internalType": "string",
          "name": "",
          "type": "string"
        },
        {
          "internalType": "address",
          "name": "",
          "type": "address"
        },
        {
          "internalType": "uint256",
          "name": "",
          "type": "uint256"
        },
        {
          "internalType": "bool",
          "name": "",
          "type": "bool"
        },
        {
          "internalType": "bool",
          "name": "",
          "type": "bool"
        }
      ],
      "stateMutability": "view",
      "type": "function"
    },
    {
      "inputs": [
        {
          "internalType": "string",
          "name": "_name",
          "type": "string"
        }
      ],
      "name": "deleteCertification",
      "outputs": [],
      "stateMutability": "nonpayable",
      "type": "function"
    },
    {
      "inputs": [
        {
          "internalType": "string",
          "name": "_role",
          "type": "string"
        },
        {
          "internalType": "address",
          "name": "_organization",
          "type": "address"
        },
        {
          "internalType": "string",
          "name": "_startdate",
          "type": "string"
        },
        {
          "internalType": "string",
          "name": "_enddate",
          "type": "string"
        },
        {
          "internalType": "string",
          "name": "_description",
          "type": "string"
        }
      ],
      "name": "addWorkExp",
      "outputs": [],
      "stateMutability": "nonpayable",
      "type": "function"
    },
    {
      "inputs": [],
      "name": "endorseWorkExp",
      "outputs": [],
      "stateMutability": "nonpayable",
      "type": "function"
    },
    {
      "inputs": [],
      "name": "getWorkExpCount",
      "outputs": [
        {
          "internalType": "uint256",
          "name": "",
          "type": "uint256"
        }
      ],
      "stateMutability": "view",
      "type": "function"
    },
    {
      "inputs": [
        {
          "internalType": "uint256",
          "name": "_index",
          "type": "uint256"
        }
      ],
      "name": "getWorkExpByIndex",
      "outputs": [
        {
          "internalType": "string",
          "name": "",
          "type": "string"
        },
        {
          "internalType": "address",
          "name": "",
          "type": "address"
        },
        {
          "internalType": "string",
          "name": "",
          "type": "string"
        },
        {
          "internalType": "string",
          "name": "",
          "type": "string"
        },
        {
          "internalType": "bool",
          "name": "",
          "type": "bool"
        },
        {
          "internalType": "string",
          "name": "",
          "type": "string"
        },
        {
          "internalType": "bool",
          "name": "",
          "type": "bool"
        }
      ],
      "stateMutability": "view",
      "type": "function"
    },
    {
      "inputs": [
        {
          "internalType": "address",
          "name": "org",
          "type": "address"
        }
      ],
      "name": "deleteWorkExp",
      "outputs": [],
      "stateMutability": "nonpayable",
      "type": "function"
    },
    {
      "inputs": [
        {
          "internalType": "address",
          "name": "_institute",
          "type": "address"
        },
        {
          "internalType": "string",
          "name": "_startdate",
          "type": "string"
        },
        {
          "internalType": "string",
          "name": "_enddate",
          "type": "string"
        },
        {
          "internalType": "string",
          "name": "_description",
          "type": "string"
        }
      ],
      "name": "addEducation",
      "outputs": [],
      "stateMutability": "nonpayable",
      "type": "function"
    },
    {
      "inputs": [],
      "name": "endorseEducation",
      "outputs": [],
      "stateMutability": "nonpayable",
      "type": "function"
    },
    {
      "inputs": [],
      "name": "getEducationCount",
      "outputs": [
        {
          "internalType": "uint256",
          "name": "",
          "type": "uint256"
        }
      ],
      "stateMutability": "view",
      "type": "function"
    },
    {
      "inputs": [
        {
          "internalType": "uint256",
          "name": "_index",
          "type": "uint256"
        }
      ],
      "name": "getEducationByIndex",
      "outputs": [
        {
          "internalType": "address",
          "name": "",
          "type": "address"
        },
        {
          "internalType": "string",
          "name": "",
          "type": "string"
        },
        {
          "internalType": "string",
          "name": "",
          "type": "string"
        },
        {
          "internalType": "bool",
          "name": "",
          "type": "bool"
        },
        {
          "internalType": "string",
          "name": "",
          "type": "string"
        }
      ],
      "stateMutability": "view",
      "type": "function"
    }
  ],
  "bytecode": "0x60806040523480156200001157600080fd5b50604051620038b4380380620038b48339818101604052810190620000379190620003c8565b846000806101000a81548173ffffffffffffffffffffffffffffffffffffffff021916908373ffffffffffffffffffffffffffffffffffffffff16021790555082600690805190602001906200008f92919062000116565b5083600160006101000a81548173ffffffffffffffffffffffffffffffffffffffff021916908373ffffffffffffffffffffffffffffffffffffffff1602179055508160029080519060200190620000e992919062000116565b5080600390805190602001906200010292919062000116565b506000600581905550505050505062000511565b8280546200012490620004dc565b90600052602060002090601f01602090048101928262000148576000855562000194565b82601f106200016357805160ff191683800117855562000194565b8280016001018555821562000194579182015b828111156200019357825182559160200191906001019062000176565b5b509050620001a39190620001a7565b5090565b5b80821115620001c2576000816000905550600101620001a8565b5090565b6000604051905090565b600080fd5b600080fd5b600073ffffffffffffffffffffffffffffffffffffffff82169050919050565b60006200020782620001da565b9050919050565b6200021981620001fa565b81146200022557600080fd5b50565b60008151905062000239816200020e565b92915050565b600080fd5b600080fd5b6000601f19601f8301169050919050565b7f4e487b7100000000000000000000000000000000000000000000000000000000600052604160045260246000fd5b620002948262000249565b810181811067ffffffffffffffff82111715620002b657620002b56200025a565b5b80604052505050565b6000620002cb620001c6565b9050620002d9828262000289565b919050565b600067ffffffffffffffff821115620002fc57620002fb6200025a565b5b620003078262000249565b9050602081019050919050565b60005b838110156200033457808201518184015260208101905062000317565b8381111562000344576000848401525b50505050565b6000620003616200035b84620002de565b620002bf565b90508281526020810184848401111562000380576200037f62000244565b5b6200038d84828562000314565b509392505050565b600082601f830112620003ad57620003ac6200023f565b5b8151620003bf8482602086016200034a565b91505092915050565b600080600080600060a08688031215620003e757620003e6620001d0565b5b6000620003f78882890162000228565b95505060206200040a8882890162000228565b945050604086015167ffffffffffffffff8111156200042e576200042d620001d5565b5b6200043c8882890162000395565b935050606086015167ffffffffffffffff81111562000460576200045f620001d5565b5b6200046e8882890162000395565b925050608086015167ffffffffffffffff811115620004925762000491620001d5565b5b620004a08882890162000395565b9150509295509295909350565b7f4e487b7100000000000000000000000000000000000000000000000000000000600052602260045260246000fd5b60006002820490506001821680620004f557607f821691505b6020821081036200050b576200050a620004ad565b5b50919050565b61339380620005216000396000f3fe608060405234801561001057600080fd5b50600436106101425760003560e01c8063c07f7d16116100b8578063eda3467c1161007c578063eda3467c14610364578063f1d9efb214610380578063f5e616a61461039c578063fc017f25146103a6578063fdb10361146103c2578063fee7989e146103de57610142565b8063c07f7d16146102be578063cf6431c6146102da578063d57e0ad6146102f6578063d862ae871461032c578063e26017511461034857610142565b80636212fa021161010a5780636212fa02146101df578063645f29a8146101fd5780637b1d2d00146102315780637c067d8d1461024d57806394fb3da71461027d578063a3e3bf7d1461029b57610142565b806305f53b29146101475780632186879c14610165578063444fc6621461018157806344afd134146101b757806344f034ae146101d5575b600080fd5b61014f610412565b60405161015c919061280a565b60405180910390f35b61017f600480360381019061017a919061297f565b61041f565b005b61019b600480360381019061019691906129f4565b61051a565b6040516101ae9796959493929190612b05565b60405180910390f35b6101bf6105ef565b6040516101cc919061280a565b60405180910390f35b6101dd6105fc565b005b6101e76106f4565b6040516101f4919061280a565b60405180910390f35b610217600480360381019061021291906129f4565b610701565b604051610228959493929190612b89565b60405180910390f35b61024b60048036038101906102469190612c1d565b610764565b005b610267600480360381019061026291906129f4565b61097b565b604051610274919061280a565b60405180910390f35b61028561099f565b604051610292919061280a565b60405180910390f35b6102a36109ac565b6040516102b596959493929190612c8c565b60405180910390f35b6102d860048036038101906102d39190612d02565b610b9c565b005b6102f460048036038101906102ef919061297f565b610e03565b005b610310600480360381019061030b91906129f4565b610eb9565b6040516103239796959493929190612dbd565b60405180910390f35b61034660048036038101906103419190612e48565b610f26565b005b610362600480360381019061035d9190612ec0565b611148565b005b61037e6004803603810190610379919061297f565b611236565b005b61039a60048036038101906103959190612eed565b611331565b005b6103a46115f0565b005b6103c060048036038101906103bb9190612fd8565b6116e8565b005b6103dc60048036038101906103d7919061307f565b6117c2565b005b6103f860048036038101906103f391906129f4565b611933565b60405161040995949392919061310a565b60405180910390f35b6000600880549050905090565b600160009054906101000a900473ffffffffffffffffffffffffffffffffffffffff1673ffffffffffffffffffffffffffffffffffffffff163373ffffffffffffffffffffffffffffffffffffffff16146104af576040517f08c379a00000000000000000000000000000000000000000000000000000000081526004016104a6906131d6565b60405180910390fd5b6009816040516104bf9190613232565b908152602001604051809103902060030160019054906101000a900460ff16156009826040516104ef9190613232565b908152602001604051809103902060030160016101000a81548160ff02191690831515021790555050565b606060006060600080606060006105d66008898154811061053e5761053d613249565b5b906000526020600020018054610553906132a7565b80601f016020809104026020016040519081016040528092919081815260200182805461057f906132a7565b80156105cc5780601f106105a1576101008083540402835291602001916105cc565b820191906000526020600020905b8154815290600101906020018083116105af57829003601f168201915b50505050506119fd565b9650965096509650965096509650919395979092949650565b6000600a80549050905090565b600073ffffffffffffffffffffffffffffffffffffffff16600b60003373ffffffffffffffffffffffffffffffffffffffff1673ffffffffffffffffffffffffffffffffffffffff16815260200190815260200160002060010160009054906101000a900473ffffffffffffffffffffffffffffffffffffffff1673ffffffffffffffffffffffffffffffffffffffff160361069757600080fd5b6001600b60003373ffffffffffffffffffffffffffffffffffffffff1673ffffffffffffffffffffffffffffffffffffffff16815260200190815260200160002060040160006101000a81548160ff021916908315150217905550565b6000600e80549050905090565b600060608060006060610751600e878154811061072157610720613249565b5b9060005260206000200160009054906101000a900473ffffffffffffffffffffffffffffffffffffffff16611cec565b9450945094509450945091939590929450565b600160009054906101000a900473ffffffffffffffffffffffffffffffffffffffff1673ffffffffffffffffffffffffffffffffffffffff163373ffffffffffffffffffffffffffffffffffffffff16146107f4576040517f08c379a00000000000000000000000000000000000000000000000000000000081526004016107eb906131d6565b60405180910390fd5b6107fc612610565b83816000018190525082816020019073ffffffffffffffffffffffffffffffffffffffff16908173ffffffffffffffffffffffffffffffffffffffff168152505081816040018181525050600081606001901515908115158152505060018160800190151590811515815250508060098560405161087a9190613232565b908152602001604051809103902060008201518160000190805190602001906108a4929190612659565b5060208201518160010160006101000a81548173ffffffffffffffffffffffffffffffffffffffff021916908373ffffffffffffffffffffffffffffffffffffffff1602179055506040820151816002015560608201518160030160006101000a81548160ff02191690831515021790555060808201518160030160016101000a81548160ff021916908315150217905550905050600a84908060018154018082558091505060019003906000526020600020016000909190919091509080519060200190610974929190612659565b5050505050565b6004818154811061098b57600080fd5b906000526020600020016000915090505481565b6000600c80549050905090565b60006060806060600080600160009054906101000a900473ffffffffffffffffffffffffffffffffffffffff1660066002600360006005548480546109f0906132a7565b80601f0160208091040260200160405190810160405280929190818152602001828054610a1c906132a7565b8015610a695780601f10610a3e57610100808354040283529160200191610a69565b820191906000526020600020905b815481529060010190602001808311610a4c57829003601f168201915b50505050509450838054610a7c906132a7565b80601f0160208091040260200160405190810160405280929190818152602001828054610aa8906132a7565b8015610af55780601f10610aca57610100808354040283529160200191610af5565b820191906000526020600020905b815481529060010190602001808311610ad857829003601f168201915b50505050509350828054610b08906132a7565b80601f0160208091040260200160405190810160405280929190818152602001828054610b34906132a7565b8015610b815780601f10610b5657610100808354040283529160200191610b81565b820191906000526020600020905b815481529060010190602001808311610b6457829003601f168201915b50505050509250955095509550955095509550909192939495565b600160009054906101000a900473ffffffffffffffffffffffffffffffffffffffff1673ffffffffffffffffffffffffffffffffffffffff163373ffffffffffffffffffffffffffffffffffffffff1614610c2c576040517f08c379a0000000000000000000000000000000000000000000000000000000008152600401610c23906131d6565b60405180910390fd5b610c346126df565b84816000019073ffffffffffffffffffffffffffffffffffffffff16908173ffffffffffffffffffffffffffffffffffffffff1681525050838160200181905250828160400181905250600081606001901515908115158152505081816080018190525080600d60008773ffffffffffffffffffffffffffffffffffffffff1673ffffffffffffffffffffffffffffffffffffffff16815260200190815260200160002060008201518160000160006101000a81548173ffffffffffffffffffffffffffffffffffffffff021916908373ffffffffffffffffffffffffffffffffffffffff1602179055506020820151816001019080519060200190610d3b929190612659565b506040820151816002019080519060200190610d58929190612659565b5060608201518160030160006101000a81548160ff0219169083151502179055506080820151816004019080519060200190610d95929190612659565b50905050600e859080600181540180825580915050600190039060005260206000200160009091909190916101000a81548173ffffffffffffffffffffffffffffffffffffffff021916908373ffffffffffffffffffffffffffffffffffffffff1602179055505050505050565b600981604051610e139190613232565b908152602001604051809103902060010160009054906101000a900473ffffffffffffffffffffffffffffffffffffffff1673ffffffffffffffffffffffffffffffffffffffff163373ffffffffffffffffffffffffffffffffffffffff1614610e7c57600080fd5b6001600982604051610e8e9190613232565b908152602001604051809103902060030160006101000a81548160ff02191690831515021790555050565b60606000606080600060606000610f0d600c8981548110610edd57610edc613249565b5b9060005260206000200160009054906101000a900473ffffffffffffffffffffffffffffffffffffffff16612025565b9650965096509650965096509650919395979092949650565b600160009054906101000a900473ffffffffffffffffffffffffffffffffffffffff1673ffffffffffffffffffffffffffffffffffffffff163373ffffffffffffffffffffffffffffffffffffffff1614610fb6576040517f08c379a0000000000000000000000000000000000000000000000000000000008152600401610fad906131d6565b60405180910390fd5b610fbe612726565b8281600001819052508181604001819052506000816020018181525050600081606001901515908115158152505060018160c00190151590811515815250508060078460405161100e9190613232565b90815260200160405180910390206000820151816000019080519060200190611038929190612659565b5060208201518160010155604082015181600201908051906020019061105f929190612659565b5060608201518160030160006101000a81548160ff02191690831515021790555060808201518160030160016101000a81548173ffffffffffffffffffffffffffffffffffffffff021916908373ffffffffffffffffffffffffffffffffffffffff16021790555060a08201518160040190805190602001906110e3929190612659565b5060c08201518160050160006101000a81548160ff021916908315150217905550905050600883908060018154018082558091505060019003906000526020600020016000909190919091509080519060200190611142929190612659565b50505050565b600160009054906101000a900473ffffffffffffffffffffffffffffffffffffffff1673ffffffffffffffffffffffffffffffffffffffff163373ffffffffffffffffffffffffffffffffffffffff16146111d8576040517f08c379a00000000000000000000000000000000000000000000000000000000081526004016111cf906131d6565b60405180910390fd5b6000600b60008373ffffffffffffffffffffffffffffffffffffffff1673ffffffffffffffffffffffffffffffffffffffff16815260200190815260200160002060060160006101000a81548160ff02191690831515021790555050565b600160009054906101000a900473ffffffffffffffffffffffffffffffffffffffff1673ffffffffffffffffffffffffffffffffffffffff163373ffffffffffffffffffffffffffffffffffffffff16146112c6576040517f08c379a00000000000000000000000000000000000000000000000000000000081526004016112bd906131d6565b60405180910390fd5b6007816040516112d69190613232565b908152602001604051809103902060050160009054906101000a900460ff16156007826040516113069190613232565b908152602001604051809103902060050160006101000a81548160ff02191690831515021790555050565b600160009054906101000a900473ffffffffffffffffffffffffffffffffffffffff1673ffffffffffffffffffffffffffffffffffffffff163373ffffffffffffffffffffffffffffffffffffffff16146113c1576040517f08c379a00000000000000000000000000000000000000000000000000000000081526004016113b8906131d6565b60405180910390fd5b6113c961277d565b85816000018190525084816020019073ffffffffffffffffffffffffffffffffffffffff16908173ffffffffffffffffffffffffffffffffffffffff1681525050838160400181905250828160600181905250600081608001901515908115158152505060018160c0019015159081151581525050818160a0018190525080600b60008773ffffffffffffffffffffffffffffffffffffffff1673ffffffffffffffffffffffffffffffffffffffff16815260200190815260200160002060008201518160000190805190602001906114a3929190612659565b5060208201518160010160006101000a81548173ffffffffffffffffffffffffffffffffffffffff021916908373ffffffffffffffffffffffffffffffffffffffff1602179055506040820151816002019080519060200190611507929190612659565b506060820151816003019080519060200190611524929190612659565b5060808201518160040160006101000a81548160ff02191690831515021790555060a0820151816005019080519060200190611561929190612659565b5060c08201518160060160006101000a81548160ff021916908315150217905550905050600c859080600181540180825580915050600190039060005260206000200160009091909190916101000a81548173ffffffffffffffffffffffffffffffffffffffff021916908373ffffffffffffffffffffffffffffffffffffffff160217905550505050505050565b600073ffffffffffffffffffffffffffffffffffffffff16600d60003373ffffffffffffffffffffffffffffffffffffffff1673ffffffffffffffffffffffffffffffffffffffff16815260200190815260200160002060000160009054906101000a900473ffffffffffffffffffffffffffffffffffffffff1673ffffffffffffffffffffffffffffffffffffffff160361168b57600080fd5b6001600d60003373ffffffffffffffffffffffffffffffffffffffff1673ffffffffffffffffffffffffffffffffffffffff16815260200190815260200160002060030160006101000a81548160ff021916908315150217905550565b600160009054906101000a900473ffffffffffffffffffffffffffffffffffffffff1673ffffffffffffffffffffffffffffffffffffffff163373ffffffffffffffffffffffffffffffffffffffff1614611778576040517f08c379a000000000000000000000000000000000000000000000000000000000815260040161176f906131d6565b60405180910390fd5b826006908051906020019061178e929190612659565b5081600290805190602001906117a5929190612659565b5080600390805190602001906117bc929190612659565b50505050565b6007836040516117d29190613232565b908152602001604051809103902060050160009054906101000a900460ff166117fa57600080fd5b8160078460405161180b9190613232565b908152602001604051809103902060010181905550600482908060018154018082558091505060019003906000526020600020016000909190919091505560016005546118589190613307565b60058190555060016007846040516118709190613232565b908152602001604051809103902060030160006101000a81548160ff021916908315150217905550336007846040516118a99190613232565b908152602001604051809103902060030160016101000a81548173ffffffffffffffffffffffffffffffffffffffff021916908373ffffffffffffffffffffffffffffffffffffffff160217905550806007846040516119099190613232565b9081526020016040518091039020600401908051906020019061192d929190612659565b50505050565b60606000806000806119ea600a878154811061195257611951613249565b5b906000526020600020018054611967906132a7565b80601f0160208091040260200160405190810160405280929190818152602001828054611993906132a7565b80156119e05780601f106119b5576101008083540402835291602001916119e0565b820191906000526020600020905b8154815290600101906020018083116119c357829003601f168201915b5050505050612486565b9450945094509450945091939590929450565b60606000606060008060606000600788604051611a1a9190613232565b9081526020016040518091039020600001600789604051611a3b9190613232565b90815260200160405180910390206001015460078a604051611a5d9190613232565b908152602001604051809103902060020160078b604051611a7e9190613232565b908152602001604051809103902060030160009054906101000a900460ff1660078c604051611aad9190613232565b908152602001604051809103902060030160019054906101000a900473ffffffffffffffffffffffffffffffffffffffff1660078d604051611aef9190613232565b908152602001604051809103902060040160078e604051611b109190613232565b908152602001604051809103902060050160009054906101000a900460ff16868054611b3b906132a7565b80601f0160208091040260200160405190810160405280929190818152602001828054611b67906132a7565b8015611bb45780601f10611b8957610100808354040283529160200191611bb4565b820191906000526020600020905b815481529060010190602001808311611b9757829003601f168201915b50505050509650848054611bc7906132a7565b80601f0160208091040260200160405190810160405280929190818152602001828054611bf3906132a7565b8015611c405780601f10611c1557610100808354040283529160200191611c40565b820191906000526020600020905b815481529060010190602001808311611c2357829003601f168201915b50505050509450818054611c53906132a7565b80601f0160208091040260200160405190810160405280929190818152602001828054611c7f906132a7565b8015611ccc5780601f10611ca157610100808354040283529160200191611ccc565b820191906000526020600020905b815481529060010190602001808311611caf57829003601f168201915b505050505091509650965096509650965096509650919395979092949650565b600060608060006060600d60008773ffffffffffffffffffffffffffffffffffffffff1673ffffffffffffffffffffffffffffffffffffffff16815260200190815260200160002060000160009054906101000a900473ffffffffffffffffffffffffffffffffffffffff16600d60008873ffffffffffffffffffffffffffffffffffffffff1673ffffffffffffffffffffffffffffffffffffffff168152602001908152602001600020600101600d60008973ffffffffffffffffffffffffffffffffffffffff1673ffffffffffffffffffffffffffffffffffffffff168152602001908152602001600020600201600d60008a73ffffffffffffffffffffffffffffffffffffffff1673ffffffffffffffffffffffffffffffffffffffff16815260200190815260200160002060030160009054906101000a900460ff16600d60008b73ffffffffffffffffffffffffffffffffffffffff1673ffffffffffffffffffffffffffffffffffffffff168152602001908152602001600020600401838054611e7a906132a7565b80601f0160208091040260200160405190810160405280929190818152602001828054611ea6906132a7565b8015611ef35780601f10611ec857610100808354040283529160200191611ef3565b820191906000526020600020905b815481529060010190602001808311611ed657829003601f168201915b50505050509350828054611f06906132a7565b80601f0160208091040260200160405190810160405280929190818152602001828054611f32906132a7565b8015611f7f5780601f10611f5457610100808354040283529160200191611f7f565b820191906000526020600020905b815481529060010190602001808311611f6257829003601f168201915b50505050509250808054611f92906132a7565b80601f0160208091040260200160405190810160405280929190818152602001828054611fbe906132a7565b801561200b5780601f10611fe05761010080835404028352916020019161200b565b820191906000526020600020905b815481529060010190602001808311611fee57829003601f168201915b505050505090509450945094509450945091939590929450565b60606000606080600060606000600b60008973ffffffffffffffffffffffffffffffffffffffff1673ffffffffffffffffffffffffffffffffffffffff168152602001908152602001600020600001600b60008a73ffffffffffffffffffffffffffffffffffffffff1673ffffffffffffffffffffffffffffffffffffffff16815260200190815260200160002060010160009054906101000a900473ffffffffffffffffffffffffffffffffffffffff16600b60008b73ffffffffffffffffffffffffffffffffffffffff1673ffffffffffffffffffffffffffffffffffffffff168152602001908152602001600020600201600b60008c73ffffffffffffffffffffffffffffffffffffffff1673ffffffffffffffffffffffffffffffffffffffff168152602001908152602001600020600301600b60008d73ffffffffffffffffffffffffffffffffffffffff1673ffffffffffffffffffffffffffffffffffffffff16815260200190815260200160002060040160009054906101000a900460ff16600b60008e73ffffffffffffffffffffffffffffffffffffffff1673ffffffffffffffffffffffffffffffffffffffff168152602001908152602001600020600501600b60008f73ffffffffffffffffffffffffffffffffffffffff1673ffffffffffffffffffffffffffffffffffffffff16815260200190815260200160002060060160009054906101000a900460ff16868054612249906132a7565b80601f0160208091040260200160405190810160405280929190818152602001828054612275906132a7565b80156122c25780601f10612297576101008083540402835291602001916122c2565b820191906000526020600020905b8154815290600101906020018083116122a557829003601f168201915b505050505096508480546122d5906132a7565b80601f0160208091040260200160405190810160405280929190818152602001828054612301906132a7565b801561234e5780601f106123235761010080835404028352916020019161234e565b820191906000526020600020905b81548152906001019060200180831161233157829003601f168201915b50505050509450838054612361906132a7565b80601f016020809104026020016040519081016040528092919081815260200182805461238d906132a7565b80156123da5780601f106123af576101008083540402835291602001916123da565b820191906000526020600020905b8154815290600101906020018083116123bd57829003601f168201915b505050505093508180546123ed906132a7565b80601f0160208091040260200160405190810160405280929190818152602001828054612419906132a7565b80156124665780601f1061243b57610100808354040283529160200191612466565b820191906000526020600020905b81548152906001019060200180831161244957829003601f168201915b505050505091509650965096509650965096509650919395979092949650565b606060008060008060098660405161249e9190613232565b90815260200160405180910390206000016009876040516124bf9190613232565b908152602001604051809103902060010160009054906101000a900473ffffffffffffffffffffffffffffffffffffffff166009886040516125019190613232565b9081526020016040518091039020600201546009896040516125239190613232565b908152602001604051809103902060030160009054906101000a900460ff1660098a6040516125529190613232565b908152602001604051809103902060030160019054906101000a900460ff1684805461257d906132a7565b80601f01602080910402602001604051908101604052809291908181526020018280546125a9906132a7565b80156125f65780601f106125cb576101008083540402835291602001916125f6565b820191906000526020600020905b8154815290600101906020018083116125d957829003601f168201915b505050505094509450945094509450945091939590929450565b6040518060a0016040528060608152602001600073ffffffffffffffffffffffffffffffffffffffff168152602001600081526020016000151581526020016000151581525090565b828054612665906132a7565b90600052602060002090601f01602090048101928261268757600085556126ce565b82601f106126a057805160ff19168380011785556126ce565b828001600101855582156126ce579182015b828111156126cd5782518255916020019190600101906126b2565b5b5090506126db91906127d4565b5090565b6040518060a00160405280600073ffffffffffffffffffffffffffffffffffffffff1681526020016060815260200160608152602001600015158152602001606081525090565b6040518060e00160405280606081526020016000815260200160608152602001600015158152602001600073ffffffffffffffffffffffffffffffffffffffff168152602001606081526020016000151581525090565b6040518060e0016040528060608152602001600073ffffffffffffffffffffffffffffffffffffffff1681526020016060815260200160608152602001600015158152602001606081526020016000151581525090565b5b808211156127ed5760008160009055506001016127d5565b5090565b6000819050919050565b612804816127f1565b82525050565b600060208201905061281f60008301846127fb565b92915050565b6000604051905090565b600080fd5b600080fd5b600080fd5b600080fd5b6000601f19601f8301169050919050565b7f4e487b7100000000000000000000000000000000000000000000000000000000600052604160045260246000fd5b61288c82612843565b810181811067ffffffffffffffff821117156128ab576128aa612854565b5b80604052505050565b60006128be612825565b90506128ca8282612883565b919050565b600067ffffffffffffffff8211156128ea576128e9612854565b5b6128f382612843565b9050602081019050919050565b82818337600083830152505050565b600061292261291d846128cf565b6128b4565b90508281526020810184848401111561293e5761293d61283e565b5b612949848285612900565b509392505050565b600082601f83011261296657612965612839565b5b813561297684826020860161290f565b91505092915050565b6000602082840312156129955761299461282f565b5b600082013567ffffffffffffffff8111156129b3576129b2612834565b5b6129bf84828501612951565b91505092915050565b6129d1816127f1565b81146129dc57600080fd5b50565b6000813590506129ee816129c8565b92915050565b600060208284031215612a0a57612a0961282f565b5b6000612a18848285016129df565b91505092915050565b600081519050919050565b600082825260208201905092915050565b60005b83811015612a5b578082015181840152602081019050612a40565b83811115612a6a576000848401525b50505050565b6000612a7b82612a21565b612a858185612a2c565b9350612a95818560208601612a3d565b612a9e81612843565b840191505092915050565b60008115159050919050565b612abe81612aa9565b82525050565b600073ffffffffffffffffffffffffffffffffffffffff82169050919050565b6000612aef82612ac4565b9050919050565b612aff81612ae4565b82525050565b600060e0820190508181036000830152612b1f818a612a70565b9050612b2e60208301896127fb565b8181036040830152612b408188612a70565b9050612b4f6060830187612ab5565b612b5c6080830186612af6565b81810360a0830152612b6e8185612a70565b9050612b7d60c0830184612ab5565b98975050505050505050565b600060a082019050612b9e6000830188612af6565b8181036020830152612bb08187612a70565b90508181036040830152612bc48186612a70565b9050612bd36060830185612ab5565b8181036080830152612be58184612a70565b90509695505050505050565b612bfa81612ae4565b8114612c0557600080fd5b50565b600081359050612c1781612bf1565b92915050565b600080600060608486031215612c3657612c3561282f565b5b600084013567ffffffffffffffff811115612c5457612c53612834565b5b612c6086828701612951565b9350506020612c7186828701612c08565b9250506040612c82868287016129df565b9150509250925092565b600060c082019050612ca16000830189612af6565b8181036020830152612cb38188612a70565b90508181036040830152612cc78187612a70565b90508181036060830152612cdb8186612a70565b9050612cea60808301856127fb565b612cf760a08301846127fb565b979650505050505050565b60008060008060808587031215612d1c57612d1b61282f565b5b6000612d2a87828801612c08565b945050602085013567ffffffffffffffff811115612d4b57612d4a612834565b5b612d5787828801612951565b935050604085013567ffffffffffffffff811115612d7857612d77612834565b5b612d8487828801612951565b925050606085013567ffffffffffffffff811115612da557612da4612834565b5b612db187828801612951565b91505092959194509250565b600060e0820190508181036000830152612dd7818a612a70565b9050612de66020830189612af6565b8181036040830152612df88188612a70565b90508181036060830152612e0c8187612a70565b9050612e1b6080830186612ab5565b81810360a0830152612e2d8185612a70565b9050612e3c60c0830184612ab5565b98975050505050505050565b60008060408385031215612e5f57612e5e61282f565b5b600083013567ffffffffffffffff811115612e7d57612e7c612834565b5b612e8985828601612951565b925050602083013567ffffffffffffffff811115612eaa57612ea9612834565b5b612eb685828601612951565b9150509250929050565b600060208284031215612ed657612ed561282f565b5b6000612ee484828501612c08565b91505092915050565b600080600080600060a08688031215612f0957612f0861282f565b5b600086013567ffffffffffffffff811115612f2757612f26612834565b5b612f3388828901612951565b9550506020612f4488828901612c08565b945050604086013567ffffffffffffffff811115612f6557612f64612834565b5b612f7188828901612951565b935050606086013567ffffffffffffffff811115612f9257612f91612834565b5b612f9e88828901612951565b925050608086013567ffffffffffffffff811115612fbf57612fbe612834565b5b612fcb88828901612951565b9150509295509295909350565b600080600060608486031215612ff157612ff061282f565b5b600084013567ffffffffffffffff81111561300f5761300e612834565b5b61301b86828701612951565b935050602084013567ffffffffffffffff81111561303c5761303b612834565b5b61304886828701612951565b925050604084013567ffffffffffffffff81111561306957613068612834565b5b61307586828701612951565b9150509250925092565b6000806000606084860312156130985761309761282f565b5b600084013567ffffffffffffffff8111156130b6576130b5612834565b5b6130c286828701612951565b93505060206130d3868287016129df565b925050604084013567ffffffffffffffff8111156130f4576130f3612834565b5b61310086828701612951565b9150509250925092565b600060a08201905081810360008301526131248188612a70565b90506131336020830187612af6565b61314060408301866127fb565b61314d6060830185612ab5565b61315a6080830184612ab5565b9695505050505050565b7f4f6e6c792074686520656d706c6f7965652063616e2063616c6c20746869732060008201527f66756e6374696f6e000000000000000000000000000000000000000000000000602082015250565b60006131c0602883612a2c565b91506131cb82613164565b604082019050919050565b600060208201905081810360008301526131ef816131b3565b9050919050565b600081905092915050565b600061320c82612a21565b61321681856131f6565b9350613226818560208601612a3d565b80840191505092915050565b600061323e8284613201565b915081905092915050565b7f4e487b7100000000000000000000000000000000000000000000000000000000600052603260045260246000fd5b7f4e487b7100000000000000000000000000000000000000000000000000000000600052602260045260246000fd5b600060028204905060018216806132bf57607f821691505b6020821081036132d2576132d1613278565b5b50919050565b7f4e487b7100000000000000000000000000000000000000000000000000000000600052601160045260246000fd5b6000613312826127f1565b915061331d836127f1565b9250827fffffffffffffffffffffffffffffffffffffffffffffffffffffffffffffffff03821115613352576133516132d8565b5b82820190509291505056fea2646970667358221220488835783487eec105a0ec6224cc0ced188fbd37c6635db278d3c18e662a6f8764736f6c634300080d0033",
  "immutableReferences": {},
  "source": "// SPDX-License-Identifier: GPL-3.0 License\n\n// Solidity version declaration\npragma solidity ^0.8.13;\n\n// Declaring the contract for Employee information\ncontract Employee {\n  // Admin address\n  address admin;\n  // Address of the employee\n  address employee_address;\n  // Description of the employee\n  string description;\n  // Location of the employee\n  string location;\n  // Overall endorsement of the employee\n  uint256[] public overallEndorsement;\n  // Count of the endorsement of the employee\n  uint256 endorsecount;\n  // Name of the employee\n  string name;\n\n  // Constructor function to initialize the employee information\n  constructor(\n  address _admin,\n  address _employee_address,\n  string memory _name,\n  string memory _description,\n  string memory _location\n  ) public {\n    // Setting the admin address\n    admin = _admin;\n    // Setting the name of the employee\n    name = _name;\n    // Setting the address of the employee\n    employee_address = _employee_address;\n    // Setting the description of the employee\n    description = _description;\n    // Setting the location of the employee\n    location = _location;\n    // Setting the endorsement count to 0\n    endorsecount = 0;\n  }\n\n  // Modifier to check if msg.sender is the employee address\n  modifier OnlyEmployee() {\n    require(msg.sender == employee_address, \"Only the employee can call this function\");\n    _;\n  }\n\n  // Function to retrieve the employee information \n  function getEmployeeInfo()\n    public\n    view\n    returns (\n      address,\n      string memory,\n      string memory,\n      string memory,\n      uint256,\n      uint256\n    )\n  {\n    return (employee_address, name, description, location, 0, endorsecount);\n  }\n\n  // Function to edit the employee information\n  function editInfo(\n    string memory _name,\n    string memory _descrip,\n    string memory _location\n  ) public OnlyEmployee {\n\n    // Updating the employee name, description, and location\n    name = _name;\n    description = _descrip;\n    location = _location;\n  }\n\n\n  // Skill Section\n\n  // Define a struct to store skill information\n  struct skillInfo {\n    // Name of the skill\n    string name;\n    // Overall endorsement percentage for the skill\n    uint256 overall_percentage;\n    // Employee's experience with the skill\n    string experience;\n    // Boolean indicating whether the skill has been endorsed\n    bool endorsed;\n    // Address of the endorser\n    address endorser_address;\n    // Endorser's review of the skill\n    string review;\n    // Boolean indicating whether the skill is visible to others\n    bool visible;\n  }\n\n  // Mapping to store the skills of the employee, with the key being the name of the skill\n  mapping(string => skillInfo) skillmap;\n  // Array to store the names of the employee's skills\n  string[] skills;\n\n  // Function to add a new skill to the employee's skill set\n  function addSkill(string memory _name, string memory _experience)\n      public\n      // Require that the caller be the employee themselves\n      OnlyEmployee\n  {\n      // Create a new skillInfo object to store information about the new skill\n      skillInfo memory employeeSkillSet;\n      // Set the name of the skill\n      employeeSkillSet.name = _name;\n      // Set the employee's experience with the skill\n      employeeSkillSet.experience = _experience;\n      // Initialize the overall endorsement percentage to 0\n      employeeSkillSet.overall_percentage = 0;\n      // Initialize the endorsement status to false\n      employeeSkillSet.endorsed = false;\n      // Initialize the visibility of the skill to true\n      employeeSkillSet.visible = true;\n      // Add the new skill to the skill map\n      skillmap[_name] = employeeSkillSet;\n      // Add the name of the skill to the skills array\n      skills.push(_name);\n  }\n\n\n  // This function allows an address to endorse a skill of an employee\n  function endorseSkill(\n    string memory _name,  // name of the skill to endorse\n    uint256 _overall_percentage,  // overall percentage of endorsement\n    string memory _review  // review of the endorsement\n  ) public {\n    // Require that the skill is visible in the mapping\n    require(skillmap[_name].visible);\n\n    // Update the overall endorsement percentage for the skill\n    skillmap[_name].overall_percentage = _overall_percentage;\n\n    // Push the endorsement percentage to the overall endorsement array\n    overallEndorsement.push(_overall_percentage);\n\n    // Increase the endorsement count\n    endorsecount = endorsecount + 1;\n\n    // Mark the skill as endorsed\n    skillmap[_name].endorsed = true;\n\n    // Store the address of the endorser\n    skillmap[_name].endorser_address = msg.sender;\n\n    // Store the review of the endorsement\n    skillmap[_name].review = _review;\n  }\n\n  // This function retrieves the information of a skill by its name\n  function getSkillByName(string memory _name)\n    private  // visibility is private\n    view  // specifies that the function is a view function\n    returns (\n      string memory,  // name of the skill\n      uint256,  // overall endorsement percentage\n      string memory,  // experience with the skill\n      bool,  // whether the skill has been endorsed\n      address,  // address of the endorser\n      string memory,  // review of the endorsement\n      bool  // visibility of the skill\n    ) {\n    // Return the skill information from the skill mapping\n    return (\n      skillmap[_name].name,\n      skillmap[_name].overall_percentage,\n      skillmap[_name].experience,\n      skillmap[_name].endorsed,\n      skillmap[_name].endorser_address,\n      skillmap[_name].review,\n      skillmap[_name].visible\n    );\n  }\n\n  // This function returns the count of skills\n  function getSkillCount() public view returns (uint256) {\n    // Return the length of the skills array\n    return skills.length;\n  }\n\n  // This function retrieves the information of a skill by its index in the skills array\n  function getSkillByIndex(uint256 _index)\n    public  // visibility is public\n    view  // specifies that the function is a view function\n    returns (\n      string memory,  // name of the skill\n      uint256,  // overall endorsement percentage\n      string memory,  // experience with the skill\n      bool,  // whether the skill has been endorsed\n      address,  // address of the endorser\n      string memory,  // review of the endorsement\n      bool  // visibility of the skill\n    ) {\n    // Return the information of the skill by its name\n    return getSkillByName(skills[_index]);\n  }\n\n  // This function deletes a skill by making it invisible\n  function deleteSkill(string memory _name) public OnlyEmployee {\n    // Toggle the visibility of the skill in the mapping\n    skillmap[_name].visible = !skillmap[_name].visible;\n  }\n\n\n  // Certification Section\n\n  // Struct to store certification information\n  struct certificationInfo {\n    string name; // name of the certification\n    address organization; // organization that issued the certification\n    uint256 score; // score obtained in the certification\n    bool endorsed; // whether the certification is endorsed or not\n    bool visible; // whether the certification is visible or not\n  }\n\n// Mapping of certification names to certification information\n  mapping(string => certificationInfo) certificationmap;\n\n// List of all certifications\n  string[] certifications;\n\n  /**\n   * Function to add a certification\n   * param _name Name of the certification\n   * param _organization Organization that issued the certification\n   * param _score Score obtained in the certification\n   * Only employees can add certifications\n   */\n  function addCertification(\n    string memory _name,\n    address _organization,\n    uint256 _score\n  ) public OnlyEmployee {\n    // Create a new certificationInfo struct\n    certificationInfo memory newcertificationInfo;\n    // Set the properties of the struct\n    newcertificationInfo.name = _name;\n    newcertificationInfo.organization = _organization;\n    newcertificationInfo.score = _score;\n    newcertificationInfo.endorsed = false;\n    newcertificationInfo.visible = true;\n    // Add the certification to the mapping\n    certificationmap[_name] = newcertificationInfo;\n    // Add the name of the certification to the list of all certifications\n    certifications.push(_name);\n  }\n\n  /**\n   * Function to endorse a certification\n   * param _name Name of the certification to endorse\n   * Only the issuing organization can endorse a certification\n   */\n  function endorseCertification(string memory _name) public {\n    // Check if the sender is the issuing organization\n    require(msg.sender == certificationmap[_name].organization);\n    // Endorse the certification\n    certificationmap[_name].endorsed = true;\n  }\n\n  /**\n   * Function to get the information of a certification by its name\n   * param _name Name of the certification\n   * returns name, organization, score, endorsed, visible\n   * Private and view function\n   */\n  function getCertificationByName(string memory _name)\n    private\n    view\n    returns (\n      string memory,\n      address,\n      uint256,\n      bool,\n      bool\n    )\n  {\n    // Return the information of the certification\n    return (\n      certificationmap[_name].name,\n      certificationmap[_name].organization,\n      certificationmap[_name].score,\n      certificationmap[_name].endorsed,\n      certificationmap[_name].visible\n    );\n  }\n\n  /**\n   * Function to get the total number of certifications\n   * returns number of certifications\n   * Public and view function\n   */\n  function getCertificationCount() public view returns (uint256) {\n    // Return the length of the certifications list\n    return certifications.length;\n  }\n\n  /**\n   * Function to get the information of a certification by its index in the list\n   * param _index Index of the certification in the list\n   * returns name, organization, score, endorsed, visible\n   * Public and view function\n   */\n  // Get certification information by index from the certifications array\n  function getCertificationByIndex(uint256 _index) public view returns (\n    string memory,  // name of the certification\n    address,        // organization that issued the certification\n    uint256,        // score received for the certification\n    bool,           // if the certification is endorsed\n    bool            // if the certification is visible\n  ) {\n    // Returns the certification information for the name specified by the index passed\n    return getCertificationByName(certifications[_index]);\n  }\n\n  // Function to delete a certification by name\n  function deleteCertification(string memory _name) public OnlyEmployee {\n    // Changes the visibility of the certification with the specified name\n    certificationmap[_name].visible = !certificationmap[_name].visible;\n  }\n\n\n  // Work Experience Section\n\n  // Definition of work experience information struct\n  struct workexpInfo {\n    // Role of the worker\n    string role;\n    // Address of the organization the worker worked for\n    address organization;\n    // Start date of the work experience\n    string startdate;\n    // End date of the work experience\n    string enddate;\n    // Endorsement status\n    bool endorsed;\n    // Description of the work experience\n    string description;\n    // Visibility status\n    bool visible;\n  }\n\n  // Mapping to store work experience information\n  mapping(address => workexpInfo) workexpmap;\n  // Array to store all work experience addresses\n  address[] workexps;\n\n  // Function to add work experience information\n  function addWorkExp(\n  string memory _role,\n  address _organization,\n  string memory _startdate,\n  string memory _enddate,\n  string memory _description\n  ) public OnlyEmployee {\n    // Temporary workexpInfo instance\n    workexpInfo memory newworkexp;\n    // Assign role to the new workexpInfo instance\n    newworkexp.role = _role;\n    // Assign organization to the new workexpInfo instance\n    newworkexp.organization = _organization;\n    // Assign start date to the new workexpInfo instance\n    newworkexp.startdate = _startdate;\n    // Assign end date to the new workexpInfo instance\n    newworkexp.enddate = _enddate;\n    // Set endorsement status to false\n    newworkexp.endorsed = false;\n    // Set visibility status to true\n    newworkexp.visible = true;\n    // Assign description to the new workexpInfo instance\n    newworkexp.description = _description;\n    // Add the new workexpInfo instance to the workexpmap\n    workexpmap[_organization] = newworkexp;\n    // Add the organization address to the workexps array\n    workexps.push(_organization);\n  }\n\n  // Function to endorse a work experience\n  function endorseWorkExp() public {\n    // Require the organization address of the work experience to be non-zero\n    require(workexpmap[msg.sender].organization != address(0x0));\n    // Set endorsement status to true\n    workexpmap[msg.sender].endorsed = true;\n  }\n\n  // getWorkExpByAddress returns work experience information of a specific organization by address\n  function getWorkExpByAddress(address _organization)\n    private\n    view\n    returns (\n      string memory, // role\n      address, // organization\n      string memory, // startdate\n      string memory, // enddate\n      bool, // endorsed\n      string memory, // description\n      bool // visible\n    )\n  {\n    // return all the fields of workexpmap for the given organization\n    return (\n      workexpmap[_organization].role,\n      workexpmap[_organization].organization,\n      workexpmap[_organization].startdate,\n      workexpmap[_organization].enddate,\n      workexpmap[_organization].endorsed,\n      workexpmap[_organization].description,\n      workexpmap[_organization].visible\n    );\n  }\n\n  // getWorkExpCount returns the total number of work experiences\n  function getWorkExpCount() public view returns (uint256) {\n    return workexps.length;\n  }\n\n  // getWorkExpByIndex returns work experience information of a specific organization by index\n  function getWorkExpByIndex(uint256 _index)\n    public\n    view\n    returns (\n      string memory, // role\n      address, // organization\n      string memory, // startdate\n      string memory, // enddate\n      bool, // endorsed\n      string memory, // description\n      bool // visible\n    )\n  {\n    // return all the fields of workexpmap for the organization found at the given index in workexps array\n    return getWorkExpByAddress(workexps[_index]);\n  }\n\n  // deleteWorkExp sets the visibility of a specific organization to false\n  function deleteWorkExp(address org) public OnlyEmployee {\n    // change visibility of the workexpmap for the given organization to false\n    workexpmap[org].visible = false;\n  }\n\n\n  // Education Section\n\n  // Struct to store education information\n  struct educationInfo {\n    // address of the educational institute\n    address institute;\n    // start date of education\n    string startdate;\n    // end date of education\n    string enddate;\n    // whether the education is endorsed\n    bool endorsed;\n    // description of the education\n    string description;\n  }\n\n  // mapping to store education information, key is the institute address\n  mapping(address => educationInfo) educationmap;\n  // array to store all the institute addresses\n  address[] educations;\n\n  // function to add education information for an employee\n  function addEducation(\n      // institute address\n      address _institute,\n      // start date of education\n      string memory _startdate,\n      // end date of education\n      string memory _enddate,\n      // description of the education\n      string memory _description\n  ) public OnlyEmployee {\n    // memory variable to store new education information\n    educationInfo memory newEducation;\n    // store the institute address\n    newEducation.institute = _institute;\n    // store the start date\n    newEducation.startdate = _startdate;\n    // store the end date\n    newEducation.enddate = _enddate;\n    // set endorsement to false initially\n    newEducation.endorsed = false;\n    // store the description\n    newEducation.description = _description;\n    // add the education information to the mapping\n    educationmap[_institute] = newEducation;\n    // push the institute address to the array\n    educations.push(_institute);\n  }\n\n  // function to endorse the education information for an employee\n  function endorseEducation() public {\n    // check if the education information for the employee exists\n    require(educationmap[msg.sender].institute != address(0x0));\n    // set endorsement to true\n    educationmap[msg.sender].endorsed = true;\n  }\n\n  //This function returns the education details for a given institute address\n  function getEducationByAddress(address _institute)\n    //The function is private and can only be accessed within the contract\n    private\n    //This function uses a view function, which means it does not modify the state of the contract\n    view\n    //This function returns five values: address, startdate, enddate, endorsed, and description\n    returns (\n      address,\n      string memory,\n      string memory,\n      bool,\n      string memory\n    )\n  {\n    //The function returns the education details stored in the educationmap mapping\n    return (\n      educationmap[_institute].institute,\n      educationmap[_institute].startdate,\n      educationmap[_institute].enddate,\n      educationmap[_institute].endorsed,\n      educationmap[_institute].description\n    );\n  }\n\n  //This function returns the number of educational records stored in the educations array\n  function getEducationCount() public view returns (uint256) {\n    return educations.length;\n  }\n\n  //This function returns the education details for a given index in the educations array\n  function getEducationByIndex(uint256 _index)\n    //The function is public and can be accessed from outside the contract\n    public\n    //This function uses a view function, which means it does not modify the state of the contract\n    view\n    //This function returns five values: address, startdate, enddate, endorsed, and description\n    returns (\n      address,\n      string memory,\n      string memory,\n      bool,\n      string memory\n    )\n  {\n    //The function returns the education details for a given institute address by calling the getEducationByAddress function\n    return getEducationByAddress(educations[_index]);\n  }\n\n}\n",
  "sourcePath": "C:\\Users\\DELL\\Documents\\GitHub\\TechAllureProject\\skillchain\\contracts\\Employee.sol",
  "compiler": {
    "name": "solc",
    "version": "0.8.13+commit.abaa5c0e.Emscripten.clang"
  },
  "schemaVersion": "3.4.11",
  "updatedAt": "2023-01-31T19:04:06.755Z",
  "devdoc": {
    "kind": "dev",
    "methods": {},
    "version": 1
  },
  "userdoc": {
    "kind": "user",
    "methods": {
      "addCertification(string,address,uint256)": {
        "notice": "Function to add a certification param _name Name of the certification param _organization Organization that issued the certification param _score Score obtained in the certification Only employees can add certifications"
      },
      "endorseCertification(string)": {
        "notice": "Function to endorse a certification param _name Name of the certification to endorse Only the issuing organization can endorse a certification"
      },
      "getCertificationByIndex(uint256)": {
        "notice": "Function to get the information of a certification by its index in the list param _index Index of the certification in the list returns name, organization, score, endorsed, visible Public and view function"
      },
      "getCertificationCount()": {
        "notice": "Function to get the total number of certifications returns number of certifications Public and view function"
      }
    },
    "version": 1
  }
}