{
  "contractName": "OrganizationEndorser",
  "abi": [
    {
      "inputs": [
        {
          "internalType": "address",
          "name": "_admin",
          "type": "address"
        },
        {
          "internalType": "address",
          "name": "_organization_address",
          "type": "address"
        },
        {
          "internalType": "string",
          "name": "_name",
          "type": "string"
        },
        {
          "internalType": "string",
          "name": "_description",
          "type": "string"
        },
        {
          "internalType": "string",
          "name": "_location",
          "type": "string"
        }
      ],
      "stateMutability": "nonpayable",
      "type": "constructor"
    },
    {
      "inputs": [],
      "name": "getOrganizationInfo",
      "outputs": [
        {
          "internalType": "string",
          "name": "",
          "type": "string"
        },
        {
          "internalType": "address",
          "name": "",
          "type": "address"
        },
        {
          "internalType": "string",
          "name": "",
          "type": "string"
        },
        {
          "internalType": "string",
          "name": "",
          "type": "string"
        }
      ],
      "stateMutability": "view",
      "type": "function"
    },
    {
      "inputs": [
        {
          "internalType": "address",
          "name": "employee_address",
          "type": "address"
        }
      ],
      "name": "addEmployees",
      "outputs": [],
      "stateMutability": "nonpayable",
      "type": "function"
    },
    {
      "inputs": [],
      "name": "totalEmployees",
      "outputs": [
        {
          "internalType": "uint256",
          "name": "",
          "type": "uint256"
        }
      ],
      "stateMutability": "view",
      "type": "function"
    },
    {
      "inputs": [
        {
          "internalType": "uint256",
          "name": "index",
          "type": "uint256"
        }
      ],
      "name": "getEmployeeByIndex",
      "outputs": [
        {
          "internalType": "address",
          "name": "",
          "type": "address"
        }
      ],
      "stateMutability": "view",
      "type": "function"
    }
  ],
  "bytecode": "0x60806040523480156200001157600080fd5b5060405162000bea38038062000bea8339818101604052810190620000379190620003c0565b846000806101000a81548173ffffffffffffffffffffffffffffffffffffffff021916908373ffffffffffffffffffffffffffffffffffffffff16021790555082600190805190602001906200008f9291906200010e565b5083600260006101000a81548173ffffffffffffffffffffffffffffffffffffffff021916908373ffffffffffffffffffffffffffffffffffffffff1602179055508160039080519060200190620000e99291906200010e565b508060049080519060200190620001029291906200010e565b50505050505062000509565b8280546200011c90620004d4565b90600052602060002090601f0160209004810192826200014057600085556200018c565b82601f106200015b57805160ff19168380011785556200018c565b828001600101855582156200018c579182015b828111156200018b5782518255916020019190600101906200016e565b5b5090506200019b91906200019f565b5090565b5b80821115620001ba576000816000905550600101620001a0565b5090565b6000604051905090565b600080fd5b600080fd5b600073ffffffffffffffffffffffffffffffffffffffff82169050919050565b6000620001ff82620001d2565b9050919050565b6200021181620001f2565b81146200021d57600080fd5b50565b600081519050620002318162000206565b92915050565b600080fd5b600080fd5b6000601f19601f8301169050919050565b7f4e487b7100000000000000000000000000000000000000000000000000000000600052604160045260246000fd5b6200028c8262000241565b810181811067ffffffffffffffff82111715620002ae57620002ad62000252565b5b80604052505050565b6000620002c3620001be565b9050620002d1828262000281565b919050565b600067ffffffffffffffff821115620002f457620002f362000252565b5b620002ff8262000241565b9050602081019050919050565b60005b838110156200032c5780820151818401526020810190506200030f565b838111156200033c576000848401525b50505050565b6000620003596200035384620002d6565b620002b7565b9050828152602081018484840111156200037857620003776200023c565b5b620003858482856200030c565b509392505050565b600082601f830112620003a557620003a462000237565b5b8151620003b784826020860162000342565b91505092915050565b600080600080600060a08688031215620003df57620003de620001c8565b5b6000620003ef8882890162000220565b9550506020620004028882890162000220565b945050604086015167ffffffffffffffff811115620004265762000425620001cd565b5b62000434888289016200038d565b935050606086015167ffffffffffffffff811115620004585762000457620001cd565b5b62000466888289016200038d565b925050608086015167ffffffffffffffff8111156200048a5762000489620001cd565b5b62000498888289016200038d565b9150509295509295909350565b7f4e487b7100000000000000000000000000000000000000000000000000000000600052602260045260246000fd5b60006002820490506001821680620004ed57607f821691505b602082108103620005035762000502620004a5565b5b50919050565b6106d180620005196000396000f3fe608060405234801561001057600080fd5b506004361061004b5760003560e01c8062ac80951461005057806352b9b9731461006c57806359420e481461008a578063e894d0a2146100ba575b600080fd5b61006a60048036038101906100659190610435565b6100db565b005b61007461019b565b604051610081919061047b565b60405180910390f35b6100a4600480360381019061009f91906104c2565b6101a8565b6040516100b191906104fe565b60405180910390f35b6100c26101f0565b6040516100d294939291906105b2565b60405180910390f35b600260009054906101000a900473ffffffffffffffffffffffffffffffffffffffff1673ffffffffffffffffffffffffffffffffffffffff163373ffffffffffffffffffffffffffffffffffffffff161461013557600080fd5b6005819080600181540180825580915050600190039060005260206000200160009091909190916101000a81548173ffffffffffffffffffffffffffffffffffffffff021916908373ffffffffffffffffffffffffffffffffffffffff16021790555050565b6000600580549050905090565b6000600582815481106101be576101bd61060c565b5b9060005260206000200160009054906101000a900473ffffffffffffffffffffffffffffffffffffffff169050919050565b606060006060806001600260009054906101000a900473ffffffffffffffffffffffffffffffffffffffff166003600483805461022c9061066a565b80601f01602080910402602001604051908101604052809291908181526020018280546102589061066a565b80156102a55780601f1061027a576101008083540402835291602001916102a5565b820191906000526020600020905b81548152906001019060200180831161028857829003601f168201915b505050505093508180546102b89061066a565b80601f01602080910402602001604051908101604052809291908181526020018280546102e49061066a565b80156103315780601f1061030657610100808354040283529160200191610331565b820191906000526020600020905b81548152906001019060200180831161031457829003601f168201915b505050505091508080546103449061066a565b80601f01602080910402602001604051908101604052809291908181526020018280546103709061066a565b80156103bd5780601f10610392576101008083540402835291602001916103bd565b820191906000526020600020905b8154815290600101906020018083116103a057829003601f168201915b50505050509050935093509350935090919293565b600080fd5b600073ffffffffffffffffffffffffffffffffffffffff82169050919050565b6000610402826103d7565b9050919050565b610412816103f7565b811461041d57600080fd5b50565b60008135905061042f81610409565b92915050565b60006020828403121561044b5761044a6103d2565b5b600061045984828501610420565b91505092915050565b6000819050919050565b61047581610462565b82525050565b6000602082019050610490600083018461046c565b92915050565b61049f81610462565b81146104aa57600080fd5b50565b6000813590506104bc81610496565b92915050565b6000602082840312156104d8576104d76103d2565b5b60006104e6848285016104ad565b91505092915050565b6104f8816103f7565b82525050565b600060208201905061051360008301846104ef565b92915050565b600081519050919050565b600082825260208201905092915050565b60005b83811015610553578082015181840152602081019050610538565b83811115610562576000848401525b50505050565b6000601f19601f8301169050919050565b600061058482610519565b61058e8185610524565b935061059e818560208601610535565b6105a781610568565b840191505092915050565b600060808201905081810360008301526105cc8187610579565b90506105db60208301866104ef565b81810360408301526105ed8185610579565b905081810360608301526106018184610579565b905095945050505050565b7f4e487b7100000000000000000000000000000000000000000000000000000000600052603260045260246000fd5b7f4e487b7100000000000000000000000000000000000000000000000000000000600052602260045260246000fd5b6000600282049050600182168061068257607f821691505b6020821081036106955761069461063b565b5b5091905056fea264697066735822122031d558f3801144c6a6e4b2900cc5e76b49d306e1cca9e92b0fcc0a25efbec2f464736f6c634300080d0033",
  "immutableReferences": {},
  "source": "// SPDX-License-Identifier: GPL-3.0 License\n\n// Solidity version declaration\npragma solidity ^0.8.13;\n\n// Declaring the contract\ncontract OrganizationEndorser {\n  address admin;\n  string name;\n  address organization_address;\n  string description;\n  string location;\n\n  constructor(\n    address _admin,\n    address _organization_address,\n    string memory _name,\n    string memory _description,\n    string memory _location\n  ) public {\n    admin = _admin;\n    name = _name;\n    organization_address = _organization_address;\n    description = _description;\n    location = _location;\n  }\n\n  function getOrganizationInfo()\n    public\n    view\n    returns (\n      string memory,\n      address,\n      string memory,\n      string memory\n    )\n  {\n    return (name, organization_address, description, location);\n  }\n\n  address[] allEmployees;\n\n  function addEmployees(address employee_address) public {\n    require(msg.sender == organization_address);\n    allEmployees.push(employee_address);\n  }\n\n  function totalEmployees() public view returns (uint256) {\n    return allEmployees.length;\n  }\n\n  function getEmployeeByIndex(uint256 index) public view returns (address) {\n    return allEmployees[index];\n  }\n}\n",
  "sourcePath": "C:\\Users\\DELL\\Documents\\GitHub\\TechAllureProject\\skillchain\\contracts\\OrganizationEndorser.sol",
  "compiler": {
    "name": "solc",
    "version": "0.8.13+commit.abaa5c0e.Emscripten.clang"
  },
  "schemaVersion": "3.4.11",
  "updatedAt": "2023-01-31T19:04:06.768Z",
  "devdoc": {
    "kind": "dev",
    "methods": {},
    "version": 1
  },
  "userdoc": {
    "kind": "user",
    "methods": {},
    "version": 1
  }
}