{
  "contractName": "Skills",
  "abi": [
    {
      "inputs": [
        {
          "internalType": "string",
          "name": "_name",
          "type": "string"
        },
        {
          "internalType": "address",
          "name": "_employee",
          "type": "address"
        }
      ],
      "name": "addEmployeeToSkill",
      "outputs": [],
      "stateMutability": "nonpayable",
      "type": "function"
    },
    {
      "inputs": [],
      "name": "getSkillLength",
      "outputs": [
        {
          "internalType": "uint256",
          "name": "",
          "type": "uint256"
        }
      ],
      "stateMutability": "view",
      "type": "function",
      "constant": true
    },
    {
      "inputs": [
        {
          "internalType": "uint256",
          "name": "index",
          "type": "uint256"
        }
      ],
      "name": "getSkillsByIndex",
      "outputs": [
        {
          "internalType": "string",
          "name": "",
          "type": "string"
        }
      ],
      "stateMutability": "view",
      "type": "function",
      "constant": true
    },
    {
      "inputs": [
        {
          "internalType": "uint256",
          "name": "index",
          "type": "uint256"
        }
      ],
      "name": "getTotalEmployeeInSkillByIndex",
      "outputs": [
        {
          "internalType": "uint256",
          "name": "",
          "type": "uint256"
        }
      ],
      "stateMutability": "view",
      "type": "function",
      "constant": true
    },
    {
      "inputs": [
        {
          "internalType": "string",
          "name": "_name",
          "type": "string"
        }
      ],
      "name": "getTotalEmployeeInSkillByName",
      "outputs": [
        {
          "internalType": "uint256",
          "name": "",
          "type": "uint256"
        }
      ],
      "stateMutability": "view",
      "type": "function",
      "constant": true
    },
    {
      "inputs": [
        {
          "internalType": "uint256",
          "name": "skill_index",
          "type": "uint256"
        },
        {
          "internalType": "uint256",
          "name": "emp_index",
          "type": "uint256"
        }
      ],
      "name": "getEmployeeInSkillByIndex",
      "outputs": [
        {
          "internalType": "address",
          "name": "",
          "type": "address"
        }
      ],
      "stateMutability": "view",
      "type": "function",
      "constant": true
    },
    {
      "inputs": [
        {
          "internalType": "string",
          "name": "_name",
          "type": "string"
        },
        {
          "internalType": "uint256",
          "name": "emp_index",
          "type": "uint256"
        }
      ],
      "name": "getEmployeeBySkillName",
      "outputs": [
        {
          "internalType": "address",
          "name": "",
          "type": "address"
        }
      ],
      "stateMutability": "view",
      "type": "function",
      "constant": true
    }
  ],
  "bytecode": "0x608060405234801561001057600080fd5b50610b67806100206000396000f3fe608060405234801561001057600080fd5b506004361061007d5760003560e01c80638673de531161005b5780638673de53146100ec578063bb50d7721461011c578063e518dc3c1461014c578063f4cee6171461017c5761007d565b80632e2acc4c14610082578063359c410f1461009e5780633dc1a6bc146100ce575b600080fd5b61009c60048036038101906100979190610702565b6101ac565b005b6100b860048036038101906100b39190610794565b610294565b6040516100c591906107d0565b60405180910390f35b6100d66102db565b6040516100e391906107d0565b60405180910390f35b61010660048036038101906101019190610794565b6102e8565b6040516101139190610873565b60405180910390f35b61013660048036038101906101319190610895565b610398565b60405161014391906108e4565b60405180910390f35b610166600480360381019061016191906108ff565b610419565b60405161017391906107d0565b60405180910390f35b61019660048036038101906101919190610948565b610443565b6040516101a391906108e4565b60405180910390f35b600080836040516101bd91906109e0565b908152602001604051809103902080549050036102115760018290806001815401808255809150506001900390600052602060002001600090919091909150908051906020019061020f9291906104a7565b505b60008260405161022191906109e0565b9081526020016040518091039020819080600181540180825580915050600190039060005260206000200160009091909190916101000a81548173ffffffffffffffffffffffffffffffffffffffff021916908373ffffffffffffffffffffffffffffffffffffffff1602179055505050565b600080600183815481106102ab576102aa6109f7565b5b906000526020600020016040516102c29190610b1a565b9081526020016040518091039020805490509050919050565b6000600180549050905090565b6060600182815481106102fe576102fd6109f7565b5b90600052602060002001805461031390610a55565b80601f016020809104026020016040519081016040528092919081815260200182805461033f90610a55565b801561038c5780601f106103615761010080835404028352916020019161038c565b820191906000526020600020905b81548152906001019060200180831161036f57829003601f168201915b50505050509050919050565b600080600184815481106103af576103ae6109f7565b5b906000526020600020016040516103c69190610b1a565b908152602001604051809103902082815481106103e6576103e56109f7565b5b9060005260206000200160009054906101000a900473ffffffffffffffffffffffffffffffffffffffff16905092915050565b6000808260405161042a91906109e0565b9081526020016040518091039020805490509050919050565b6000808360405161045491906109e0565b90815260200160405180910390208281548110610474576104736109f7565b5b9060005260206000200160009054906101000a900473ffffffffffffffffffffffffffffffffffffffff16905092915050565b8280546104b390610a55565b90600052602060002090601f0160209004810192826104d5576000855561051c565b82601f106104ee57805160ff191683800117855561051c565b8280016001018555821561051c579182015b8281111561051b578251825591602001919060010190610500565b5b509050610529919061052d565b5090565b5b8082111561054657600081600090555060010161052e565b5090565b6000604051905090565b600080fd5b600080fd5b600080fd5b600080fd5b6000601f19601f8301169050919050565b7f4e487b7100000000000000000000000000000000000000000000000000000000600052604160045260246000fd5b6105b182610568565b810181811067ffffffffffffffff821117156105d0576105cf610579565b5b80604052505050565b60006105e361054a565b90506105ef82826105a8565b919050565b600067ffffffffffffffff82111561060f5761060e610579565b5b61061882610568565b9050602081019050919050565b82818337600083830152505050565b6000610647610642846105f4565b6105d9565b90508281526020810184848401111561066357610662610563565b5b61066e848285610625565b509392505050565b600082601f83011261068b5761068a61055e565b5b813561069b848260208601610634565b91505092915050565b600073ffffffffffffffffffffffffffffffffffffffff82169050919050565b60006106cf826106a4565b9050919050565b6106df816106c4565b81146106ea57600080fd5b50565b6000813590506106fc816106d6565b92915050565b6000806040838503121561071957610718610554565b5b600083013567ffffffffffffffff81111561073757610736610559565b5b61074385828601610676565b9250506020610754858286016106ed565b9150509250929050565b6000819050919050565b6107718161075e565b811461077c57600080fd5b50565b60008135905061078e81610768565b92915050565b6000602082840312156107aa576107a9610554565b5b60006107b88482850161077f565b91505092915050565b6107ca8161075e565b82525050565b60006020820190506107e560008301846107c1565b92915050565b600081519050919050565b600082825260208201905092915050565b60005b8381101561082557808201518184015260208101905061080a565b83811115610834576000848401525b50505050565b6000610845826107eb565b61084f81856107f6565b935061085f818560208601610807565b61086881610568565b840191505092915050565b6000602082019050818103600083015261088d818461083a565b905092915050565b600080604083850312156108ac576108ab610554565b5b60006108ba8582860161077f565b92505060206108cb8582860161077f565b9150509250929050565b6108de816106c4565b82525050565b60006020820190506108f960008301846108d5565b92915050565b60006020828403121561091557610914610554565b5b600082013567ffffffffffffffff81111561093357610932610559565b5b61093f84828501610676565b91505092915050565b6000806040838503121561095f5761095e610554565b5b600083013567ffffffffffffffff81111561097d5761097c610559565b5b61098985828601610676565b925050602061099a8582860161077f565b9150509250929050565b600081905092915050565b60006109ba826107eb565b6109c481856109a4565b93506109d4818560208601610807565b80840191505092915050565b60006109ec82846109af565b915081905092915050565b7f4e487b7100000000000000000000000000000000000000000000000000000000600052603260045260246000fd5b7f4e487b7100000000000000000000000000000000000000000000000000000000600052602260045260246000fd5b60006002820490506001821680610a6d57607f821691505b602082108103610a8057610a7f610a26565b5b50919050565b60008190508160005260206000209050919050565b60008154610aa881610a55565b610ab281866109a4565b94506001821660008114610acd5760018114610ade57610b11565b60ff19831686528186019350610b11565b610ae785610a86565b60005b83811015610b0957815481890152600182019150602081019050610aea565b838801955050505b50505092915050565b6000610b268284610a9b565b91508190509291505056fea26469706673582212203e4347e0eb8d45ebdb72ea6a7df84ec89607f8dd9252cc0ef39227d61783036364736f6c634300080d0033",
  "immutableReferences": {},
  "source": "// SPDX-License-Identifier: GPL-3.0 License\n\n// Solidity version declaration\npragma solidity ^0.8.13;\n\n// Declaring the contract\ncontract Skills {\n  mapping(string => address[]) skillmap;\n  string[] skill;\n\n  // Function to add skill by an employee\n  function addEmployeeToSkill(string memory _name, address _employee) public {\n    if (skillmap[_name].length == 0) {\n      skill.push(_name);\n    }\n    skillmap[_name].push(_employee);\n  }\n\n  function getSkillLength() public view returns (uint256) {\n    return skill.length;\n  }\n\n  function getSkillsByIndex(uint256 index) public view returns (string memory) {\n    return skill[index];\n  }\n\n  function getTotalEmployeeInSkillByIndex(uint256 index)\n    public\n    view\n    returns (uint256)\n  {\n    return skillmap[skill[index]].length;\n  }\n\n  function getTotalEmployeeInSkillByName(string memory _name)\n    public\n    view\n    returns (uint256)\n  {\n    return skillmap[_name].length;\n  }\n\n  function getEmployeeInSkillByIndex(uint256 skill_index, uint256 emp_index)\n    public\n    view\n    returns (address)\n  {\n    return skillmap[skill[skill_index]][emp_index];\n  }\n\n  function getEmployeeBySkillName(string memory _name, uint256 emp_index)\n    public\n    view\n    returns (address)\n  {\n    return skillmap[_name][emp_index];\n  }\n}\n",
  "sourcePath": "C:\\Users\\DELL\\Documents\\GitHub\\TechAllureProject\\skillchain\\contracts\\Skills.sol",
  "compiler": {
    "name": "solc",
    "version": "0.8.13+commit.abaa5c0e.Emscripten.clang"
  },
  "schemaVersion": "3.4.11",
  "updatedAt": "2023-01-31T19:05:06.507Z",
  "networkType": "ethereum",
  "devdoc": {
    "kind": "dev",
    "methods": {},
    "version": 1
  },
  "userdoc": {
    "kind": "user",
    "methods": {},
    "version": 1
  }
}